{
  "_format": "hh-sol-artifact-1",
  "contractName": "Exchange",
  "sourceName": "contracts/Exchange.sol",
  "abi": [
    {
      "inputs": [],
      "stateMutability": "nonpayable",
      "type": "constructor"
    },
    {
      "anonymous": false,
      "inputs": [
        {
          "indexed": false,
          "internalType": "address",
          "name": "previousAdmin",
          "type": "address"
        },
        {
          "indexed": false,
          "internalType": "address",
          "name": "newAdmin",
          "type": "address"
        }
      ],
      "name": "AdminChanged",
      "type": "event"
    },
    {
      "anonymous": false,
      "inputs": [
        {
          "indexed": true,
          "internalType": "address",
          "name": "beacon",
          "type": "address"
        }
      ],
      "name": "BeaconUpgraded",
      "type": "event"
    },
    {
      "anonymous": false,
      "inputs": [],
      "name": "Closed",
      "type": "event"
    },
    {
      "anonymous": false,
      "inputs": [
        {
          "indexed": false,
          "internalType": "uint8",
          "name": "version",
          "type": "uint8"
        }
      ],
      "name": "Initialized",
      "type": "event"
    },
    {
      "anonymous": false,
      "inputs": [
        {
          "indexed": false,
          "internalType": "uint256",
          "name": "blockRange",
          "type": "uint256"
        }
      ],
      "name": "NewBlockRange",
      "type": "event"
    },
    {
      "anonymous": false,
      "inputs": [
        {
          "indexed": true,
          "internalType": "contract IExecutionDelegate",
          "name": "executionDelegate",
          "type": "address"
        }
      ],
      "name": "NewExecutionDelegate",
      "type": "event"
    },
    {
      "anonymous": false,
      "inputs": [
        {
          "indexed": true,
          "internalType": "address",
          "name": "oracle",
          "type": "address"
        }
      ],
      "name": "NewOracle",
      "type": "event"
    },
    {
      "anonymous": false,
      "inputs": [
        {
          "indexed": true,
          "internalType": "contract IPolicyManager",
          "name": "policyManager",
          "type": "address"
        }
      ],
      "name": "NewPolicyManager",
      "type": "event"
    },
    {
      "anonymous": false,
      "inputs": [
        {
          "indexed": true,
          "internalType": "address",
          "name": "trader",
          "type": "address"
        },
        {
          "indexed": false,
          "internalType": "uint256",
          "name": "newNonce",
          "type": "uint256"
        }
      ],
      "name": "NonceIncremented",
      "type": "event"
    },
    {
      "anonymous": false,
      "inputs": [],
      "name": "Opened",
      "type": "event"
    },
    {
      "anonymous": false,
      "inputs": [
        {
          "indexed": false,
          "internalType": "bytes32",
          "name": "hash",
          "type": "bytes32"
        }
      ],
      "name": "OrderCancelled",
      "type": "event"
    },
    {
      "anonymous": false,
      "inputs": [
        {
          "indexed": true,
          "internalType": "address",
          "name": "maker",
          "type": "address"
        },
        {
          "indexed": true,
          "internalType": "address",
          "name": "taker",
          "type": "address"
        },
        {
          "components": [
            {
              "internalType": "address",
              "name": "trader",
              "type": "address"
            },
            {
              "internalType": "enum Side",
              "name": "side",
              "type": "uint8"
            },
            {
              "internalType": "address",
              "name": "matchingPolicy",
              "type": "address"
            },
            {
              "internalType": "address",
              "name": "collection",
              "type": "address"
            },
            {
              "internalType": "uint256",
              "name": "tokenId",
              "type": "uint256"
            },
            {
              "internalType": "uint256",
              "name": "amount",
              "type": "uint256"
            },
            {
              "internalType": "address",
              "name": "paymentToken",
              "type": "address"
            },
            {
              "internalType": "uint256",
              "name": "price",
              "type": "uint256"
            },
            {
              "internalType": "uint256",
              "name": "listingTime",
              "type": "uint256"
            },
            {
              "internalType": "uint256",
              "name": "expirationTime",
              "type": "uint256"
            },
            {
              "components": [
                {
                  "internalType": "uint16",
                  "name": "rate",
                  "type": "uint16"
                },
                {
                  "internalType": "address payable",
                  "name": "recipient",
                  "type": "address"
                }
              ],
              "internalType": "struct Fee[]",
              "name": "fees",
              "type": "tuple[]"
            },
            {
              "internalType": "uint256",
              "name": "salt",
              "type": "uint256"
            },
            {
              "internalType": "bytes",
              "name": "extraParams",
              "type": "bytes"
            }
          ],
          "indexed": false,
          "internalType": "struct Order",
          "name": "sell",
          "type": "tuple"
        },
        {
          "indexed": false,
          "internalType": "bytes32",
          "name": "sellHash",
          "type": "bytes32"
        },
        {
          "components": [
            {
              "internalType": "address",
              "name": "trader",
              "type": "address"
            },
            {
              "internalType": "enum Side",
              "name": "side",
              "type": "uint8"
            },
            {
              "internalType": "address",
              "name": "matchingPolicy",
              "type": "address"
            },
            {
              "internalType": "address",
              "name": "collection",
              "type": "address"
            },
            {
              "internalType": "uint256",
              "name": "tokenId",
              "type": "uint256"
            },
            {
              "internalType": "uint256",
              "name": "amount",
              "type": "uint256"
            },
            {
              "internalType": "address",
              "name": "paymentToken",
              "type": "address"
            },
            {
              "internalType": "uint256",
              "name": "price",
              "type": "uint256"
            },
            {
              "internalType": "uint256",
              "name": "listingTime",
              "type": "uint256"
            },
            {
              "internalType": "uint256",
              "name": "expirationTime",
              "type": "uint256"
            },
            {
              "components": [
                {
                  "internalType": "uint16",
                  "name": "rate",
                  "type": "uint16"
                },
                {
                  "internalType": "address payable",
                  "name": "recipient",
                  "type": "address"
                }
              ],
              "internalType": "struct Fee[]",
              "name": "fees",
              "type": "tuple[]"
            },
            {
              "internalType": "uint256",
              "name": "salt",
              "type": "uint256"
            },
            {
              "internalType": "bytes",
              "name": "extraParams",
              "type": "bytes"
            }
          ],
          "indexed": false,
          "internalType": "struct Order",
          "name": "buy",
          "type": "tuple"
        },
        {
          "indexed": false,
          "internalType": "bytes32",
          "name": "buyHash",
          "type": "bytes32"
        }
      ],
      "name": "OrdersMatched",
      "type": "event"
    },
    {
      "anonymous": false,
      "inputs": [
        {
          "indexed": true,
          "internalType": "address",
          "name": "previousOwner",
          "type": "address"
        },
        {
          "indexed": true,
          "internalType": "address",
          "name": "newOwner",
          "type": "address"
        }
      ],
      "name": "OwnershipTransferred",
      "type": "event"
    },
    {
      "anonymous": false,
      "inputs": [
        {
          "indexed": true,
          "internalType": "address",
          "name": "implementation",
          "type": "address"
        }
      ],
      "name": "Upgraded",
      "type": "event"
    },
    {
      "inputs": [],
      "name": "FEE_TYPEHASH",
      "outputs": [
        {
          "internalType": "bytes32",
          "name": "",
          "type": "bytes32"
        }
      ],
      "stateMutability": "view",
      "type": "function"
    },
    {
      "inputs": [],
      "name": "INVERSE_BASIS_POINT",
      "outputs": [
        {
          "internalType": "uint256",
          "name": "",
          "type": "uint256"
        }
      ],
      "stateMutability": "view",
      "type": "function"
    },
    {
      "inputs": [],
      "name": "NAME",
      "outputs": [
        {
          "internalType": "string",
          "name": "",
          "type": "string"
        }
      ],
      "stateMutability": "view",
      "type": "function"
    },
    {
      "inputs": [],
      "name": "ORACLE_ORDER_TYPEHASH",
      "outputs": [
        {
          "internalType": "bytes32",
          "name": "",
          "type": "bytes32"
        }
      ],
      "stateMutability": "view",
      "type": "function"
    },
    {
      "inputs": [],
      "name": "ORDER_TYPEHASH",
      "outputs": [
        {
          "internalType": "bytes32",
          "name": "",
          "type": "bytes32"
        }
      ],
      "stateMutability": "view",
      "type": "function"
    },
    {
      "inputs": [],
      "name": "POOL",
      "outputs": [
        {
          "internalType": "address",
          "name": "",
          "type": "address"
        }
      ],
      "stateMutability": "view",
      "type": "function"
    },
    {
      "inputs": [],
      "name": "ROOT_TYPEHASH",
      "outputs": [
        {
          "internalType": "bytes32",
          "name": "",
          "type": "bytes32"
        }
      ],
      "stateMutability": "view",
      "type": "function"
    },
    {
      "inputs": [],
      "name": "VERSION",
      "outputs": [
        {
          "internalType": "string",
          "name": "",
          "type": "string"
        }
      ],
      "stateMutability": "view",
      "type": "function"
    },
    {
      "inputs": [],
      "name": "WETH",
      "outputs": [
        {
          "internalType": "address",
          "name": "",
          "type": "address"
        }
      ],
      "stateMutability": "view",
      "type": "function"
    },
    {
      "inputs": [
        {
          "components": [
            {
              "components": [
                {
                  "internalType": "address",
                  "name": "trader",
                  "type": "address"
                },
                {
                  "internalType": "enum Side",
                  "name": "side",
                  "type": "uint8"
                },
                {
                  "internalType": "address",
                  "name": "matchingPolicy",
                  "type": "address"
                },
                {
                  "internalType": "address",
                  "name": "collection",
                  "type": "address"
                },
                {
                  "internalType": "uint256",
                  "name": "tokenId",
                  "type": "uint256"
                },
                {
                  "internalType": "uint256",
                  "name": "amount",
                  "type": "uint256"
                },
                {
                  "internalType": "address",
                  "name": "paymentToken",
                  "type": "address"
                },
                {
                  "internalType": "uint256",
                  "name": "price",
                  "type": "uint256"
                },
                {
                  "internalType": "uint256",
                  "name": "listingTime",
                  "type": "uint256"
                },
                {
                  "internalType": "uint256",
                  "name": "expirationTime",
                  "type": "uint256"
                },
                {
                  "components": [
                    {
                      "internalType": "uint16",
                      "name": "rate",
                      "type": "uint16"
                    },
                    {
                      "internalType": "address payable",
                      "name": "recipient",
                      "type": "address"
                    }
                  ],
                  "internalType": "struct Fee[]",
                  "name": "fees",
                  "type": "tuple[]"
                },
                {
                  "internalType": "uint256",
                  "name": "salt",
                  "type": "uint256"
                },
                {
                  "internalType": "bytes",
                  "name": "extraParams",
                  "type": "bytes"
                }
              ],
              "internalType": "struct Order",
              "name": "order",
              "type": "tuple"
            },
            {
              "internalType": "uint8",
              "name": "v",
              "type": "uint8"
            },
            {
              "internalType": "bytes32",
              "name": "r",
              "type": "bytes32"
            },
            {
              "internalType": "bytes32",
              "name": "s",
              "type": "bytes32"
            },
            {
              "internalType": "bytes",
              "name": "extraSignature",
              "type": "bytes"
            },
            {
              "internalType": "enum SignatureVersion",
              "name": "signatureVersion",
              "type": "uint8"
            },
            {
              "internalType": "uint256",
              "name": "blockNumber",
              "type": "uint256"
            }
          ],
          "internalType": "struct Input",
          "name": "sell",
          "type": "tuple"
        },
        {
          "components": [
            {
              "components": [
                {
                  "internalType": "address",
                  "name": "trader",
                  "type": "address"
                },
                {
                  "internalType": "enum Side",
                  "name": "side",
                  "type": "uint8"
                },
                {
                  "internalType": "address",
                  "name": "matchingPolicy",
                  "type": "address"
                },
                {
                  "internalType": "address",
                  "name": "collection",
                  "type": "address"
                },
                {
                  "internalType": "uint256",
                  "name": "tokenId",
                  "type": "uint256"
                },
                {
                  "internalType": "uint256",
                  "name": "amount",
                  "type": "uint256"
                },
                {
                  "internalType": "address",
                  "name": "paymentToken",
                  "type": "address"
                },
                {
                  "internalType": "uint256",
                  "name": "price",
                  "type": "uint256"
                },
                {
                  "internalType": "uint256",
                  "name": "listingTime",
                  "type": "uint256"
                },
                {
                  "internalType": "uint256",
                  "name": "expirationTime",
                  "type": "uint256"
                },
                {
                  "components": [
                    {
                      "internalType": "uint16",
                      "name": "rate",
                      "type": "uint16"
                    },
                    {
                      "internalType": "address payable",
                      "name": "recipient",
                      "type": "address"
                    }
                  ],
                  "internalType": "struct Fee[]",
                  "name": "fees",
                  "type": "tuple[]"
                },
                {
                  "internalType": "uint256",
                  "name": "salt",
                  "type": "uint256"
                },
                {
                  "internalType": "bytes",
                  "name": "extraParams",
                  "type": "bytes"
                }
              ],
              "internalType": "struct Order",
              "name": "order",
              "type": "tuple"
            },
            {
              "internalType": "uint8",
              "name": "v",
              "type": "uint8"
            },
            {
              "internalType": "bytes32",
              "name": "r",
              "type": "bytes32"
            },
            {
              "internalType": "bytes32",
              "name": "s",
              "type": "bytes32"
            },
            {
              "internalType": "bytes",
              "name": "extraSignature",
              "type": "bytes"
            },
            {
              "internalType": "enum SignatureVersion",
              "name": "signatureVersion",
              "type": "uint8"
            },
            {
              "internalType": "uint256",
              "name": "blockNumber",
              "type": "uint256"
            }
          ],
          "internalType": "struct Input",
          "name": "buy",
          "type": "tuple"
        }
      ],
      "name": "_execute",
      "outputs": [],
      "stateMutability": "payable",
      "type": "function"
    },
    {
      "inputs": [],
      "name": "blockRange",
      "outputs": [
        {
          "internalType": "uint256",
          "name": "",
          "type": "uint256"
        }
      ],
      "stateMutability": "view",
      "type": "function"
    },
    {
      "inputs": [
        {
          "components": [
            {
              "components": [
                {
                  "components": [
                    {
                      "internalType": "address",
                      "name": "trader",
                      "type": "address"
                    },
                    {
                      "internalType": "enum Side",
                      "name": "side",
                      "type": "uint8"
                    },
                    {
                      "internalType": "address",
                      "name": "matchingPolicy",
                      "type": "address"
                    },
                    {
                      "internalType": "address",
                      "name": "collection",
                      "type": "address"
                    },
                    {
                      "internalType": "uint256",
                      "name": "tokenId",
                      "type": "uint256"
                    },
                    {
                      "internalType": "uint256",
                      "name": "amount",
                      "type": "uint256"
                    },
                    {
                      "internalType": "address",
                      "name": "paymentToken",
                      "type": "address"
                    },
                    {
                      "internalType": "uint256",
                      "name": "price",
                      "type": "uint256"
                    },
                    {
                      "internalType": "uint256",
                      "name": "listingTime",
                      "type": "uint256"
                    },
                    {
                      "internalType": "uint256",
                      "name": "expirationTime",
                      "type": "uint256"
                    },
                    {
                      "components": [
                        {
                          "internalType": "uint16",
                          "name": "rate",
                          "type": "uint16"
                        },
                        {
                          "internalType": "address payable",
                          "name": "recipient",
                          "type": "address"
                        }
                      ],
                      "internalType": "struct Fee[]",
                      "name": "fees",
                      "type": "tuple[]"
                    },
                    {
                      "internalType": "uint256",
                      "name": "salt",
                      "type": "uint256"
                    },
                    {
                      "internalType": "bytes",
                      "name": "extraParams",
                      "type": "bytes"
                    }
                  ],
                  "internalType": "struct Order",
                  "name": "order",
                  "type": "tuple"
                },
                {
                  "internalType": "uint8",
                  "name": "v",
                  "type": "uint8"
                },
                {
                  "internalType": "bytes32",
                  "name": "r",
                  "type": "bytes32"
                },
                {
                  "internalType": "bytes32",
                  "name": "s",
                  "type": "bytes32"
                },
                {
                  "internalType": "bytes",
                  "name": "extraSignature",
                  "type": "bytes"
                },
                {
                  "internalType": "enum SignatureVersion",
                  "name": "signatureVersion",
                  "type": "uint8"
                },
                {
                  "internalType": "uint256",
                  "name": "blockNumber",
                  "type": "uint256"
                }
              ],
              "internalType": "struct Input",
              "name": "sell",
              "type": "tuple"
            },
            {
              "components": [
                {
                  "components": [
                    {
                      "internalType": "address",
                      "name": "trader",
                      "type": "address"
                    },
                    {
                      "internalType": "enum Side",
                      "name": "side",
                      "type": "uint8"
                    },
                    {
                      "internalType": "address",
                      "name": "matchingPolicy",
                      "type": "address"
                    },
                    {
                      "internalType": "address",
                      "name": "collection",
                      "type": "address"
                    },
                    {
                      "internalType": "uint256",
                      "name": "tokenId",
                      "type": "uint256"
                    },
                    {
                      "internalType": "uint256",
                      "name": "amount",
                      "type": "uint256"
                    },
                    {
                      "internalType": "address",
                      "name": "paymentToken",
                      "type": "address"
                    },
                    {
                      "internalType": "uint256",
                      "name": "price",
                      "type": "uint256"
                    },
                    {
                      "internalType": "uint256",
                      "name": "listingTime",
                      "type": "uint256"
                    },
                    {
                      "internalType": "uint256",
                      "name": "expirationTime",
                      "type": "uint256"
                    },
                    {
                      "components": [
                        {
                          "internalType": "uint16",
                          "name": "rate",
                          "type": "uint16"
                        },
                        {
                          "internalType": "address payable",
                          "name": "recipient",
                          "type": "address"
                        }
                      ],
                      "internalType": "struct Fee[]",
                      "name": "fees",
                      "type": "tuple[]"
                    },
                    {
                      "internalType": "uint256",
                      "name": "salt",
                      "type": "uint256"
                    },
                    {
                      "internalType": "bytes",
                      "name": "extraParams",
                      "type": "bytes"
                    }
                  ],
                  "internalType": "struct Order",
                  "name": "order",
                  "type": "tuple"
                },
                {
                  "internalType": "uint8",
                  "name": "v",
                  "type": "uint8"
                },
                {
                  "internalType": "bytes32",
                  "name": "r",
                  "type": "bytes32"
                },
                {
                  "internalType": "bytes32",
                  "name": "s",
                  "type": "bytes32"
                },
                {
                  "internalType": "bytes",
                  "name": "extraSignature",
                  "type": "bytes"
                },
                {
                  "internalType": "enum SignatureVersion",
                  "name": "signatureVersion",
                  "type": "uint8"
                },
                {
                  "internalType": "uint256",
                  "name": "blockNumber",
                  "type": "uint256"
                }
              ],
              "internalType": "struct Input",
              "name": "buy",
              "type": "tuple"
            }
          ],
          "internalType": "struct Execution[]",
          "name": "executions",
          "type": "tuple[]"
        }
      ],
      "name": "bulkExecute",
      "outputs": [],
      "stateMutability": "payable",
      "type": "function"
    },
    {
      "inputs": [
        {
          "components": [
            {
              "internalType": "address",
              "name": "trader",
              "type": "address"
            },
            {
              "internalType": "enum Side",
              "name": "side",
              "type": "uint8"
            },
            {
              "internalType": "address",
              "name": "matchingPolicy",
              "type": "address"
            },
            {
              "internalType": "address",
              "name": "collection",
              "type": "address"
            },
            {
              "internalType": "uint256",
              "name": "tokenId",
              "type": "uint256"
            },
            {
              "internalType": "uint256",
              "name": "amount",
              "type": "uint256"
            },
            {
              "internalType": "address",
              "name": "paymentToken",
              "type": "address"
            },
            {
              "internalType": "uint256",
              "name": "price",
              "type": "uint256"
            },
            {
              "internalType": "uint256",
              "name": "listingTime",
              "type": "uint256"
            },
            {
              "internalType": "uint256",
              "name": "expirationTime",
              "type": "uint256"
            },
            {
              "components": [
                {
                  "internalType": "uint16",
                  "name": "rate",
                  "type": "uint16"
                },
                {
                  "internalType": "address payable",
                  "name": "recipient",
                  "type": "address"
                }
              ],
              "internalType": "struct Fee[]",
              "name": "fees",
              "type": "tuple[]"
            },
            {
              "internalType": "uint256",
              "name": "salt",
              "type": "uint256"
            },
            {
              "internalType": "bytes",
              "name": "extraParams",
              "type": "bytes"
            }
          ],
          "internalType": "struct Order",
          "name": "order",
          "type": "tuple"
        }
      ],
      "name": "cancelOrder",
      "outputs": [],
      "stateMutability": "nonpayable",
      "type": "function"
    },
    {
      "inputs": [
        {
          "components": [
            {
              "internalType": "address",
              "name": "trader",
              "type": "address"
            },
            {
              "internalType": "enum Side",
              "name": "side",
              "type": "uint8"
            },
            {
              "internalType": "address",
              "name": "matchingPolicy",
              "type": "address"
            },
            {
              "internalType": "address",
              "name": "collection",
              "type": "address"
            },
            {
              "internalType": "uint256",
              "name": "tokenId",
              "type": "uint256"
            },
            {
              "internalType": "uint256",
              "name": "amount",
              "type": "uint256"
            },
            {
              "internalType": "address",
              "name": "paymentToken",
              "type": "address"
            },
            {
              "internalType": "uint256",
              "name": "price",
              "type": "uint256"
            },
            {
              "internalType": "uint256",
              "name": "listingTime",
              "type": "uint256"
            },
            {
              "internalType": "uint256",
              "name": "expirationTime",
              "type": "uint256"
            },
            {
              "components": [
                {
                  "internalType": "uint16",
                  "name": "rate",
                  "type": "uint16"
                },
                {
                  "internalType": "address payable",
                  "name": "recipient",
                  "type": "address"
                }
              ],
              "internalType": "struct Fee[]",
              "name": "fees",
              "type": "tuple[]"
            },
            {
              "internalType": "uint256",
              "name": "salt",
              "type": "uint256"
            },
            {
              "internalType": "bytes",
              "name": "extraParams",
              "type": "bytes"
            }
          ],
          "internalType": "struct Order[]",
          "name": "orders",
          "type": "tuple[]"
        }
      ],
      "name": "cancelOrders",
      "outputs": [],
      "stateMutability": "nonpayable",
      "type": "function"
    },
    {
      "inputs": [
        {
          "internalType": "bytes32",
          "name": "",
          "type": "bytes32"
        }
      ],
      "name": "cancelledOrFilled",
      "outputs": [
        {
          "internalType": "bool",
          "name": "",
          "type": "bool"
        }
      ],
      "stateMutability": "view",
      "type": "function"
    },
    {
      "inputs": [],
      "name": "close",
      "outputs": [],
      "stateMutability": "nonpayable",
      "type": "function"
    },
    {
      "inputs": [
        {
          "components": [
            {
              "components": [
                {
                  "internalType": "address",
                  "name": "trader",
                  "type": "address"
                },
                {
                  "internalType": "enum Side",
                  "name": "side",
                  "type": "uint8"
                },
                {
                  "internalType": "address",
                  "name": "matchingPolicy",
                  "type": "address"
                },
                {
                  "internalType": "address",
                  "name": "collection",
                  "type": "address"
                },
                {
                  "internalType": "uint256",
                  "name": "tokenId",
                  "type": "uint256"
                },
                {
                  "internalType": "uint256",
                  "name": "amount",
                  "type": "uint256"
                },
                {
                  "internalType": "address",
                  "name": "paymentToken",
                  "type": "address"
                },
                {
                  "internalType": "uint256",
                  "name": "price",
                  "type": "uint256"
                },
                {
                  "internalType": "uint256",
                  "name": "listingTime",
                  "type": "uint256"
                },
                {
                  "internalType": "uint256",
                  "name": "expirationTime",
                  "type": "uint256"
                },
                {
                  "components": [
                    {
                      "internalType": "uint16",
                      "name": "rate",
                      "type": "uint16"
                    },
                    {
                      "internalType": "address payable",
                      "name": "recipient",
                      "type": "address"
                    }
                  ],
                  "internalType": "struct Fee[]",
                  "name": "fees",
                  "type": "tuple[]"
                },
                {
                  "internalType": "uint256",
                  "name": "salt",
                  "type": "uint256"
                },
                {
                  "internalType": "bytes",
                  "name": "extraParams",
                  "type": "bytes"
                }
              ],
              "internalType": "struct Order",
              "name": "order",
              "type": "tuple"
            },
            {
              "internalType": "uint8",
              "name": "v",
              "type": "uint8"
            },
            {
              "internalType": "bytes32",
              "name": "r",
              "type": "bytes32"
            },
            {
              "internalType": "bytes32",
              "name": "s",
              "type": "bytes32"
            },
            {
              "internalType": "bytes",
              "name": "extraSignature",
              "type": "bytes"
            },
            {
              "internalType": "enum SignatureVersion",
              "name": "signatureVersion",
              "type": "uint8"
            },
            {
              "internalType": "uint256",
              "name": "blockNumber",
              "type": "uint256"
            }
          ],
          "internalType": "struct Input",
          "name": "sell",
          "type": "tuple"
        },
        {
          "components": [
            {
              "components": [
                {
                  "internalType": "address",
                  "name": "trader",
                  "type": "address"
                },
                {
                  "internalType": "enum Side",
                  "name": "side",
                  "type": "uint8"
                },
                {
                  "internalType": "address",
                  "name": "matchingPolicy",
                  "type": "address"
                },
                {
                  "internalType": "address",
                  "name": "collection",
                  "type": "address"
                },
                {
                  "internalType": "uint256",
                  "name": "tokenId",
                  "type": "uint256"
                },
                {
                  "internalType": "uint256",
                  "name": "amount",
                  "type": "uint256"
                },
                {
                  "internalType": "address",
                  "name": "paymentToken",
                  "type": "address"
                },
                {
                  "internalType": "uint256",
                  "name": "price",
                  "type": "uint256"
                },
                {
                  "internalType": "uint256",
                  "name": "listingTime",
                  "type": "uint256"
                },
                {
                  "internalType": "uint256",
                  "name": "expirationTime",
                  "type": "uint256"
                },
                {
                  "components": [
                    {
                      "internalType": "uint16",
                      "name": "rate",
                      "type": "uint16"
                    },
                    {
                      "internalType": "address payable",
                      "name": "recipient",
                      "type": "address"
                    }
                  ],
                  "internalType": "struct Fee[]",
                  "name": "fees",
                  "type": "tuple[]"
                },
                {
                  "internalType": "uint256",
                  "name": "salt",
                  "type": "uint256"
                },
                {
                  "internalType": "bytes",
                  "name": "extraParams",
                  "type": "bytes"
                }
              ],
              "internalType": "struct Order",
              "name": "order",
              "type": "tuple"
            },
            {
              "internalType": "uint8",
              "name": "v",
              "type": "uint8"
            },
            {
              "internalType": "bytes32",
              "name": "r",
              "type": "bytes32"
            },
            {
              "internalType": "bytes32",
              "name": "s",
              "type": "bytes32"
            },
            {
              "internalType": "bytes",
              "name": "extraSignature",
              "type": "bytes"
            },
            {
              "internalType": "enum SignatureVersion",
              "name": "signatureVersion",
              "type": "uint8"
            },
            {
              "internalType": "uint256",
              "name": "blockNumber",
              "type": "uint256"
            }
          ],
          "internalType": "struct Input",
          "name": "buy",
          "type": "tuple"
        }
      ],
      "name": "execute",
      "outputs": [],
      "stateMutability": "payable",
      "type": "function"
    },
    {
      "inputs": [],
      "name": "executionDelegate",
      "outputs": [
        {
          "internalType": "contract IExecutionDelegate",
          "name": "",
          "type": "address"
        }
      ],
      "stateMutability": "view",
      "type": "function"
    },
    {
      "inputs": [],
      "name": "incrementNonce",
      "outputs": [],
      "stateMutability": "nonpayable",
      "type": "function"
    },
    {
      "inputs": [
        {
          "internalType": "contract IExecutionDelegate",
          "name": "_executionDelegate",
          "type": "address"
        },
        {
          "internalType": "contract IPolicyManager",
          "name": "_policyManager",
          "type": "address"
        },
        {
          "internalType": "address",
          "name": "_oracle",
          "type": "address"
        },
        {
          "internalType": "uint256",
          "name": "_blockRange",
          "type": "uint256"
        }
      ],
      "name": "initialize",
      "outputs": [],
      "stateMutability": "nonpayable",
      "type": "function"
    },
    {
      "inputs": [],
      "name": "isInternal",
      "outputs": [
        {
          "internalType": "bool",
          "name": "",
          "type": "bool"
        }
      ],
      "stateMutability": "view",
      "type": "function"
    },
    {
      "inputs": [],
      "name": "isOpen",
      "outputs": [
        {
          "internalType": "uint256",
          "name": "",
          "type": "uint256"
        }
      ],
      "stateMutability": "view",
      "type": "function"
    },
    {
      "inputs": [
        {
          "internalType": "address",
          "name": "",
          "type": "address"
        }
      ],
      "name": "nonces",
      "outputs": [
        {
          "internalType": "uint256",
          "name": "",
          "type": "uint256"
        }
      ],
      "stateMutability": "view",
      "type": "function"
    },
    {
      "inputs": [],
      "name": "open",
      "outputs": [],
      "stateMutability": "nonpayable",
      "type": "function"
    },
    {
      "inputs": [],
      "name": "oracle",
      "outputs": [
        {
          "internalType": "address",
          "name": "",
          "type": "address"
        }
      ],
      "stateMutability": "view",
      "type": "function"
    },
    {
      "inputs": [],
      "name": "owner",
      "outputs": [
        {
          "internalType": "address",
          "name": "",
          "type": "address"
        }
      ],
      "stateMutability": "view",
      "type": "function"
    },
    {
      "inputs": [],
      "name": "policyManager",
      "outputs": [
        {
          "internalType": "contract IPolicyManager",
          "name": "",
          "type": "address"
        }
      ],
      "stateMutability": "view",
      "type": "function"
    },
    {
      "inputs": [],
      "name": "proxiableUUID",
      "outputs": [
        {
          "internalType": "bytes32",
          "name": "",
          "type": "bytes32"
        }
      ],
      "stateMutability": "view",
      "type": "function"
    },
    {
      "inputs": [],
      "name": "remainingETH",
      "outputs": [
        {
          "internalType": "uint256",
          "name": "",
          "type": "uint256"
        }
      ],
      "stateMutability": "view",
      "type": "function"
    },
    {
      "inputs": [],
      "name": "renounceOwnership",
      "outputs": [],
      "stateMutability": "nonpayable",
      "type": "function"
    },
    {
      "inputs": [
        {
          "internalType": "uint256",
          "name": "_blockRange",
          "type": "uint256"
        }
      ],
      "name": "setBlockRange",
      "outputs": [],
      "stateMutability": "nonpayable",
      "type": "function"
    },
    {
      "inputs": [
        {
          "internalType": "contract IExecutionDelegate",
          "name": "_executionDelegate",
          "type": "address"
        }
      ],
      "name": "setExecutionDelegate",
      "outputs": [],
      "stateMutability": "nonpayable",
      "type": "function"
    },
    {
      "inputs": [
        {
          "internalType": "address",
          "name": "_oracle",
          "type": "address"
        }
      ],
      "name": "setOracle",
      "outputs": [],
      "stateMutability": "nonpayable",
      "type": "function"
    },
    {
      "inputs": [
        {
          "internalType": "contract IPolicyManager",
          "name": "_policyManager",
          "type": "address"
        }
      ],
      "name": "setPolicyManager",
      "outputs": [],
      "stateMutability": "nonpayable",
      "type": "function"
    },
    {
      "inputs": [
        {
          "internalType": "address",
          "name": "newOwner",
          "type": "address"
        }
      ],
      "name": "transferOwnership",
      "outputs": [],
      "stateMutability": "nonpayable",
      "type": "function"
    },
    {
      "inputs": [],
      "name": "updateDomainSeparator",
      "outputs": [],
      "stateMutability": "nonpayable",
      "type": "function"
    },
    {
      "inputs": [
        {
          "internalType": "address",
          "name": "newImplementation",
          "type": "address"
        }
      ],
      "name": "upgradeTo",
      "outputs": [],
      "stateMutability": "nonpayable",
      "type": "function"
    },
    {
      "inputs": [
        {
          "internalType": "address",
          "name": "newImplementation",
          "type": "address"
        },
        {
          "internalType": "bytes",
          "name": "data",
          "type": "bytes"
        }
      ],
      "name": "upgradeToAndCall",
      "outputs": [],
      "stateMutability": "payable",
      "type": "function"
    }
  ],
  "bytecode": "0x60a06040526000805460ff1990811682553060805261012f80549091169055610130553480156200002f57600080fd5b506200003a62000040565b62000102565b605f54610100900460ff1615620000ad5760405162461bcd60e51b815260206004820152602760248201527f496e697469616c697a61626c653a20636f6e747261637420697320696e697469604482015266616c697a696e6760c81b606482015260840160405180910390fd5b605f5460ff90811610156200010057605f805460ff191660ff9081179091556040519081527f7f26b83ff96e1f2b6a682f133852f6798a09c465da95921460cefb38474024989060200160405180910390a15b565b608051613d486200013a6000396000818161084f015281816108d401528181610a0301528181610a880152610b720152613d486000f3fe6080604052600436106102855760003560e01c806389ccfe8911610153578063adde41e1116100cb578063f2fde38b1161007f578063f973a20911610064578063f973a2091461071f578063fcfff16f14610753578063ffa1ad741461076857600080fd5b8063f2fde38b146106df578063f4acd740146106ff57600080fd5b8063cae6047f116100b0578063cae6047f14610696578063cf756fdf146106ac578063e04d94ae146106cc57600080fd5b8063adde41e114610663578063b3be57f81461068357600080fd5b8063a3f4df7e11610122578063ab3dbf3b11610107578063ab3dbf3b146105fa578063ab7e8cba1461061b578063ad5c46481461063b57600080fd5b8063a3f4df7e146105a2578063a4b2c674146105e357600080fd5b806389ccfe891461053b5780638da5cb5b14610550578063986c9b201461056e5780639a1fc3a71461058f57600080fd5b80634f1ef28611610201578063715018a6116101b55780637adbf9731161019a5780637adbf973146104cc5780637dc0d1d0146104ec5780637ecebe001461050d57600080fd5b8063715018a6146104775780637535d2461461048c57600080fd5b80635511f319116101e65780635511f31914610411578063627cdcb9146104425780636992aa361461045757600080fd5b80634f1ef286146103e957806352d1902d146103fc57600080fd5b806331e6d0fe1161025857806343d726d61161023d57806343d726d61461038957806347535d7b1461039e5780634832ede1146103b557600080fd5b806331e6d0fe146103355780633659cfe61461036957600080fd5b8063037c9be21461028a57806316e29d71146102ac5780631d97c9bb146102dc5780632c7acf8c1461031e575b600080fd5b34801561029657600080fd5b506102aa6102a5366004613228565b610797565b005b3480156102b857600080fd5b5061012f546102c79060ff1681565b60405190151581526020015b60405180910390f35b3480156102e857600080fd5b506103107fd71080023d2f293ed0723dc287d6b2d4e7d27d0b6c12928e300721b7c78c748581565b6040519081526020016102d3565b34801561032a57600080fd5b506103106101305481565b34801561034157600080fd5b506103107f5bcf4b2eaff7fcdeb49f0bda53026b9ebdd93db566fe4c447125cb899e598c9081565b34801561037557600080fd5b506102aa610384366004613228565b610845565b34801561039557600080fd5b506102aa6109c0565b3480156103aa57600080fd5b506103106101285481565b3480156103c157600080fd5b506103107f05b43f730f67de334a342883f867101fc7ef3361dfdff4a29a7aa97e0920ef7a81565b6102aa6103f736600461329c565b6109f9565b34801561040857600080fd5b50610310610b65565b34801561041d57600080fd5b506102c761042c366004613344565b61012d6020526000908152604090205460ff1681565b34801561044e57600080fd5b506102aa610c2a565b34801561046357600080fd5b506102aa610472366004613344565b610c97565b34801561048357600080fd5b506102aa610cdb565b34801561049857600080fd5b506104b473f66cfdf074d2ffd6a4037be3a669ed04380aef2b81565b6040516001600160a01b0390911681526020016102d3565b3480156104d857600080fd5b506102aa6104e7366004613228565b610cef565b3480156104f857600080fd5b5061012b546104b4906001600160a01b031681565b34801561051957600080fd5b50610310610528366004613228565b61012e6020526000908152604090205481565b34801561054757600080fd5b506102aa610d98565b34801561055c57600080fd5b506092546001600160a01b03166104b4565b34801561057a57600080fd5b50610129546104b4906001600160a01b031681565b6102aa61059d366004613375565b610df8565b3480156105ae57600080fd5b506105d66040518060400160405280600881526020016745786368616e676560c01b81525081565b6040516102d39190613429565b3480156105ef57600080fd5b5061031061012c5481565b34801561060657600080fd5b5061012a546104b4906001600160a01b031681565b34801561062757600080fd5b506102aa610636366004613488565b610e6e565b34801561064757600080fd5b506104b473c02aaa39b223fe8d0a0e5c4f27ead9083c756cc281565b34801561066f57600080fd5b506102aa61067e366004613228565b610ebd565b6102aa610691366004613488565b610f66565b3480156106a257600080fd5b5061031061271081565b3480156106b857600080fd5b506102aa6106c73660046134ca565b6110c7565b6102aa6106da366004613375565b611295565b3480156106eb57600080fd5b506102aa6106fa366004613228565b6117b9565b34801561070b57600080fd5b506102aa61071a36600461351b565b611846565b34801561072b57600080fd5b506103107f376bfbc394a7ba7fdf10f224572cef371358e3053e362f4554fcd2ad56329b3f81565b34801561075f57600080fd5b506102aa61194c565b34801561077457600080fd5b506105d6604051806040016040528060038152602001620312e360ec1b81525081565b61079f611985565b6001600160a01b0381166107fa5760405162461bcd60e51b815260206004820152601660248201527f416464726573732063616e6e6f74206265207a65726f0000000000000000000060448201526064015b60405180910390fd5b61012980546001600160a01b0319166001600160a01b0383169081179091556040517ff9a0f356a7ef079355de09d32ce45cc3cfabc8f118681c19a17501f005a376ac90600090a250565b6001600160a01b037f00000000000000000000000000000000000000000000000000000000000000001630036108d25760405162461bcd60e51b815260206004820152602c60248201527f46756e6374696f6e206d7573742062652063616c6c6564207468726f7567682060448201526b19195b1959d85d1958d85b1b60a21b60648201526084016107f1565b7f00000000000000000000000000000000000000000000000000000000000000006001600160a01b031661092d7f360894a13ba1a3210667c828492db98dca3e2076cc3735a920a3ca505d382bbc546001600160a01b031690565b6001600160a01b0316146109985760405162461bcd60e51b815260206004820152602c60248201527f46756e6374696f6e206d7573742062652063616c6c6564207468726f7567682060448201526b6163746976652070726f787960a01b60648201526084016107f1565b6109a1816119df565b604080516000808252602082019092526109bd918391906119e7565b50565b6109c8611985565b60006101288190556040517f1cdde67b72a90f19919ac732a437ac2f7a10fc128d28c2a6e525d89ce5cd9d3a9190a1565b6001600160a01b037f0000000000000000000000000000000000000000000000000000000000000000163003610a865760405162461bcd60e51b815260206004820152602c60248201527f46756e6374696f6e206d7573742062652063616c6c6564207468726f7567682060448201526b19195b1959d85d1958d85b1b60a21b60648201526084016107f1565b7f00000000000000000000000000000000000000000000000000000000000000006001600160a01b0316610ae17f360894a13ba1a3210667c828492db98dca3e2076cc3735a920a3ca505d382bbc546001600160a01b031690565b6001600160a01b031614610b4c5760405162461bcd60e51b815260206004820152602c60248201527f46756e6374696f6e206d7573742062652063616c6c6564207468726f7567682060448201526b6163746976652070726f787960a01b60648201526084016107f1565b610b55826119df565b610b61828260016119e7565b5050565b6000306001600160a01b037f00000000000000000000000000000000000000000000000000000000000000001614610c055760405162461bcd60e51b815260206004820152603860248201527f555550535570677261646561626c653a206d757374206e6f742062652063616c60448201527f6c6564207468726f7567682064656c656761746563616c6c000000000000000060648201526084016107f1565b507f360894a13ba1a3210667c828492db98dca3e2076cc3735a920a3ca505d382bbc90565b33600090815261012e60205260408120805460019290610c4b90849061356d565b909155505033600081815261012e60209081526040918290205491519182527fa82a649bbd060c9099cd7b7326e2b0dc9e9af0836480e0f849dc9eaa79710b3b910160405180910390a2565b610c9f611985565b61012c8190556040518181527f7706177c541ba1b858371bfc568aa77450b4713bbdbba62c730d4484ab6c12519060200160405180910390a150565b610ce3611985565b610ced6000611b87565b565b610cf7611985565b6001600160a01b038116610d4d5760405162461bcd60e51b815260206004820152601660248201527f416464726573732063616e6e6f74206265207a65726f0000000000000000000060448201526064016107f1565b61012b80546001600160a01b0319166001600160a01b0383169081179091556040517fb3eacd0e351fafdfefdec84e1cd19679b38dbcd63ea7c2c24da17fd2bc3b3c0e90600090a250565b6040805160c0810182526008608082019081526745786368616e676560c01b60a083015281528151808301835260038152620312e360ec1b6020828101919091528201524691810191909152306060820152610df390611bd9565b603255565b61012854600114610e345760405162461bcd60e51b815260206004820152600660248201526510db1bdcd95960d21b60448201526064016107f1565b346101305561012f805460ff19166001179055610e518282611295565b610e59611c76565b505060006101305561012f805460ff19169055565b60005b60ff8116821115610eb857610ea683838360ff16818110610e9457610e94613580565b905060200281019061071a9190613596565b80610eb0816135b7565b915050610e71565b505050565b610ec5611985565b6001600160a01b038116610f1b5760405162461bcd60e51b815260206004820152601660248201527f416464726573732063616e6e6f74206265207a65726f0000000000000000000060448201526064016107f1565b61012a80546001600160a01b0319166001600160a01b0383169081179091556040517fdbe18f3fd927cc2aefe380ffd2abfdb8e13f0239c0258ccfc84c3d8fdd8c041890600090a250565b61012854600114610fa25760405162461bcd60e51b815260206004820152600660248201526510db1bdcd95960d21b60448201526064016107f1565b346101305561012f805460ff191660011790558060005b818160ff1610156110a85761013054604051600091906020840287013587018360018087018814908114610ffd57600187016020028a01358a018390039150611003565b82360391505b50637026ca5760e11b8352808284600401376000806004830185305af494505050506110696040518060400160405280601d81526020017f232564207478207769746820726573756c7420737461727420455448200000008152508460ff168484611c8e565b611093604051806060016040528060218152602001613cf4602191398460ff168461013054611c8e565b505080806110a0906135b7565b915050610fb9565b506110b1611c76565b50506000610130555061012f805460ff19169055565b605f54610100900460ff16158080156110e75750605f54600160ff909116105b806111015750303b1580156111015750605f5460ff166001145b6111735760405162461bcd60e51b815260206004820152602e60248201527f496e697469616c697a61626c653a20636f6e747261637420697320616c72656160448201527f647920696e697469616c697a656400000000000000000000000000000000000060648201526084016107f1565b605f805460ff19166001179055801561119657605f805461ff0019166101001790555b61119e611cf2565b6001610128556040805160c0810182526008608082019081526745786368616e676560c01b60a083015281528151808301835260038152620312e360ec1b60208281019190915282015246918101919091523060608201526111ff90611bd9565b60325561012980546001600160a01b038088166001600160a01b03199283161790925561012a805487841690831617905561012b80549286169290911691909117905561012c829055801561128e57605f805461ff0019169055604051600181527f7f26b83ff96e1f2b6a682f133852f6798a09c465da95921460cefb38474024989060200160405180910390a15b5050505050565b60005460ff16156112e85760405162461bcd60e51b815260206004820152601360248201527f5265656e7472616e63792064657465637465640000000000000000000000000060448201526064016107f1565b6000805460ff1916600117905561012f5460ff1661136e5760405162461bcd60e51b815260206004820152602b60248201527f546869732066756e6374696f6e2073686f756c64206e6f742062652063616c6c60448201527f6564206469726563746c7900000000000000000000000000000000000000000060648201526084016107f1565b600161137a8380613596565b61138b906040810190602001613604565b600181111561139c5761139c6135d6565b146113a657600080fd5b60006113f86113b58480613596565b61012e60006113c48780613596565b6113d2906020810190613228565b6001600160a01b03166001600160a01b0316815260200190815260200160002054611d65565b905060006114096113b58480613596565b90506114158483611ea6565b6114615760405162461bcd60e51b815260206004820152601960248201527f53656c6c206661696c656420617574686f72697a6174696f6e0000000000000060448201526064016107f1565b61146b8382611ea6565b6114b75760405162461bcd60e51b815260206004820152601860248201527f427579206661696c656420617574686f72697a6174696f6e000000000000000060448201526064016107f1565b6114ca6114c48580613596565b83612061565b6115165760405162461bcd60e51b815260206004820152601b60248201527f53656c6c2068617320696e76616c696420706172616d6574657273000000000060448201526064016107f1565b6115296115238480613596565b82612061565b6115755760405162461bcd60e51b815260206004820152601a60248201527f4275792068617320696e76616c696420706172616d657465727300000000000060448201526064016107f1565b60008080806115966115878980613596565b6115918980613596565b6120bf565b60008a815261012d60205260408082208054600160ff1991821681179092558c845291909220805490911690911790559296509094509250905061163d6115dd8980613596565b6115eb906020810190613228565b6115f58980613596565b611603906020810190613228565b61160d8b80613596565b61161e9060e081019060c001613228565b6116288c80613596565b61163790610140810190613621565b89612425565b61169361164a8980613596565b61165b906080810190606001613228565b6116658a80613596565b611673906020810190613228565b61167d8a80613596565b61168b906020810190613228565b868686612498565b61169d8780613596565b61010001356116ac8980613596565b6101000135116116d3576116c08780613596565b6116ce906020810190613228565b6116eb565b6116dd8880613596565b6116eb906020810190613228565b6001600160a01b03166116fe8880613596565b610100013561170d8a80613596565b61010001351115611735576117228880613596565b611730906020810190613228565b61174d565b61173f8980613596565b61174d906020810190613228565b6001600160a01b03167f61cbb2a3dee0b6064c2e681aadd61677fb4ef319f0b547508d495626f5a62f646117818b80613596565b8961178c8c80613596565b8a60405161179d94939291906138d1565b60405180910390a350506000805460ff19169055505050505050565b6117c1611985565b6001600160a01b03811661183d5760405162461bcd60e51b815260206004820152602660248201527f4f776e61626c653a206e6577206f776e657220697320746865207a65726f206160448201527f646472657373000000000000000000000000000000000000000000000000000060648201526084016107f1565b6109bd81611b87565b6118536020820182613228565b6001600160a01b0316336001600160a01b03161461187057600080fd5b60006118878261012e836113d26020840184613228565b600081815261012d602052604090205490915060ff16156118f45760405162461bcd60e51b815260206004820152602160248201527f4f7264657220616c72656164792063616e63656c6c6564206f722066696c6c656044820152601960fa1b60648201526084016107f1565b600081815261012d602052604090819020805460ff19166001179055517f5152abf959f6564662358c2e52b702259b78bac5ee7842a0f01937e670efcc7d906119409083815260200190565b60405180910390a15050565b611954611985565b6001610128556040517fd1dcd00534373f20882b79e6ab6875a5c358c5bd576448757ed50e63069ab51890600090a1565b6092546001600160a01b03163314610ced5760405162461bcd60e51b815260206004820181905260248201527f4f776e61626c653a2063616c6c6572206973206e6f7420746865206f776e657260448201526064016107f1565b6109bd611985565b7f4910fdfa16fed3260ed0e7147f7cc6da11a60208b5b9406d12a635614ffd91435460ff1615611a1a57610eb8836125cd565b826001600160a01b03166352d1902d6040518163ffffffff1660e01b8152600401602060405180830381865afa925050508015611a74575060408051601f3d908101601f19168201909252611a719181019061390e565b60015b611ae65760405162461bcd60e51b815260206004820152602e60248201527f45524331393637557067726164653a206e657720696d706c656d656e7461746960448201527f6f6e206973206e6f74205555505300000000000000000000000000000000000060648201526084016107f1565b7f360894a13ba1a3210667c828492db98dca3e2076cc3735a920a3ca505d382bbc8114611b7b5760405162461bcd60e51b815260206004820152602960248201527f45524331393637557067726164653a20756e737570706f727465642070726f7860448201527f6961626c6555554944000000000000000000000000000000000000000000000060648201526084016107f1565b50610eb883838361268b565b609280546001600160a01b038381166001600160a01b0319831681179093556040519116919082907f8be0079c531659141344cd1fd0a4f28419497f9722a3daafe3b4186f6b6457e090600090a35050565b60007f8b73c3c69bb8fe3d512ecc4cf759cc79239f7b179b0ffacaa9a75d522b39400f82600001518051906020012083602001518051906020012084604001518560600151604051602001611c599594939291909485526020850193909352604084019190915260608301526001600160a01b0316608082015260a00190565b604051602081830303815290604052805190602001209050919050565b6101305480156109bd5760008060008047335af15050565b611cec84848484604051602401611ca89493929190613927565b60408051601f198184030181529190526020810180517bffffffffffffffffffffffffffffffffffffffffffffffffffffffff1663550e6ef560e01b1790526126b0565b50505050565b605f54610100900460ff16611d5d5760405162461bcd60e51b815260206004820152602b60248201527f496e697469616c697a61626c653a20636f6e7472616374206973206e6f74206960448201526a6e697469616c697a696e6760a81b60648201526084016107f1565b610ced6126d1565b60007f376bfbc394a7ba7fdf10f224572cef371358e3053e362f4554fcd2ad56329b3f611d956020850185613228565b611da56040860160208701613604565b611db56060870160408801613228565b611dc56080880160608901613228565b608088013560a0890135611ddf60e08b0160c08c01613228565b8a60e001358b61010001358c6101200135611e098e806101400190611e049190613621565b612745565b8e61016001358f806101800190611e209190613956565b604051611e2e92919061399d565b604051908190038120611e509e9d9c9b9a9998979695949392916020016139ad565b60408051601f1981840301815282825260208301859052910160408051601f1981840301815290829052611e879291602001613a4d565b6040516020818303038152906040528051906020012090505b92915050565b600033611eb38480613596565b611ec1906020810190613228565b6001600160a01b031603611ed757506001611ea0565b611f2f82611ee58580613596565b611ef3906020810190613228565b611f036040870160208801613a7c565b60408701356060880135611f1d60c08a0160a08b01613604565b611f2a60808b018b613956565b612818565b611f3b57506000611ea0565b6000611f478480613596565b611f5690610180810190613956565b9050118015611fbd5750611f6a8380613596565b611f7990610180810190613956565b6000818110611f8a57611f8a613580565b9050013560f81c60f81b7effffffffffffffffffffffffffffffffffffffffffffffffffffffffffffff1916600160f81b145b156120585761012c54611fd460c085013543613a9f565b106120215760405162461bcd60e51b815260206004820181905260248201527f5369676e656420626c6f636b206e756d626572206f7574206f662072616e676560448201526064016107f1565b61204c8261203560c0860160a08701613604565b6120426080870187613956565b8760c00135612913565b61205857506000611ea0565b50600192915050565b6000806120716020850185613228565b6001600160a01b0316141580156120985750600082815261012d602052604090205460ff16155b80156120a8575042836101000135105b80156120b8575082610120013542105b9392505050565b6000806000806000856101000135876101000135116122555761012a546001600160a01b031663874516cd6120fa60608a0160408b01613228565b6040517fffffffff0000000000000000000000000000000000000000000000000000000060e084901b1681526001600160a01b039091166004820152602401602060405180830381865afa158015612156573d6000803e3d6000fd5b505050506040513d601f19601f8201168201806040525081019061217a9190613ac2565b6121c65760405162461bcd60e51b815260206004820152601960248201527f506f6c696379206973206e6f742077686974656c69737465640000000000000060448201526064016107f1565b6121d66060880160408901613228565b6001600160a01b031663d5ec8c7788886040518363ffffffff1660e01b8152600401612203929190613add565b60a060405180830381865afa158015612220573d6000803e3d6000fd5b505050506040513d601f19601f820116820180604052508101906122449190613b02565b9298509096509450925090506123ce565b61012a546001600160a01b031663874516cd6122776060890160408a01613228565b6040517fffffffff0000000000000000000000000000000000000000000000000000000060e084901b1681526001600160a01b039091166004820152602401602060405180830381865afa1580156122d3573d6000803e3d6000fd5b505050506040513d601f19601f820116820180604052508101906122f79190613ac2565b6123435760405162461bcd60e51b815260206004820152601960248201527f506f6c696379206973206e6f742077686974656c69737465640000000000000060448201526064016107f1565b6123536060870160408801613228565b6001600160a01b0316630813a76687896040518363ffffffff1660e01b8152600401612380929190613add565b60a060405180830381865afa15801561239d573d6000803e3d6000fd5b505050506040513d601f19601f820116820180604052508101906123c19190613b02565b9298509096509450925090505b8061241b5760405162461bcd60e51b815260206004820152601860248201527f4f72646572732063616e6e6f74206265206d617463686564000000000000000060448201526064016107f1565b5092959194509250565b336001600160a01b03861614801561244457506001600160a01b038416155b15612472578061013054101561245957600080fd5b80610130600082825461246c9190613a9f565b90915550505b600061248184848789866129a9565b905061248f85878984612aea565b50505050505050565b60008160018111156124ac576124ac6135d6565b0361252d5761012954604051633c4fc9fb60e11b81526001600160a01b03888116600483015287811660248301528681166044830152606482018690529091169063789f93f690608401600060405180830381600087803b15801561251057600080fd5b505af1158015612524573d6000803e3d6000fd5b505050506125c5565b6001816001811115612541576125416135d6565b036125c55761012954604051633a54a01760e11b81526001600160a01b038881166004830152878116602483015286811660448301526064820186905260848201859052909116906374a9402e9060a401600060405180830381600087803b1580156125ac57600080fd5b505af11580156125c0573d6000803e3d6000fd5b505050505b505050505050565b6001600160a01b0381163b61264a5760405162461bcd60e51b815260206004820152602d60248201527f455243313936373a206e657720696d706c656d656e746174696f6e206973206e60448201527f6f74206120636f6e74726163740000000000000000000000000000000000000060648201526084016107f1565b7f360894a13ba1a3210667c828492db98dca3e2076cc3735a920a3ca505d382bbc80546001600160a01b0319166001600160a01b0392909216919091179055565b61269483612e12565b6000825111806126a15750805b15610eb857611cec8383612e52565b80516a636f6e736f6c652e6c6f67602083016000808483855afa5050505050565b605f54610100900460ff1661273c5760405162461bcd60e51b815260206004820152602b60248201527f496e697469616c697a61626c653a20636f6e7472616374206973206e6f74206960448201526a6e697469616c697a696e6760a81b60648201526084016107f1565b610ced33611b87565b6000808267ffffffffffffffff81111561276157612761613255565b60405190808252806020026020018201604052801561278a578160200160208202803683370190505b50905060005b838110156127e7576127b88585838181106127ad576127ad613580565b905060400201612f54565b8282815181106127ca576127ca613580565b6020908102919091010152806127df81613b56565b915050612790565b50806040516020016127f99190613b6f565b6040516020818303038152906040528051906020012091505092915050565b6000808085600181111561282e5761282e6135d6565b036128435761283c8a612fc4565b90506128f8565b6001856001811115612857576128576135d6565b036128f857600061286a84860186613ba5565b9050600073__$82635e7900a17ae2732d334128a764b403$__639c7bf9388d846040518363ffffffff1660e01b81526004016128a7929190613c3f565b602060405180830381865af41580156128c4573d6000803e3d6000fd5b505050506040513d601f19601f820116820180604052508101906128e8919061390e565b90506128f381612fef565b925050505b61290589828a8a8a613066565b9a9950505050505050505050565b6000806129208784613157565b90506000808080896001811115612939576129396135d6565b03612953575050853590506020860135604087013561297f565b6001896001811115612967576129676135d6565b0361297f575050506020850135604086013560608701355b61012b54612999906001600160a01b031685858585613066565b9450505050505b95945050505050565b600080805b60ff8116871115612a5b57600061271089898460ff168181106129d3576129d3613580565b6129e99260206040909202019081019150613c8d565b6129f79061ffff1687613ca8565b612a019190613cbf565b9050612a3b87878b8b8660ff16818110612a1d57612a1d613580565b9050604002016020016020810190612a359190613228565b84612aea565b612a45818461356d565b9250508080612a53906135b7565b9150506129ae565b5082811115612ad25760405162461bcd60e51b815260206004820152602c60248201527f546f74616c20616d6f756e74206f66206665657320617265206d6f726520746860448201527f616e20746865207072696365000000000000000000000000000000000000000060648201526084016107f1565b6000612ade8285613a9f565b98975050505050505050565b8015611cec576001600160a01b038416612bfd576001600160a01b038216612b545760405162461bcd60e51b815260206004820152601860248201527f5472616e7366657220746f207a65726f2061646472657373000000000000000060448201526064016107f1565b6000826001600160a01b03168260405160006040518083038185875af1925050503d8060008114612ba1576040519150601f19603f3d011682016040523d82523d6000602084013e612ba6565b606091505b5050905080612bf75760405162461bcd60e51b815260206004820152601360248201527f455448207472616e73666572206661696c65640000000000000000000000000060448201526064016107f1565b50611cec565b7fffffffffffffffffffffffff0993020f8b2d00295bfc841c599612fbc7f510d56001600160a01b03851601612d0c576040516323b872dd60e01b81526001600160a01b038085166004830152831660248201526044810182905260009073f66cfdf074d2ffd6a4037be3a669ed04380aef2b906323b872dd906064016020604051808303816000875af1158015612c99573d6000803e3d6000fd5b505050506040513d601f19601f82011682018060405250810190612cbd9190613ac2565b905080612bf75760405162461bcd60e51b815260206004820152601460248201527f506f6f6c207472616e73666572206661696c656400000000000000000000000060448201526064016107f1565b7fffffffffffffffffffffffff3fd555c64ddc0172f5f1a3b0d81526f7c38a933e6001600160a01b03851601612dca576101295460405163368fa33960e21b815273c02aaa39b223fe8d0a0e5c4f27ead9083c756cc260048201526001600160a01b0385811660248301528481166044830152606482018490529091169063da3e8ce490608401600060405180830381600087803b158015612dad57600080fd5b505af1158015612dc1573d6000803e3d6000fd5b50505050611cec565b60405162461bcd60e51b815260206004820152601560248201527f496e76616c6964207061796d656e7420746f6b656e000000000000000000000060448201526064016107f1565b612e1b816125cd565b6040516001600160a01b038216907fbc7cd75a20ee27fd9adebab32041f755214dbc6bffa90cc0225b39da2e5c2d3b90600090a250565b60606001600160a01b0383163b612ed15760405162461bcd60e51b815260206004820152602660248201527f416464726573733a2064656c65676174652063616c6c20746f206e6f6e2d636f60448201527f6e7472616374000000000000000000000000000000000000000000000000000060648201526084016107f1565b600080846001600160a01b031684604051612eec9190613ce1565b600060405180830381855af49150503d8060008114612f27576040519150601f19603f3d011682016040523d82523d6000602084013e612f2c565b606091505b50915091506129a08282604051806060016040528060278152602001613d15602791396131d5565b60007f05b43f730f67de334a342883f867101fc7ef3361dfdff4a29a7aa97e0920ef7a612f846020840184613c8d565b612f946040850160208601613228565b604051602001611c599392919092835261ffff9190911660208301526001600160a01b0316604082015260600190565b60325460405161190160f01b6020820152602281019190915260428101829052600090606201611c59565b603254604080517f5bcf4b2eaff7fcdeb49f0bda53026b9ebdd93db566fe4c447125cb899e598c9060208201529081018390526000919060600160405160208183030381529060405280519060200120604051602001611c5992919061190160f01b81526002810192909252602282015260420190565b60008360ff16601b148061307d57508360ff16601c145b6130c95760405162461bcd60e51b815260206004820152601360248201527f496e76616c6964207620706172616d657465720000000000000000000000000060448201526064016107f1565b6040805160008082526020820180845288905260ff871692820192909252606081018590526080810184905260019060a0016020604051602081039080840390855afa15801561311d573d6000803e3d6000fd5b5050604051601f1901519150506001600160a01b0381166131425760009150506129a0565b6001600160a01b0387811691161490506129a0565b603254604080517fd71080023d2f293ed0723dc287d6b2d4e7d27d0b6c12928e300721b7c78c74856020820152908101849052606081018390526000919060800160405160208183030381529060405280519060200120604051602001611e8792919061190160f01b81526002810192909252602282015260420190565b606083156131e45750816120b8565b6120b883838151156131f95781518083602001fd5b8060405162461bcd60e51b81526004016107f19190613429565b6001600160a01b03811681146109bd57600080fd5b60006020828403121561323a57600080fd5b81356120b881613213565b803561325081613213565b919050565b634e487b7160e01b600052604160045260246000fd5b604051601f8201601f1916810167ffffffffffffffff8111828210171561329457613294613255565b604052919050565b600080604083850312156132af57600080fd5b82356132ba81613213565b915060208381013567ffffffffffffffff808211156132d857600080fd5b818601915086601f8301126132ec57600080fd5b8135818111156132fe576132fe613255565b613310601f8201601f1916850161326b565b9150808252878482850101111561332657600080fd5b80848401858401376000848284010152508093505050509250929050565b60006020828403121561335657600080fd5b5035919050565b600060e0828403121561336f57600080fd5b50919050565b6000806040838503121561338857600080fd5b823567ffffffffffffffff808211156133a057600080fd5b6133ac8683870161335d565b935060208501359150808211156133c257600080fd5b506133cf8582860161335d565b9150509250929050565b60005b838110156133f45781810151838201526020016133dc565b50506000910152565b600081518084526134158160208601602086016133d9565b601f01601f19169290920160200192915050565b6020815260006120b860208301846133fd565b60008083601f84011261344e57600080fd5b50813567ffffffffffffffff81111561346657600080fd5b6020830191508360208260051b850101111561348157600080fd5b9250929050565b6000806020838503121561349b57600080fd5b823567ffffffffffffffff8111156134b257600080fd5b6134be8582860161343c565b90969095509350505050565b600080600080608085870312156134e057600080fd5b84356134eb81613213565b935060208501356134fb81613213565b9250604085013561350b81613213565b9396929550929360600135925050565b60006020828403121561352d57600080fd5b813567ffffffffffffffff81111561354457600080fd5b82016101a081850312156120b857600080fd5b634e487b7160e01b600052601160045260246000fd5b80820180821115611ea057611ea0613557565b634e487b7160e01b600052603260045260246000fd5b6000823561019e198336030181126135ad57600080fd5b9190910192915050565b600060ff821660ff81036135cd576135cd613557565b60010192915050565b634e487b7160e01b600052602160045260246000fd5b600281106109bd57600080fd5b8035613250816135ec565b60006020828403121561361657600080fd5b81356120b8816135ec565b6000808335601e1984360301811261363857600080fd5b83018035915067ffffffffffffffff82111561365357600080fd5b6020019150600681901b360382131561348157600080fd5b6002811061368957634e487b7160e01b600052602160045260246000fd5b9052565b6000808335601e198436030181126136a457600080fd5b830160208101925035905067ffffffffffffffff8111156136c457600080fd5b8060061b360382131561348157600080fd5b803561ffff8116811461325057600080fd5b8183526000602080850194508260005b8581101561373c5761ffff61370c836136d6565b1687528282013561371c81613213565b6001600160a01b03168784015260409687019691909101906001016136f8565b509495945050505050565b6000808335601e1984360301811261375e57600080fd5b830160208101925035905067ffffffffffffffff81111561377e57600080fd5b80360382131561348157600080fd5b81835281816020850137506000828201602090810191909152601f909101601f19169091010190565b60006101a06137d5846137c885613245565b6001600160a01b03169052565b6137e1602084016135f9565b6137ee602086018261366b565b506137fb60408401613245565b6001600160a01b0316604085015261381560608401613245565b6001600160a01b0381166060860152506080830135608085015260a083013560a085015261384560c08401613245565b6001600160a01b031660c085015260e08381013590850152610100808401359085015261012080840135908501526101406138828185018561368d565b838388015261389484880182846136e8565b93505050506101608084013581860152506101806138b481850185613747565b868403838801526138c684828461378d565b979650505050505050565b6080815260006138e460808301876137b6565b85602084015282810360408401526138fc81866137b6565b91505082606083015295945050505050565b60006020828403121561392057600080fd5b5051919050565b60808152600061393a60808301876133fd565b6020830195909552509115156040830152606090910152919050565b6000808335601e1984360301811261396d57600080fd5b83018035915067ffffffffffffffff82111561398857600080fd5b60200191503681900382131561348157600080fd5b8183823760009101908152919050565b8e81526001600160a01b038e1660208201526101c081016139d1604083018f61366b565b6001600160a01b038d1660608301526001600160a01b038c1660808301528a60a08301528960c0830152613a1060e083018a6001600160a01b03169052565b8761010083015286610120830152856101408301528461016083015283610180830152826101a08301529f9e505050505050505050505050505050565b60008351613a5f8184602088016133d9565b835190830190613a738183602088016133d9565b01949350505050565b600060208284031215613a8e57600080fd5b813560ff811681146120b857600080fd5b81810381811115611ea057611ea0613557565b8051801515811461325057600080fd5b600060208284031215613ad457600080fd5b6120b882613ab2565b604081526000613af060408301856137b6565b82810360208401526129a081856137b6565b600080600080600060a08688031215613b1a57600080fd5b613b2386613ab2565b94506020860151935060408601519250606086015191506080860151613b48816135ec565b809150509295509295909350565b600060018201613b6857613b68613557565b5060010190565b815160009082906020808601845b83811015613b9957815185529382019390820190600101613b7d565b50929695505050505050565b60006020808385031215613bb857600080fd5b823567ffffffffffffffff80821115613bd057600080fd5b818501915085601f830112613be457600080fd5b813581811115613bf657613bf6613255565b8060051b9150613c0784830161326b565b8181529183018401918481019088841115613c2157600080fd5b938501935b83851015612ade57843582529385019390850190613c26565b6000604082018483526020604081850152818551808452606086019150828701935060005b81811015613c8057845183529383019391830191600101613c64565b5090979650505050505050565b600060208284031215613c9f57600080fd5b6120b8826136d6565b8082028115828204841417611ea057611ea0613557565b600082613cdc57634e487b7160e01b600052601260045260246000fd5b500490565b600082516135ad8184602087016133d956fe232564207478207769746820726573756c742072656d61696e696e672045544820416464726573733a206c6f772d6c6576656c2064656c65676174652063616c6c206661696c6564a164736f6c6343000811000a",
  "linkReferences": {
    "contracts/lib/MerkleVerifier.sol": {
      "MerkleVerifier": [
        {
          "length": 20,
          "start": 10666
        }
      ]
    }
  },
  "deployedLinkReferences": {
    "contracts/lib/MerkleVerifier.sol": {
      "MerkleVerifier": [
        {
          "length": 20,
          "start": 10352
        }
      ]
    }
  }
}