{
  "_format": "hh-sol-artifact-1",
  "contractName": "Exchange_old",
  "sourceName": "contracts/Exchange_old.sol",
  "abi": [
    {
      "inputs": [],
      "stateMutability": "nonpayable",
      "type": "constructor"
    },
    {
      "anonymous": false,
      "inputs": [
        {
          "indexed": false,
          "internalType": "address",
          "name": "previousAdmin",
          "type": "address"
        },
        {
          "indexed": false,
          "internalType": "address",
          "name": "newAdmin",
          "type": "address"
        }
      ],
      "name": "AdminChanged",
      "type": "event"
    },
    {
      "anonymous": false,
      "inputs": [
        {
          "indexed": true,
          "internalType": "address",
          "name": "beacon",
          "type": "address"
        }
      ],
      "name": "BeaconUpgraded",
      "type": "event"
    },
    {
      "anonymous": false,
      "inputs": [],
      "name": "Closed",
      "type": "event"
    },
    {
      "anonymous": false,
      "inputs": [
        {
          "indexed": false,
          "internalType": "uint8",
          "name": "version",
          "type": "uint8"
        }
      ],
      "name": "Initialized",
      "type": "event"
    },
    {
      "anonymous": false,
      "inputs": [
        {
          "indexed": false,
          "internalType": "uint256",
          "name": "blockRange",
          "type": "uint256"
        }
      ],
      "name": "NewBlockRange",
      "type": "event"
    },
    {
      "anonymous": false,
      "inputs": [
        {
          "indexed": true,
          "internalType": "contract IExecutionDelegate",
          "name": "executionDelegate",
          "type": "address"
        }
      ],
      "name": "NewExecutionDelegate",
      "type": "event"
    },
    {
      "anonymous": false,
      "inputs": [
        {
          "indexed": true,
          "internalType": "address",
          "name": "oracle",
          "type": "address"
        }
      ],
      "name": "NewOracle",
      "type": "event"
    },
    {
      "anonymous": false,
      "inputs": [
        {
          "indexed": true,
          "internalType": "contract IPolicyManager",
          "name": "policyManager",
          "type": "address"
        }
      ],
      "name": "NewPolicyManager",
      "type": "event"
    },
    {
      "anonymous": false,
      "inputs": [
        {
          "indexed": true,
          "internalType": "address",
          "name": "trader",
          "type": "address"
        },
        {
          "indexed": false,
          "internalType": "uint256",
          "name": "newNonce",
          "type": "uint256"
        }
      ],
      "name": "NonceIncremented",
      "type": "event"
    },
    {
      "anonymous": false,
      "inputs": [],
      "name": "Opened",
      "type": "event"
    },
    {
      "anonymous": false,
      "inputs": [
        {
          "indexed": false,
          "internalType": "bytes32",
          "name": "hash",
          "type": "bytes32"
        }
      ],
      "name": "OrderCancelled",
      "type": "event"
    },
    {
      "anonymous": false,
      "inputs": [
        {
          "indexed": true,
          "internalType": "address",
          "name": "maker",
          "type": "address"
        },
        {
          "indexed": true,
          "internalType": "address",
          "name": "taker",
          "type": "address"
        },
        {
          "components": [
            {
              "internalType": "address",
              "name": "trader",
              "type": "address"
            },
            {
              "internalType": "enum Side",
              "name": "side",
              "type": "uint8"
            },
            {
              "internalType": "address",
              "name": "matchingPolicy",
              "type": "address"
            },
            {
              "internalType": "address",
              "name": "collection",
              "type": "address"
            },
            {
              "internalType": "uint256",
              "name": "tokenId",
              "type": "uint256"
            },
            {
              "internalType": "uint256",
              "name": "amount",
              "type": "uint256"
            },
            {
              "internalType": "address",
              "name": "paymentToken",
              "type": "address"
            },
            {
              "internalType": "uint256",
              "name": "price",
              "type": "uint256"
            },
            {
              "internalType": "uint256",
              "name": "listingTime",
              "type": "uint256"
            },
            {
              "internalType": "uint256",
              "name": "expirationTime",
              "type": "uint256"
            },
            {
              "components": [
                {
                  "internalType": "uint16",
                  "name": "rate",
                  "type": "uint16"
                },
                {
                  "internalType": "address payable",
                  "name": "recipient",
                  "type": "address"
                }
              ],
              "internalType": "struct Fee[]",
              "name": "fees",
              "type": "tuple[]"
            },
            {
              "internalType": "uint256",
              "name": "salt",
              "type": "uint256"
            },
            {
              "internalType": "bytes",
              "name": "extraParams",
              "type": "bytes"
            }
          ],
          "indexed": false,
          "internalType": "struct Order",
          "name": "sell",
          "type": "tuple"
        },
        {
          "indexed": false,
          "internalType": "bytes32",
          "name": "sellHash",
          "type": "bytes32"
        },
        {
          "components": [
            {
              "internalType": "address",
              "name": "trader",
              "type": "address"
            },
            {
              "internalType": "enum Side",
              "name": "side",
              "type": "uint8"
            },
            {
              "internalType": "address",
              "name": "matchingPolicy",
              "type": "address"
            },
            {
              "internalType": "address",
              "name": "collection",
              "type": "address"
            },
            {
              "internalType": "uint256",
              "name": "tokenId",
              "type": "uint256"
            },
            {
              "internalType": "uint256",
              "name": "amount",
              "type": "uint256"
            },
            {
              "internalType": "address",
              "name": "paymentToken",
              "type": "address"
            },
            {
              "internalType": "uint256",
              "name": "price",
              "type": "uint256"
            },
            {
              "internalType": "uint256",
              "name": "listingTime",
              "type": "uint256"
            },
            {
              "internalType": "uint256",
              "name": "expirationTime",
              "type": "uint256"
            },
            {
              "components": [
                {
                  "internalType": "uint16",
                  "name": "rate",
                  "type": "uint16"
                },
                {
                  "internalType": "address payable",
                  "name": "recipient",
                  "type": "address"
                }
              ],
              "internalType": "struct Fee[]",
              "name": "fees",
              "type": "tuple[]"
            },
            {
              "internalType": "uint256",
              "name": "salt",
              "type": "uint256"
            },
            {
              "internalType": "bytes",
              "name": "extraParams",
              "type": "bytes"
            }
          ],
          "indexed": false,
          "internalType": "struct Order",
          "name": "buy",
          "type": "tuple"
        },
        {
          "indexed": false,
          "internalType": "bytes32",
          "name": "buyHash",
          "type": "bytes32"
        }
      ],
      "name": "OrdersMatched",
      "type": "event"
    },
    {
      "anonymous": false,
      "inputs": [
        {
          "indexed": true,
          "internalType": "address",
          "name": "previousOwner",
          "type": "address"
        },
        {
          "indexed": true,
          "internalType": "address",
          "name": "newOwner",
          "type": "address"
        }
      ],
      "name": "OwnershipTransferred",
      "type": "event"
    },
    {
      "anonymous": false,
      "inputs": [
        {
          "indexed": true,
          "internalType": "address",
          "name": "implementation",
          "type": "address"
        }
      ],
      "name": "Upgraded",
      "type": "event"
    },
    {
      "inputs": [],
      "name": "FEE_TYPEHASH",
      "outputs": [
        {
          "internalType": "bytes32",
          "name": "",
          "type": "bytes32"
        }
      ],
      "stateMutability": "view",
      "type": "function"
    },
    {
      "inputs": [],
      "name": "INVERSE_BASIS_POINT",
      "outputs": [
        {
          "internalType": "uint256",
          "name": "",
          "type": "uint256"
        }
      ],
      "stateMutability": "view",
      "type": "function"
    },
    {
      "inputs": [],
      "name": "NAME",
      "outputs": [
        {
          "internalType": "string",
          "name": "",
          "type": "string"
        }
      ],
      "stateMutability": "view",
      "type": "function"
    },
    {
      "inputs": [],
      "name": "ORACLE_ORDER_TYPEHASH",
      "outputs": [
        {
          "internalType": "bytes32",
          "name": "",
          "type": "bytes32"
        }
      ],
      "stateMutability": "view",
      "type": "function"
    },
    {
      "inputs": [],
      "name": "ORDER_TYPEHASH",
      "outputs": [
        {
          "internalType": "bytes32",
          "name": "",
          "type": "bytes32"
        }
      ],
      "stateMutability": "view",
      "type": "function"
    },
    {
      "inputs": [],
      "name": "ROOT_TYPEHASH",
      "outputs": [
        {
          "internalType": "bytes32",
          "name": "",
          "type": "bytes32"
        }
      ],
      "stateMutability": "view",
      "type": "function"
    },
    {
      "inputs": [],
      "name": "VERSION",
      "outputs": [
        {
          "internalType": "string",
          "name": "",
          "type": "string"
        }
      ],
      "stateMutability": "view",
      "type": "function"
    },
    {
      "inputs": [],
      "name": "WETH",
      "outputs": [
        {
          "internalType": "address",
          "name": "",
          "type": "address"
        }
      ],
      "stateMutability": "view",
      "type": "function"
    },
    {
      "inputs": [],
      "name": "blockRange",
      "outputs": [
        {
          "internalType": "uint256",
          "name": "",
          "type": "uint256"
        }
      ],
      "stateMutability": "view",
      "type": "function"
    },
    {
      "inputs": [
        {
          "components": [
            {
              "internalType": "address",
              "name": "trader",
              "type": "address"
            },
            {
              "internalType": "enum Side",
              "name": "side",
              "type": "uint8"
            },
            {
              "internalType": "address",
              "name": "matchingPolicy",
              "type": "address"
            },
            {
              "internalType": "address",
              "name": "collection",
              "type": "address"
            },
            {
              "internalType": "uint256",
              "name": "tokenId",
              "type": "uint256"
            },
            {
              "internalType": "uint256",
              "name": "amount",
              "type": "uint256"
            },
            {
              "internalType": "address",
              "name": "paymentToken",
              "type": "address"
            },
            {
              "internalType": "uint256",
              "name": "price",
              "type": "uint256"
            },
            {
              "internalType": "uint256",
              "name": "listingTime",
              "type": "uint256"
            },
            {
              "internalType": "uint256",
              "name": "expirationTime",
              "type": "uint256"
            },
            {
              "components": [
                {
                  "internalType": "uint16",
                  "name": "rate",
                  "type": "uint16"
                },
                {
                  "internalType": "address payable",
                  "name": "recipient",
                  "type": "address"
                }
              ],
              "internalType": "struct Fee[]",
              "name": "fees",
              "type": "tuple[]"
            },
            {
              "internalType": "uint256",
              "name": "salt",
              "type": "uint256"
            },
            {
              "internalType": "bytes",
              "name": "extraParams",
              "type": "bytes"
            }
          ],
          "internalType": "struct Order",
          "name": "order",
          "type": "tuple"
        }
      ],
      "name": "cancelOrder",
      "outputs": [],
      "stateMutability": "nonpayable",
      "type": "function"
    },
    {
      "inputs": [
        {
          "components": [
            {
              "internalType": "address",
              "name": "trader",
              "type": "address"
            },
            {
              "internalType": "enum Side",
              "name": "side",
              "type": "uint8"
            },
            {
              "internalType": "address",
              "name": "matchingPolicy",
              "type": "address"
            },
            {
              "internalType": "address",
              "name": "collection",
              "type": "address"
            },
            {
              "internalType": "uint256",
              "name": "tokenId",
              "type": "uint256"
            },
            {
              "internalType": "uint256",
              "name": "amount",
              "type": "uint256"
            },
            {
              "internalType": "address",
              "name": "paymentToken",
              "type": "address"
            },
            {
              "internalType": "uint256",
              "name": "price",
              "type": "uint256"
            },
            {
              "internalType": "uint256",
              "name": "listingTime",
              "type": "uint256"
            },
            {
              "internalType": "uint256",
              "name": "expirationTime",
              "type": "uint256"
            },
            {
              "components": [
                {
                  "internalType": "uint16",
                  "name": "rate",
                  "type": "uint16"
                },
                {
                  "internalType": "address payable",
                  "name": "recipient",
                  "type": "address"
                }
              ],
              "internalType": "struct Fee[]",
              "name": "fees",
              "type": "tuple[]"
            },
            {
              "internalType": "uint256",
              "name": "salt",
              "type": "uint256"
            },
            {
              "internalType": "bytes",
              "name": "extraParams",
              "type": "bytes"
            }
          ],
          "internalType": "struct Order[]",
          "name": "orders",
          "type": "tuple[]"
        }
      ],
      "name": "cancelOrders",
      "outputs": [],
      "stateMutability": "nonpayable",
      "type": "function"
    },
    {
      "inputs": [
        {
          "internalType": "bytes32",
          "name": "",
          "type": "bytes32"
        }
      ],
      "name": "cancelledOrFilled",
      "outputs": [
        {
          "internalType": "bool",
          "name": "",
          "type": "bool"
        }
      ],
      "stateMutability": "view",
      "type": "function"
    },
    {
      "inputs": [],
      "name": "close",
      "outputs": [],
      "stateMutability": "nonpayable",
      "type": "function"
    },
    {
      "inputs": [
        {
          "components": [
            {
              "components": [
                {
                  "internalType": "address",
                  "name": "trader",
                  "type": "address"
                },
                {
                  "internalType": "enum Side",
                  "name": "side",
                  "type": "uint8"
                },
                {
                  "internalType": "address",
                  "name": "matchingPolicy",
                  "type": "address"
                },
                {
                  "internalType": "address",
                  "name": "collection",
                  "type": "address"
                },
                {
                  "internalType": "uint256",
                  "name": "tokenId",
                  "type": "uint256"
                },
                {
                  "internalType": "uint256",
                  "name": "amount",
                  "type": "uint256"
                },
                {
                  "internalType": "address",
                  "name": "paymentToken",
                  "type": "address"
                },
                {
                  "internalType": "uint256",
                  "name": "price",
                  "type": "uint256"
                },
                {
                  "internalType": "uint256",
                  "name": "listingTime",
                  "type": "uint256"
                },
                {
                  "internalType": "uint256",
                  "name": "expirationTime",
                  "type": "uint256"
                },
                {
                  "components": [
                    {
                      "internalType": "uint16",
                      "name": "rate",
                      "type": "uint16"
                    },
                    {
                      "internalType": "address payable",
                      "name": "recipient",
                      "type": "address"
                    }
                  ],
                  "internalType": "struct Fee[]",
                  "name": "fees",
                  "type": "tuple[]"
                },
                {
                  "internalType": "uint256",
                  "name": "salt",
                  "type": "uint256"
                },
                {
                  "internalType": "bytes",
                  "name": "extraParams",
                  "type": "bytes"
                }
              ],
              "internalType": "struct Order",
              "name": "order",
              "type": "tuple"
            },
            {
              "internalType": "uint8",
              "name": "v",
              "type": "uint8"
            },
            {
              "internalType": "bytes32",
              "name": "r",
              "type": "bytes32"
            },
            {
              "internalType": "bytes32",
              "name": "s",
              "type": "bytes32"
            },
            {
              "internalType": "bytes",
              "name": "extraSignature",
              "type": "bytes"
            },
            {
              "internalType": "enum SignatureVersion",
              "name": "signatureVersion",
              "type": "uint8"
            },
            {
              "internalType": "uint256",
              "name": "blockNumber",
              "type": "uint256"
            }
          ],
          "internalType": "struct Input",
          "name": "sell",
          "type": "tuple"
        },
        {
          "components": [
            {
              "components": [
                {
                  "internalType": "address",
                  "name": "trader",
                  "type": "address"
                },
                {
                  "internalType": "enum Side",
                  "name": "side",
                  "type": "uint8"
                },
                {
                  "internalType": "address",
                  "name": "matchingPolicy",
                  "type": "address"
                },
                {
                  "internalType": "address",
                  "name": "collection",
                  "type": "address"
                },
                {
                  "internalType": "uint256",
                  "name": "tokenId",
                  "type": "uint256"
                },
                {
                  "internalType": "uint256",
                  "name": "amount",
                  "type": "uint256"
                },
                {
                  "internalType": "address",
                  "name": "paymentToken",
                  "type": "address"
                },
                {
                  "internalType": "uint256",
                  "name": "price",
                  "type": "uint256"
                },
                {
                  "internalType": "uint256",
                  "name": "listingTime",
                  "type": "uint256"
                },
                {
                  "internalType": "uint256",
                  "name": "expirationTime",
                  "type": "uint256"
                },
                {
                  "components": [
                    {
                      "internalType": "uint16",
                      "name": "rate",
                      "type": "uint16"
                    },
                    {
                      "internalType": "address payable",
                      "name": "recipient",
                      "type": "address"
                    }
                  ],
                  "internalType": "struct Fee[]",
                  "name": "fees",
                  "type": "tuple[]"
                },
                {
                  "internalType": "uint256",
                  "name": "salt",
                  "type": "uint256"
                },
                {
                  "internalType": "bytes",
                  "name": "extraParams",
                  "type": "bytes"
                }
              ],
              "internalType": "struct Order",
              "name": "order",
              "type": "tuple"
            },
            {
              "internalType": "uint8",
              "name": "v",
              "type": "uint8"
            },
            {
              "internalType": "bytes32",
              "name": "r",
              "type": "bytes32"
            },
            {
              "internalType": "bytes32",
              "name": "s",
              "type": "bytes32"
            },
            {
              "internalType": "bytes",
              "name": "extraSignature",
              "type": "bytes"
            },
            {
              "internalType": "enum SignatureVersion",
              "name": "signatureVersion",
              "type": "uint8"
            },
            {
              "internalType": "uint256",
              "name": "blockNumber",
              "type": "uint256"
            }
          ],
          "internalType": "struct Input",
          "name": "buy",
          "type": "tuple"
        }
      ],
      "name": "execute",
      "outputs": [],
      "stateMutability": "payable",
      "type": "function"
    },
    {
      "inputs": [],
      "name": "executionDelegate",
      "outputs": [
        {
          "internalType": "contract IExecutionDelegate",
          "name": "",
          "type": "address"
        }
      ],
      "stateMutability": "view",
      "type": "function"
    },
    {
      "inputs": [],
      "name": "incrementNonce",
      "outputs": [],
      "stateMutability": "nonpayable",
      "type": "function"
    },
    {
      "inputs": [
        {
          "internalType": "contract IExecutionDelegate",
          "name": "_executionDelegate",
          "type": "address"
        },
        {
          "internalType": "contract IPolicyManager",
          "name": "_policyManager",
          "type": "address"
        },
        {
          "internalType": "address",
          "name": "_oracle",
          "type": "address"
        },
        {
          "internalType": "uint256",
          "name": "_blockRange",
          "type": "uint256"
        }
      ],
      "name": "initialize",
      "outputs": [],
      "stateMutability": "nonpayable",
      "type": "function"
    },
    {
      "inputs": [],
      "name": "isOpen",
      "outputs": [
        {
          "internalType": "uint256",
          "name": "",
          "type": "uint256"
        }
      ],
      "stateMutability": "view",
      "type": "function"
    },
    {
      "inputs": [
        {
          "internalType": "address",
          "name": "",
          "type": "address"
        }
      ],
      "name": "nonces",
      "outputs": [
        {
          "internalType": "uint256",
          "name": "",
          "type": "uint256"
        }
      ],
      "stateMutability": "view",
      "type": "function"
    },
    {
      "inputs": [],
      "name": "open",
      "outputs": [],
      "stateMutability": "nonpayable",
      "type": "function"
    },
    {
      "inputs": [],
      "name": "oracle",
      "outputs": [
        {
          "internalType": "address",
          "name": "",
          "type": "address"
        }
      ],
      "stateMutability": "view",
      "type": "function"
    },
    {
      "inputs": [],
      "name": "owner",
      "outputs": [
        {
          "internalType": "address",
          "name": "",
          "type": "address"
        }
      ],
      "stateMutability": "view",
      "type": "function"
    },
    {
      "inputs": [],
      "name": "policyManager",
      "outputs": [
        {
          "internalType": "contract IPolicyManager",
          "name": "",
          "type": "address"
        }
      ],
      "stateMutability": "view",
      "type": "function"
    },
    {
      "inputs": [],
      "name": "proxiableUUID",
      "outputs": [
        {
          "internalType": "bytes32",
          "name": "",
          "type": "bytes32"
        }
      ],
      "stateMutability": "view",
      "type": "function"
    },
    {
      "inputs": [],
      "name": "renounceOwnership",
      "outputs": [],
      "stateMutability": "nonpayable",
      "type": "function"
    },
    {
      "inputs": [
        {
          "internalType": "uint256",
          "name": "_blockRange",
          "type": "uint256"
        }
      ],
      "name": "setBlockRange",
      "outputs": [],
      "stateMutability": "nonpayable",
      "type": "function"
    },
    {
      "inputs": [
        {
          "internalType": "contract IExecutionDelegate",
          "name": "_executionDelegate",
          "type": "address"
        }
      ],
      "name": "setExecutionDelegate",
      "outputs": [],
      "stateMutability": "nonpayable",
      "type": "function"
    },
    {
      "inputs": [
        {
          "internalType": "address",
          "name": "_oracle",
          "type": "address"
        }
      ],
      "name": "setOracle",
      "outputs": [],
      "stateMutability": "nonpayable",
      "type": "function"
    },
    {
      "inputs": [
        {
          "internalType": "contract IPolicyManager",
          "name": "_policyManager",
          "type": "address"
        }
      ],
      "name": "setPolicyManager",
      "outputs": [],
      "stateMutability": "nonpayable",
      "type": "function"
    },
    {
      "inputs": [
        {
          "internalType": "address",
          "name": "newOwner",
          "type": "address"
        }
      ],
      "name": "transferOwnership",
      "outputs": [],
      "stateMutability": "nonpayable",
      "type": "function"
    },
    {
      "inputs": [
        {
          "internalType": "address",
          "name": "newImplementation",
          "type": "address"
        }
      ],
      "name": "upgradeTo",
      "outputs": [],
      "stateMutability": "nonpayable",
      "type": "function"
    },
    {
      "inputs": [
        {
          "internalType": "address",
          "name": "newImplementation",
          "type": "address"
        },
        {
          "internalType": "bytes",
          "name": "data",
          "type": "bytes"
        }
      ],
      "name": "upgradeToAndCall",
      "outputs": [],
      "stateMutability": "payable",
      "type": "function"
    }
  ],
  "bytecode": "0x60a06040526000805460ff19169055306080523480156200001f57600080fd5b506200002a62000030565b620000f2565b605f54610100900460ff16156200009d5760405162461bcd60e51b815260206004820152602760248201527f496e697469616c697a61626c653a20636f6e747261637420697320696e697469604482015266616c697a696e6760c81b606482015260840160405180910390fd5b605f5460ff9081161015620000f057605f805460ff191660ff9081179091556040519081527f7f26b83ff96e1f2b6a682f133852f6798a09c465da95921460cefb38474024989060200160405180910390a15b565b60805161390a6200012a600039600081816107180152818161079d015281816108cc015281816109510152610a3b015261390a6000f3fe6080604052600436106101e35760003560e01c80638da5cb5b11610102578063adde41e111610095578063f4acd74011610064578063f4acd740146105c8578063f973a209146105e8578063fcfff16f1461061c578063ffa1ad741461063157600080fd5b8063adde41e114610552578063cae6047f14610572578063cf756fdf14610588578063f2fde38b146105a857600080fd5b8063a4b2c674116100d1578063a4b2c674146104d2578063ab3dbf3b146104e9578063ab7e8cba1461050a578063ad5c46481461052a57600080fd5b80638da5cb5b1461043f578063986c9b201461045d5780639a1fc3a71461047e578063a3f4df7e1461049157600080fd5b806352d1902d1161017a578063715018a611610149578063715018a6146103a35780637adbf973146103b85780637dc0d1d0146103d85780637ecebe001461041157600080fd5b806352d1902d146103185780635511f3191461032d578063627cdcb91461036e5780636992aa361461038357600080fd5b806343d726d6116101b657806343d726d6146102a557806347535d7b146102ba5780634832ede1146102d15780634f1ef2861461030557600080fd5b8063037c9be2146101e85780631d97c9bb1461020a57806331e6d0fe146102515780633659cfe614610285575b600080fd5b3480156101f457600080fd5b50610208610203366004612da7565b610660565b005b34801561021657600080fd5b5061023e7fd71080023d2f293ed0723dc287d6b2d4e7d27d0b6c12928e300721b7c78c748581565b6040519081526020015b60405180910390f35b34801561025d57600080fd5b5061023e7f5bcf4b2eaff7fcdeb49f0bda53026b9ebdd93db566fe4c447125cb899e598c9081565b34801561029157600080fd5b506102086102a0366004612da7565b61070e565b3480156102b157600080fd5b50610208610889565b3480156102c657600080fd5b5061023e6101285481565b3480156102dd57600080fd5b5061023e7f05b43f730f67de334a342883f867101fc7ef3361dfdff4a29a7aa97e0920ef7a81565b610208610313366004612e1b565b6108c2565b34801561032457600080fd5b5061023e610a2e565b34801561033957600080fd5b5061035e610348366004612ec3565b61012d6020526000908152604090205460ff1681565b6040519015158152602001610248565b34801561037a57600080fd5b50610208610af3565b34801561038f57600080fd5b5061020861039e366004612ec3565b610b60565b3480156103af57600080fd5b50610208610ba4565b3480156103c457600080fd5b506102086103d3366004612da7565b610bb8565b3480156103e457600080fd5b5061012b546103f9906001600160a01b031681565b6040516001600160a01b039091168152602001610248565b34801561041d57600080fd5b5061023e61042c366004612da7565b61012e6020526000908152604090205481565b34801561044b57600080fd5b506092546001600160a01b03166103f9565b34801561046957600080fd5b50610129546103f9906001600160a01b031681565b61020861048c366004612ef4565b610c61565b34801561049d57600080fd5b506104c56040518060400160405280600881526020016745786368616e676560c01b81525081565b6040516102489190612f7c565b3480156104de57600080fd5b5061023e61012c5481565b3480156104f557600080fd5b5061012a546103f9906001600160a01b031681565b34801561051657600080fd5b50610208610525366004612faf565b611160565b34801561053657600080fd5b506103f973c02aaa39b223fe8d0a0e5c4f27ead9083c756cc281565b34801561055e57600080fd5b5061020861056d366004612da7565b6111af565b34801561057e57600080fd5b5061023e61271081565b34801561059457600080fd5b506102086105a3366004613024565b611258565b3480156105b457600080fd5b506102086105c3366004612da7565b611426565b3480156105d457600080fd5b506102086105e3366004613075565b6114b3565b3480156105f457600080fd5b5061023e7f376bfbc394a7ba7fdf10f224572cef371358e3053e362f4554fcd2ad56329b3f81565b34801561062857600080fd5b506102086115d0565b34801561063d57600080fd5b506104c5604051806040016040528060038152602001620312e360ec1b81525081565b610668611609565b6001600160a01b0381166106c35760405162461bcd60e51b815260206004820152601660248201527f416464726573732063616e6e6f74206265207a65726f0000000000000000000060448201526064015b60405180910390fd5b61012980546001600160a01b0319166001600160a01b0383169081179091556040517ff9a0f356a7ef079355de09d32ce45cc3cfabc8f118681c19a17501f005a376ac90600090a250565b6001600160a01b037f000000000000000000000000000000000000000000000000000000000000000016300361079b5760405162461bcd60e51b815260206004820152602c60248201527f46756e6374696f6e206d7573742062652063616c6c6564207468726f7567682060448201526b19195b1959d85d1958d85b1b60a21b60648201526084016106ba565b7f00000000000000000000000000000000000000000000000000000000000000006001600160a01b03166107f67f360894a13ba1a3210667c828492db98dca3e2076cc3735a920a3ca505d382bbc546001600160a01b031690565b6001600160a01b0316146108615760405162461bcd60e51b815260206004820152602c60248201527f46756e6374696f6e206d7573742062652063616c6c6564207468726f7567682060448201526b6163746976652070726f787960a01b60648201526084016106ba565b61086a81611663565b604080516000808252602082019092526108869183919061166b565b50565b610891611609565b60006101288190556040517f1cdde67b72a90f19919ac732a437ac2f7a10fc128d28c2a6e525d89ce5cd9d3a9190a1565b6001600160a01b037f000000000000000000000000000000000000000000000000000000000000000016300361094f5760405162461bcd60e51b815260206004820152602c60248201527f46756e6374696f6e206d7573742062652063616c6c6564207468726f7567682060448201526b19195b1959d85d1958d85b1b60a21b60648201526084016106ba565b7f00000000000000000000000000000000000000000000000000000000000000006001600160a01b03166109aa7f360894a13ba1a3210667c828492db98dca3e2076cc3735a920a3ca505d382bbc546001600160a01b031690565b6001600160a01b031614610a155760405162461bcd60e51b815260206004820152602c60248201527f46756e6374696f6e206d7573742062652063616c6c6564207468726f7567682060448201526b6163746976652070726f787960a01b60648201526084016106ba565b610a1e82611663565b610a2a8282600161166b565b5050565b6000306001600160a01b037f00000000000000000000000000000000000000000000000000000000000000001614610ace5760405162461bcd60e51b815260206004820152603860248201527f555550535570677261646561626c653a206d757374206e6f742062652063616c60448201527f6c6564207468726f7567682064656c656761746563616c6c000000000000000060648201526084016106ba565b507f360894a13ba1a3210667c828492db98dca3e2076cc3735a920a3ca505d382bbc90565b33600090815261012e60205260408120805460019290610b149084906130c7565b909155505033600081815261012e60209081526040918290205491519182527fa82a649bbd060c9099cd7b7326e2b0dc9e9af0836480e0f849dc9eaa79710b3b910160405180910390a2565b610b68611609565b61012c8190556040518181527f7706177c541ba1b858371bfc568aa77450b4713bbdbba62c730d4484ab6c12519060200160405180910390a150565b610bac611609565b610bb6600061180b565b565b610bc0611609565b6001600160a01b038116610c165760405162461bcd60e51b815260206004820152601660248201527f416464726573732063616e6e6f74206265207a65726f0000000000000000000060448201526064016106ba565b61012b80546001600160a01b0319166001600160a01b0383169081179091556040517fb3eacd0e351fafdfefdec84e1cd19679b38dbcd63ea7c2c24da17fd2bc3b3c0e90600090a250565b60005460ff1615610cb45760405162461bcd60e51b815260206004820152601360248201527f5265656e7472616e63792064657465637465640000000000000000000000000060448201526064016106ba565b6000805460ff191660019081179091556101285414610d155760405162461bcd60e51b815260206004820152600660248201527f436c6f736564000000000000000000000000000000000000000000000000000060448201526064016106ba565b6001610d2183806130f0565b610d32906040810190602001613129565b6001811115610d4357610d436130da565b14610d4d57600080fd5b6000610d9f610d5c84806130f0565b61012e6000610d6b87806130f0565b610d79906020810190612da7565b6001600160a01b03166001600160a01b031681526020019081526020016000205461185d565b90506000610db0610d5c84806130f0565b9050610dc5610dbf85806130f0565b8361199e565b610e115760405162461bcd60e51b815260206004820152601b60248201527f53656c6c2068617320696e76616c696420706172616d6574657273000000000060448201526064016106ba565b610e24610e1e84806130f0565b8261199e565b610e705760405162461bcd60e51b815260206004820152601a60248201527f4275792068617320696e76616c696420706172616d657465727300000000000060448201526064016106ba565b610e7a84836119f7565b610ec65760405162461bcd60e51b815260206004820152601960248201527f53656c6c206661696c656420617574686f72697a6174696f6e0000000000000060448201526064016106ba565b610ed083826119f7565b610f1c5760405162461bcd60e51b815260206004820152601860248201527f427579206661696c656420617574686f72697a6174696f6e000000000000000060448201526064016106ba565b6000808080610f3d610f2e89806130f0565b610f3889806130f0565b611b41565b60008a815261012d60205260408082208054600160ff1991821681179092558c8452919092208054909116909117905592965090945092509050610fe4610f8489806130f0565b610f92906020810190612da7565b610f9c89806130f0565b610faa906020810190612da7565b610fb48b806130f0565b610fc59060e081019060c001612da7565b610fcf8c806130f0565b610fde90610140810190613146565b89611ea7565b61103a610ff189806130f0565b611002906080810190606001612da7565b61100c8a806130f0565b61101a906020810190612da7565b6110248a806130f0565b611032906020810190612da7565b868686611fb9565b61104487806130f0565b610100013561105389806130f0565b61010001351161107a5761106787806130f0565b611075906020810190612da7565b611092565b61108488806130f0565b611092906020810190612da7565b6001600160a01b03166110a588806130f0565b61010001356110b48a806130f0565b610100013511156110dc576110c988806130f0565b6110d7906020810190612da7565b6110f4565b6110e689806130f0565b6110f4906020810190612da7565b6001600160a01b03167f61cbb2a3dee0b6064c2e681aadd61677fb4ef319f0b547508d495626f5a62f646111288b806130f0565b896111338c806130f0565b8a60405161114494939291906133fd565b60405180910390a350506000805460ff19169055505050505050565b60005b60ff81168211156111aa5761119883838360ff168181106111865761118661343a565b90506020028101906105e391906130f0565b806111a281613450565b915050611163565b505050565b6111b7611609565b6001600160a01b03811661120d5760405162461bcd60e51b815260206004820152601660248201527f416464726573732063616e6e6f74206265207a65726f0000000000000000000060448201526064016106ba565b61012a80546001600160a01b0319166001600160a01b0383169081179091556040517fdbe18f3fd927cc2aefe380ffd2abfdb8e13f0239c0258ccfc84c3d8fdd8c041890600090a250565b605f54610100900460ff16158080156112785750605f54600160ff909116105b806112925750303b1580156112925750605f5460ff166001145b6113045760405162461bcd60e51b815260206004820152602e60248201527f496e697469616c697a61626c653a20636f6e747261637420697320616c72656160448201527f647920696e697469616c697a656400000000000000000000000000000000000060648201526084016106ba565b605f805460ff19166001179055801561132757605f805461ff0019166101001790555b61132f61213c565b6001610128556040805160c0810182526008608082019081526745786368616e676560c01b60a083015281528151808301835260038152620312e360ec1b6020828101919091528201524691810191909152306060820152611390906121af565b60325561012980546001600160a01b038088166001600160a01b03199283161790925561012a805487841690831617905561012b80549286169290911691909117905561012c829055801561141f57605f805461ff0019169055604051600181527f7f26b83ff96e1f2b6a682f133852f6798a09c465da95921460cefb38474024989060200160405180910390a15b5050505050565b61142e611609565b6001600160a01b0381166114aa5760405162461bcd60e51b815260206004820152602660248201527f4f776e61626c653a206e6577206f776e657220697320746865207a65726f206160448201527f646472657373000000000000000000000000000000000000000000000000000060648201526084016106ba565b6108868161180b565b6114c06020820182612da7565b6001600160a01b0316336001600160a01b0316146114dd57600080fd5b60006114f48261012e83610d796020840184612da7565b600081815261012d602052604090205490915060ff16156115615760405162461bcd60e51b815260206004820152602160248201527f4f7264657220616c72656164792063616e63656c6c6564206f722066696c6c656044820152601960fa1b60648201526084016106ba565b600081815261012d602052604090205460ff16610a2a57600081815261012d602052604090819020805460ff19166001179055517f5152abf959f6564662358c2e52b702259b78bac5ee7842a0f01937e670efcc7d906115c49083815260200190565b60405180910390a15050565b6115d8611609565b6001610128556040517fd1dcd00534373f20882b79e6ab6875a5c358c5bd576448757ed50e63069ab51890600090a1565b6092546001600160a01b03163314610bb65760405162461bcd60e51b815260206004820181905260248201527f4f776e61626c653a2063616c6c6572206973206e6f7420746865206f776e657260448201526064016106ba565b610886611609565b7f4910fdfa16fed3260ed0e7147f7cc6da11a60208b5b9406d12a635614ffd91435460ff161561169e576111aa8361224c565b826001600160a01b03166352d1902d6040518163ffffffff1660e01b8152600401602060405180830381865afa9250505080156116f8575060408051601f3d908101601f191682019092526116f59181019061346f565b60015b61176a5760405162461bcd60e51b815260206004820152602e60248201527f45524331393637557067726164653a206e657720696d706c656d656e7461746960448201527f6f6e206973206e6f74205555505300000000000000000000000000000000000060648201526084016106ba565b7f360894a13ba1a3210667c828492db98dca3e2076cc3735a920a3ca505d382bbc81146117ff5760405162461bcd60e51b815260206004820152602960248201527f45524331393637557067726164653a20756e737570706f727465642070726f7860448201527f6961626c6555554944000000000000000000000000000000000000000000000060648201526084016106ba565b506111aa83838361230a565b609280546001600160a01b038381166001600160a01b0319831681179093556040519116919082907f8be0079c531659141344cd1fd0a4f28419497f9722a3daafe3b4186f6b6457e090600090a35050565b60007f376bfbc394a7ba7fdf10f224572cef371358e3053e362f4554fcd2ad56329b3f61188d6020850185612da7565b61189d6040860160208701613129565b6118ad6060870160408801612da7565b6118bd6080880160608901612da7565b608088013560a08901356118d760e08b0160c08c01612da7565b8a60e001358b61010001358c61012001356119018e8061014001906118fc9190613146565b612335565b8e61016001358f8061018001906119189190613488565b6040516119269291906134cf565b6040519081900381206119489e9d9c9b9a9998979695949392916020016134df565b60408051601f1981840301815282825260208301859052910160408051601f198184030181529082905261197f929160200161357f565b6040516020818303038152906040528051906020012090505b92915050565b6000806119ae6020850185612da7565b6001600160a01b0316141580156119d55750600082815261012d602052604090205460ff16155b80156119f057506119f0836101000135846101200135612408565b9392505050565b600033611a0484806130f0565b611a12906020810190612da7565b6001600160a01b031603611a2857506001611998565b611a8082611a3685806130f0565b611a44906020810190612da7565b611a5460408701602088016135bf565b60408701356060880135611a6e60c08a0160a08b01613129565b611a7b60808b018b613488565b612424565b611a8c57506000611998565b611a9683806130f0565b6101200135600003611b385761012c54611ab460c0850135436135da565b10611b015760405162461bcd60e51b815260206004820181905260248201527f5369676e656420626c6f636b206e756d626572206f7574206f662072616e676560448201526064016106ba565b611b2c82611b1560c0860160a08701613129565b611b226080870187613488565b8760c0013561251f565b611b3857506000611998565b50600192915050565b600080600080600085610100013587610100013511611cd75761012a546001600160a01b031663874516cd611b7c60608a0160408b01612da7565b6040517fffffffff0000000000000000000000000000000000000000000000000000000060e084901b1681526001600160a01b039091166004820152602401602060405180830381865afa158015611bd8573d6000803e3d6000fd5b505050506040513d601f19601f82011682018060405250810190611bfc91906135fd565b611c485760405162461bcd60e51b815260206004820152601960248201527f506f6c696379206973206e6f742077686974656c69737465640000000000000060448201526064016106ba565b611c586060880160408901612da7565b6001600160a01b031663d5ec8c7788886040518363ffffffff1660e01b8152600401611c85929190613618565b60a060405180830381865afa158015611ca2573d6000803e3d6000fd5b505050506040513d601f19601f82011682018060405250810190611cc6919061363d565b929850909650945092509050611e50565b61012a546001600160a01b031663874516cd611cf96060890160408a01612da7565b6040517fffffffff0000000000000000000000000000000000000000000000000000000060e084901b1681526001600160a01b039091166004820152602401602060405180830381865afa158015611d55573d6000803e3d6000fd5b505050506040513d601f19601f82011682018060405250810190611d7991906135fd565b611dc55760405162461bcd60e51b815260206004820152601960248201527f506f6c696379206973206e6f742077686974656c69737465640000000000000060448201526064016106ba565b611dd56060870160408801612da7565b6001600160a01b0316630813a76687896040518363ffffffff1660e01b8152600401611e02929190613618565b60a060405180830381865afa158015611e1f573d6000803e3d6000fd5b505050506040513d601f19601f82011682018060405250810190611e43919061363d565b9298509096509450925090505b80611e9d5760405162461bcd60e51b815260206004820152601860248201527f4f72646572732063616e6e6f74206265206d617463686564000000000000000060448201526064016106ba565b5092959194509250565b6001600160a01b038416158015611ec65750336001600160a01b038616145b15611f4557803414611f405760405162461bcd60e51b815260206004820152602a60248201527f4d6573736167652076616c756520646f65736e277420657175616c206d61746360448201527f68696e672070726963650000000000000000000000000000000000000000000060648201526084016106ba565b611f93565b3415611f935760405162461bcd60e51b815260206004820152601660248201527f4554482073686f756c64206e6f742062652073656e740000000000000000000060448201526064016106ba565b6000611fa284848789866125c3565b9050611fb085878984612704565b50505050505050565b853b6120075760405162461bcd60e51b815260206004820152601960248201527f436f6c6c656374696f6e20646f6573206e6f742065786973740000000000000060448201526064016106ba565b600081600181111561201b5761201b6130da565b0361209c5761012954604051633c4fc9fb60e11b81526001600160a01b03888116600483015287811660248301528681166044830152606482018690529091169063789f93f690608401600060405180830381600087803b15801561207f57600080fd5b505af1158015612093573d6000803e3d6000fd5b50505050612134565b60018160018111156120b0576120b06130da565b036121345761012954604051633a54a01760e11b81526001600160a01b038881166004830152878116602483015286811660448301526064820186905260848201859052909116906374a9402e9060a401600060405180830381600087803b15801561211b57600080fd5b505af115801561212f573d6000803e3d6000fd5b505050505b505050505050565b605f54610100900460ff166121a75760405162461bcd60e51b815260206004820152602b60248201527f496e697469616c697a61626c653a20636f6e7472616374206973206e6f74206960448201526a6e697469616c697a696e6760a81b60648201526084016106ba565b610bb661291d565b60007f8b73c3c69bb8fe3d512ecc4cf759cc79239f7b179b0ffacaa9a75d522b39400f8260000151805190602001208360200151805190602001208460400151856060015160405160200161222f9594939291909485526020850193909352604084019190915260608301526001600160a01b0316608082015260a00190565b604051602081830303815290604052805190602001209050919050565b6001600160a01b0381163b6122c95760405162461bcd60e51b815260206004820152602d60248201527f455243313936373a206e657720696d706c656d656e746174696f6e206973206e60448201527f6f74206120636f6e74726163740000000000000000000000000000000000000060648201526084016106ba565b7f360894a13ba1a3210667c828492db98dca3e2076cc3735a920a3ca505d382bbc80546001600160a01b0319166001600160a01b0392909216919091179055565b61231383612991565b6000825111806123205750805b156111aa5761232f83836129d1565b50505050565b6000808267ffffffffffffffff81111561235157612351612dd4565b60405190808252806020026020018201604052801561237a578160200160208202803683370190505b50905060005b838110156123d7576123a885858381811061239d5761239d61343a565b905060400201612ad3565b8282815181106123ba576123ba61343a565b6020908102919091010152806123cf81613691565b915050612380565b50806040516020016123e991906136aa565b6040516020818303038152906040528051906020012091505092915050565b600042831080156119f057508115806119f05750504210919050565b6000808085600181111561243a5761243a6130da565b0361244f576124488a612b43565b9050612504565b6001856001811115612463576124636130da565b0361250457600061247684860186613755565b9050600073__$82635e7900a17ae2732d334128a764b403$__639c7bf9388d846040518363ffffffff1660e01b81526004016124b3929190613792565b602060405180830381865af41580156124d0573d6000803e3d6000fd5b505050506040513d601f19601f820116820180604052508101906124f4919061346f565b90506124ff81612b6e565b925050505b61251189828a8a8a612be5565b9a9950505050505050505050565b60008061252c8784612cd6565b90506000808080896001811115612545576125456130da565b0361256257612556878901896137e0565b91945092509050612599565b6001896001811115612576576125766130da565b0361259957600080808061258c8b8d018d613813565b9199509750955050505050505b61012b546125b3906001600160a01b031685858585612be5565b9450505050505b95945050505050565b600080805b60ff811687111561267557600061271089898460ff168181106125ed576125ed61343a565b6126039260206040909202019081019150613870565b6126119061ffff168761388b565b61261b91906138a2565b905061265587878b8b8660ff168181106126375761263761343a565b905060400201602001602081019061264f9190612da7565b84612704565b61265f81846130c7565b925050808061266d90613450565b9150506125c8565b50828111156126ec5760405162461bcd60e51b815260206004820152602c60248201527f546f74616c20616d6f756e74206f66206665657320617265206d6f726520746860448201527f616e20746865207072696365000000000000000000000000000000000000000060648201526084016106ba565b60006126f882856135da565b98975050505050505050565b801561232f576001600160a01b038416612817576001600160a01b03821661276e5760405162461bcd60e51b815260206004820152601860248201527f5472616e7366657220746f207a65726f2061646472657373000000000000000060448201526064016106ba565b6000826001600160a01b03168260405160006040518083038185875af1925050503d80600081146127bb576040519150601f19603f3d011682016040523d82523d6000602084013e6127c0565b606091505b50509050806128115760405162461bcd60e51b815260206004820152601360248201527f455448207472616e73666572206661696c65640000000000000000000000000060448201526064016106ba565b5061232f565b7fffffffffffffffffffffffff3fd555c64ddc0172f5f1a3b0d81526f7c38a933e6001600160a01b038516016128d5576101295460405163368fa33960e21b815273c02aaa39b223fe8d0a0e5c4f27ead9083c756cc260048201526001600160a01b0385811660248301528481166044830152606482018490529091169063da3e8ce490608401600060405180830381600087803b1580156128b857600080fd5b505af11580156128cc573d6000803e3d6000fd5b5050505061232f565b60405162461bcd60e51b815260206004820152601560248201527f496e76616c6964207061796d656e7420746f6b656e000000000000000000000060448201526064016106ba565b605f54610100900460ff166129885760405162461bcd60e51b815260206004820152602b60248201527f496e697469616c697a61626c653a20636f6e7472616374206973206e6f74206960448201526a6e697469616c697a696e6760a81b60648201526084016106ba565b610bb63361180b565b61299a8161224c565b6040516001600160a01b038216907fbc7cd75a20ee27fd9adebab32041f755214dbc6bffa90cc0225b39da2e5c2d3b90600090a250565b60606001600160a01b0383163b612a505760405162461bcd60e51b815260206004820152602660248201527f416464726573733a2064656c65676174652063616c6c20746f206e6f6e2d636f60448201527f6e7472616374000000000000000000000000000000000000000000000000000060648201526084016106ba565b600080846001600160a01b031684604051612a6b91906138c4565b600060405180830381855af49150503d8060008114612aa6576040519150601f19603f3d011682016040523d82523d6000602084013e612aab565b606091505b50915091506125ba82826040518060600160405280602781526020016138d760279139612d54565b60007f05b43f730f67de334a342883f867101fc7ef3361dfdff4a29a7aa97e0920ef7a612b036020840184613870565b612b136040850160208601612da7565b60405160200161222f9392919092835261ffff9190911660208301526001600160a01b0316604082015260600190565b60325460405161190160f01b602082015260228101919091526042810182905260009060620161222f565b603254604080517f5bcf4b2eaff7fcdeb49f0bda53026b9ebdd93db566fe4c447125cb899e598c906020820152908101839052600091906060016040516020818303038152906040528051906020012060405160200161222f92919061190160f01b81526002810192909252602282015260420190565b60008360ff16601b1480612bfc57508360ff16601c145b612c485760405162461bcd60e51b815260206004820152601360248201527f496e76616c6964207620706172616d657465720000000000000000000000000060448201526064016106ba565b6040805160008082526020820180845288905260ff871692820192909252606081018590526080810184905260019060a0016020604051602081039080840390855afa158015612c9c573d6000803e3d6000fd5b5050604051601f1901519150506001600160a01b038116612cc15760009150506125ba565b6001600160a01b0387811691161490506125ba565b603254604080517fd71080023d2f293ed0723dc287d6b2d4e7d27d0b6c12928e300721b7c78c7485602082015290810184905260608101839052600091906080016040516020818303038152906040528051906020012060405160200161197f92919061190160f01b81526002810192909252602282015260420190565b60608315612d635750816119f0565b6119f08383815115612d785781518083602001fd5b8060405162461bcd60e51b81526004016106ba9190612f7c565b6001600160a01b038116811461088657600080fd5b600060208284031215612db957600080fd5b81356119f081612d92565b8035612dcf81612d92565b919050565b634e487b7160e01b600052604160045260246000fd5b604051601f8201601f1916810167ffffffffffffffff81118282101715612e1357612e13612dd4565b604052919050565b60008060408385031215612e2e57600080fd5b8235612e3981612d92565b915060208381013567ffffffffffffffff80821115612e5757600080fd5b818601915086601f830112612e6b57600080fd5b813581811115612e7d57612e7d612dd4565b612e8f601f8201601f19168501612dea565b91508082528784828501011115612ea557600080fd5b80848401858401376000848284010152508093505050509250929050565b600060208284031215612ed557600080fd5b5035919050565b600060e08284031215612eee57600080fd5b50919050565b60008060408385031215612f0757600080fd5b823567ffffffffffffffff80821115612f1f57600080fd5b612f2b86838701612edc565b93506020850135915080821115612f4157600080fd5b50612f4e85828601612edc565b9150509250929050565b60005b83811015612f73578181015183820152602001612f5b565b50506000910152565b6020815260008251806020840152612f9b816040850160208701612f58565b601f01601f19169190910160400192915050565b60008060208385031215612fc257600080fd5b823567ffffffffffffffff80821115612fda57600080fd5b818501915085601f830112612fee57600080fd5b813581811115612ffd57600080fd5b8660208260051b850101111561301257600080fd5b60209290920196919550909350505050565b6000806000806080858703121561303a57600080fd5b843561304581612d92565b9350602085013561305581612d92565b9250604085013561306581612d92565b9396929550929360600135925050565b60006020828403121561308757600080fd5b813567ffffffffffffffff81111561309e57600080fd5b82016101a081850312156119f057600080fd5b634e487b7160e01b600052601160045260246000fd5b80820180821115611998576119986130b1565b634e487b7160e01b600052602160045260246000fd5b6000823561019e1983360301811261310757600080fd5b9190910192915050565b6002811061088657600080fd5b8035612dcf81613111565b60006020828403121561313b57600080fd5b81356119f081613111565b6000808335601e1984360301811261315d57600080fd5b83018035915067ffffffffffffffff82111561317857600080fd5b6020019150600681901b360382131561319057600080fd5b9250929050565b600281106131b557634e487b7160e01b600052602160045260246000fd5b9052565b6000808335601e198436030181126131d057600080fd5b830160208101925035905067ffffffffffffffff8111156131f057600080fd5b8060061b360382131561319057600080fd5b803561ffff81168114612dcf57600080fd5b8183526000602080850194508260005b858110156132685761ffff61323883613202565b1687528282013561324881612d92565b6001600160a01b0316878401526040968701969190910190600101613224565b509495945050505050565b6000808335601e1984360301811261328a57600080fd5b830160208101925035905067ffffffffffffffff8111156132aa57600080fd5b80360382131561319057600080fd5b81835281816020850137506000828201602090810191909152601f909101601f19169091010190565b60006101a0613301846132f485612dc4565b6001600160a01b03169052565b61330d6020840161311e565b61331a6020860182613197565b5061332760408401612dc4565b6001600160a01b0316604085015261334160608401612dc4565b6001600160a01b0381166060860152506080830135608085015260a083013560a085015261337160c08401612dc4565b6001600160a01b031660c085015260e08381013590850152610100808401359085015261012080840135908501526101406133ae818501856131b9565b83838801526133c08488018284613214565b93505050506101608084013581860152506101806133e081850185613273565b868403838801526133f28482846132b9565b979650505050505050565b60808152600061341060808301876132e2565b856020840152828103604084015261342881866132e2565b91505082606083015295945050505050565b634e487b7160e01b600052603260045260246000fd5b600060ff821660ff8103613466576134666130b1565b60010192915050565b60006020828403121561348157600080fd5b5051919050565b6000808335601e1984360301811261349f57600080fd5b83018035915067ffffffffffffffff8211156134ba57600080fd5b60200191503681900382131561319057600080fd5b8183823760009101908152919050565b8e81526001600160a01b038e1660208201526101c08101613503604083018f613197565b6001600160a01b038d1660608301526001600160a01b038c1660808301528a60a08301528960c083015261354260e083018a6001600160a01b03169052565b8761010083015286610120830152856101408301528461016083015283610180830152826101a08301529f9e505050505050505050505050505050565b60008351613591818460208801612f58565b8351908301906135a5818360208801612f58565b01949350505050565b803560ff81168114612dcf57600080fd5b6000602082840312156135d157600080fd5b6119f0826135ae565b81810381811115611998576119986130b1565b80518015158114612dcf57600080fd5b60006020828403121561360f57600080fd5b6119f0826135ed565b60408152600061362b60408301856132e2565b82810360208401526125ba81856132e2565b600080600080600060a0868803121561365557600080fd5b61365e866135ed565b9450602086015193506040860151925060608601519150608086015161368381613111565b809150509295509295909350565b6000600182016136a3576136a36130b1565b5060010190565b815160009082906020808601845b838110156136d4578151855293820193908201906001016136b8565b50929695505050505050565b600082601f8301126136f157600080fd5b8135602067ffffffffffffffff82111561370d5761370d612dd4565b8160051b61371c828201612dea565b928352848101820192828101908785111561373657600080fd5b83870192505b848310156133f25782358252918301919083019061373c565b60006020828403121561376757600080fd5b813567ffffffffffffffff81111561377e57600080fd5b61378a848285016136e0565b949350505050565b6000604082018483526020604081850152818551808452606086019150828701935060005b818110156137d3578451835293830193918301916001016137b7565b5090979650505050505050565b6000806000606084860312156137f557600080fd5b6137fe846135ae565b95602085013595506040909401359392505050565b6000806000806080858703121561382957600080fd5b843567ffffffffffffffff81111561384057600080fd5b61384c878288016136e0565b94505061385b602086016135ae565b93969395505050506040820135916060013590565b60006020828403121561388257600080fd5b6119f082613202565b8082028115828204841417611998576119986130b1565b6000826138bf57634e487b7160e01b600052601260045260246000fd5b500490565b60008251613107818460208701612f5856fe416464726573733a206c6f772d6c6576656c2064656c65676174652063616c6c206661696c6564a164736f6c6343000811000a",
  "linkReferences": {
    "contracts/lib/MerkleVerifier.sol": {
      "MerkleVerifier": [
        {
          "length": 20,
          "start": 9638
        }
      ]
    }
  },
  "deployedLinkReferences": {
    "contracts/lib/MerkleVerifier.sol": {
      "MerkleVerifier": [
        {
          "length": 20,
          "start": 9340
        }
      ]
    }
  }
}