{
  "_format": "hh-sol-artifact-1",
  "contractName": "MockERC721",
  "sourceName": "contracts/mocks/MockERC721.sol",
  "abi": [
    {
      "inputs": [],
      "stateMutability": "nonpayable",
      "type": "constructor"
    },
    {
      "anonymous": false,
      "inputs": [
        {
          "indexed": true,
          "internalType": "address",
          "name": "owner",
          "type": "address"
        },
        {
          "indexed": true,
          "internalType": "address",
          "name": "approved",
          "type": "address"
        },
        {
          "indexed": true,
          "internalType": "uint256",
          "name": "tokenId",
          "type": "uint256"
        }
      ],
      "name": "Approval",
      "type": "event"
    },
    {
      "anonymous": false,
      "inputs": [
        {
          "indexed": true,
          "internalType": "address",
          "name": "owner",
          "type": "address"
        },
        {
          "indexed": true,
          "internalType": "address",
          "name": "operator",
          "type": "address"
        },
        {
          "indexed": false,
          "internalType": "bool",
          "name": "approved",
          "type": "bool"
        }
      ],
      "name": "ApprovalForAll",
      "type": "event"
    },
    {
      "anonymous": false,
      "inputs": [
        {
          "indexed": true,
          "internalType": "address",
          "name": "from",
          "type": "address"
        },
        {
          "indexed": true,
          "internalType": "address",
          "name": "to",
          "type": "address"
        },
        {
          "indexed": true,
          "internalType": "uint256",
          "name": "tokenId",
          "type": "uint256"
        }
      ],
      "name": "Transfer",
      "type": "event"
    },
    {
      "inputs": [
        {
          "internalType": "address",
          "name": "to",
          "type": "address"
        },
        {
          "internalType": "uint256",
          "name": "tokenId",
          "type": "uint256"
        }
      ],
      "name": "approve",
      "outputs": [],
      "stateMutability": "nonpayable",
      "type": "function"
    },
    {
      "inputs": [
        {
          "internalType": "address",
          "name": "owner",
          "type": "address"
        }
      ],
      "name": "balanceOf",
      "outputs": [
        {
          "internalType": "uint256",
          "name": "",
          "type": "uint256"
        }
      ],
      "stateMutability": "view",
      "type": "function"
    },
    {
      "inputs": [
        {
          "internalType": "uint256",
          "name": "tokenId",
          "type": "uint256"
        }
      ],
      "name": "getApproved",
      "outputs": [
        {
          "internalType": "address",
          "name": "",
          "type": "address"
        }
      ],
      "stateMutability": "view",
      "type": "function"
    },
    {
      "inputs": [
        {
          "internalType": "address",
          "name": "owner",
          "type": "address"
        },
        {
          "internalType": "address",
          "name": "operator",
          "type": "address"
        }
      ],
      "name": "isApprovedForAll",
      "outputs": [
        {
          "internalType": "bool",
          "name": "",
          "type": "bool"
        }
      ],
      "stateMutability": "view",
      "type": "function"
    },
    {
      "inputs": [
        {
          "internalType": "address",
          "name": "to",
          "type": "address"
        },
        {
          "internalType": "uint256",
          "name": "tokenId",
          "type": "uint256"
        }
      ],
      "name": "mint",
      "outputs": [
        {
          "internalType": "bool",
          "name": "",
          "type": "bool"
        }
      ],
      "stateMutability": "nonpayable",
      "type": "function"
    },
    {
      "inputs": [],
      "name": "name",
      "outputs": [
        {
          "internalType": "string",
          "name": "",
          "type": "string"
        }
      ],
      "stateMutability": "view",
      "type": "function"
    },
    {
      "inputs": [
        {
          "internalType": "uint256",
          "name": "tokenId",
          "type": "uint256"
        }
      ],
      "name": "ownerOf",
      "outputs": [
        {
          "internalType": "address",
          "name": "",
          "type": "address"
        }
      ],
      "stateMutability": "view",
      "type": "function"
    },
    {
      "inputs": [
        {
          "internalType": "address",
          "name": "from",
          "type": "address"
        },
        {
          "internalType": "address",
          "name": "to",
          "type": "address"
        },
        {
          "internalType": "uint256",
          "name": "tokenId",
          "type": "uint256"
        }
      ],
      "name": "safeTransferFrom",
      "outputs": [],
      "stateMutability": "nonpayable",
      "type": "function"
    },
    {
      "inputs": [
        {
          "internalType": "address",
          "name": "from",
          "type": "address"
        },
        {
          "internalType": "address",
          "name": "to",
          "type": "address"
        },
        {
          "internalType": "uint256",
          "name": "tokenId",
          "type": "uint256"
        },
        {
          "internalType": "bytes",
          "name": "_data",
          "type": "bytes"
        }
      ],
      "name": "safeTransferFrom",
      "outputs": [],
      "stateMutability": "nonpayable",
      "type": "function"
    },
    {
      "inputs": [
        {
          "internalType": "address",
          "name": "operator",
          "type": "address"
        },
        {
          "internalType": "bool",
          "name": "approved",
          "type": "bool"
        }
      ],
      "name": "setApprovalForAll",
      "outputs": [],
      "stateMutability": "nonpayable",
      "type": "function"
    },
    {
      "inputs": [
        {
          "internalType": "bytes4",
          "name": "interfaceId",
          "type": "bytes4"
        }
      ],
      "name": "supportsInterface",
      "outputs": [
        {
          "internalType": "bool",
          "name": "",
          "type": "bool"
        }
      ],
      "stateMutability": "view",
      "type": "function"
    },
    {
      "inputs": [],
      "name": "symbol",
      "outputs": [
        {
          "internalType": "string",
          "name": "",
          "type": "string"
        }
      ],
      "stateMutability": "view",
      "type": "function"
    },
    {
      "inputs": [
        {
          "internalType": "uint256",
          "name": "index",
          "type": "uint256"
        }
      ],
      "name": "tokenByIndex",
      "outputs": [
        {
          "internalType": "uint256",
          "name": "",
          "type": "uint256"
        }
      ],
      "stateMutability": "view",
      "type": "function"
    },
    {
      "inputs": [
        {
          "internalType": "address",
          "name": "owner",
          "type": "address"
        },
        {
          "internalType": "uint256",
          "name": "index",
          "type": "uint256"
        }
      ],
      "name": "tokenOfOwnerByIndex",
      "outputs": [
        {
          "internalType": "uint256",
          "name": "",
          "type": "uint256"
        }
      ],
      "stateMutability": "view",
      "type": "function"
    },
    {
      "inputs": [
        {
          "internalType": "uint256",
          "name": "tokenId",
          "type": "uint256"
        }
      ],
      "name": "tokenURI",
      "outputs": [
        {
          "internalType": "string",
          "name": "",
          "type": "string"
        }
      ],
      "stateMutability": "view",
      "type": "function"
    },
    {
      "inputs": [],
      "name": "totalSupply",
      "outputs": [
        {
          "internalType": "uint256",
          "name": "",
          "type": "uint256"
        }
      ],
      "stateMutability": "view",
      "type": "function"
    },
    {
      "inputs": [
        {
          "internalType": "address",
          "name": "from",
          "type": "address"
        },
        {
          "internalType": "address",
          "name": "to",
          "type": "address"
        },
        {
          "internalType": "uint256",
          "name": "tokenId",
          "type": "uint256"
        }
      ],
      "name": "transferFrom",
      "outputs": [],
      "stateMutability": "nonpayable",
      "type": "function"
    }
  ],
  "bytecode": "0x60806040523480156200001157600080fd5b506040518060400160405280600481526020016315195cdd60e21b815250604051806040016040528060038152602001621514d560ea1b81525081600090816200005c919062000119565b5060016200006b828262000119565b505050620001e5565b634e487b7160e01b600052604160045260246000fd5b600181811c908216806200009f57607f821691505b602082108103620000c057634e487b7160e01b600052602260045260246000fd5b50919050565b601f8211156200011457600081815260208120601f850160051c81016020861015620000ef5750805b601f850160051c820191505b818110156200011057828155600101620000fb565b5050505b505050565b81516001600160401b0381111562000135576200013562000074565b6200014d816200014684546200008a565b84620000c6565b602080601f8311600181146200018557600084156200016c5750858301515b600019600386901b1c1916600185901b17855562000110565b600085815260208120601f198616915b82811015620001b65788860151825594840194600190910190840162000195565b5085821015620001d55787850151600019600388901b60f8161c191681555b5050505050600190811b01905550565b61191d80620001f56000396000f3fe608060405234801561001057600080fd5b506004361061011b5760003560e01c806342842e0e116100b257806395d89b4111610081578063b88d4fde11610066578063b88d4fde1461024f578063c87b56dd14610262578063e985e9c51461027557600080fd5b806395d89b4114610234578063a22cb4651461023c57600080fd5b806342842e0e146101e85780634f6ccce7146101fb5780636352211e1461020e57806370a082311461022157600080fd5b806318160ddd116100ee57806318160ddd1461019d57806323b872dd146101af5780632f745c59146101c257806340c10f19146101d557600080fd5b806301ffc9a71461012057806306fdde0314610148578063081812fc1461015d578063095ea7b314610188575b600080fd5b61013361012e3660046114f8565b6102b1565b60405190151581526020015b60405180910390f35b6101506102dc565b60405161013f9190611565565b61017061016b366004611578565b61036e565b6040516001600160a01b03909116815260200161013f565b61019b6101963660046115ad565b610408565b005b6008545b60405190815260200161013f565b61019b6101bd3660046115d7565b61051d565b6101a16101d03660046115ad565b6105a4565b6101336101e33660046115ad565b61064c565b61019b6101f63660046115d7565b610661565b6101a1610209366004611578565b61067c565b61017061021c366004611578565b610720565b6101a161022f366004611613565b6107ab565b610150610845565b61019b61024a36600461162e565b610854565b61019b61025d366004611680565b610863565b610150610270366004611578565b6108f1565b61013361028336600461175c565b6001600160a01b03918216600090815260056020908152604080832093909416825291909152205460ff1690565b60006001600160e01b0319821663780e9d6360e01b14806102d657506102d6826109e7565b92915050565b6060600080546102eb9061178f565b80601f01602080910402602001604051908101604052809291908181526020018280546103179061178f565b80156103645780601f1061033957610100808354040283529160200191610364565b820191906000526020600020905b81548152906001019060200180831161034757829003601f168201915b5050505050905090565b6000818152600260205260408120546001600160a01b03166103ec5760405162461bcd60e51b815260206004820152602c60248201527f4552433732313a20617070726f76656420717565727920666f72206e6f6e657860448201526b34b9ba32b73a103a37b5b2b760a11b60648201526084015b60405180910390fd5b506000908152600460205260409020546001600160a01b031690565b600061041382610720565b9050806001600160a01b0316836001600160a01b0316036104805760405162461bcd60e51b815260206004820152602160248201527f4552433732313a20617070726f76616c20746f2063757272656e74206f776e656044820152603960f91b60648201526084016103e3565b336001600160a01b038216148061049c575061049c8133610283565b61050e5760405162461bcd60e51b815260206004820152603860248201527f4552433732313a20617070726f76652063616c6c6572206973206e6f74206f7760448201527f6e6572206e6f7220617070726f76656420666f7220616c6c000000000000000060648201526084016103e3565b6105188383610a37565b505050565b6105273382610ab2565b6105995760405162461bcd60e51b815260206004820152603160248201527f4552433732313a207472616e736665722063616c6c6572206973206e6f74206f60448201527f776e6572206e6f7220617070726f76656400000000000000000000000000000060648201526084016103e3565b610518838383610ba9565b60006105af836107ab565b82106106235760405162461bcd60e51b815260206004820152602b60248201527f455243373231456e756d657261626c653a206f776e657220696e646578206f7560448201527f74206f6620626f756e647300000000000000000000000000000000000000000060648201526084016103e3565b506001600160a01b03919091166000908152600660209081526040808320938352929052205490565b60006106588383610d75565b50600192915050565b61051883838360405180602001604052806000815250610863565b600061068760085490565b82106106fb5760405162461bcd60e51b815260206004820152602c60248201527f455243373231456e756d657261626c653a20676c6f62616c20696e646578206f60448201527f7574206f6620626f756e6473000000000000000000000000000000000000000060648201526084016103e3565b6008828154811061070e5761070e6117c9565b90600052602060002001549050919050565b6000818152600260205260408120546001600160a01b0316806102d65760405162461bcd60e51b815260206004820152602960248201527f4552433732313a206f776e657220717565727920666f72206e6f6e657869737460448201527f656e7420746f6b656e000000000000000000000000000000000000000000000060648201526084016103e3565b60006001600160a01b0382166108295760405162461bcd60e51b815260206004820152602a60248201527f4552433732313a2062616c616e636520717565727920666f7220746865207a6560448201527f726f20616464726573730000000000000000000000000000000000000000000060648201526084016103e3565b506001600160a01b031660009081526003602052604090205490565b6060600180546102eb9061178f565b61085f338383610ed0565b5050565b61086d3383610ab2565b6108df5760405162461bcd60e51b815260206004820152603160248201527f4552433732313a207472616e736665722063616c6c6572206973206e6f74206f60448201527f776e6572206e6f7220617070726f76656400000000000000000000000000000060648201526084016103e3565b6108eb84848484610f9e565b50505050565b6000818152600260205260409020546060906001600160a01b031661097e5760405162461bcd60e51b815260206004820152602f60248201527f4552433732314d657461646174613a2055524920717565727920666f72206e6f60448201527f6e6578697374656e7420746f6b656e000000000000000000000000000000000060648201526084016103e3565b600061099560408051602081019091526000815290565b905060008151116109b557604051806020016040528060008152506109e0565b806109bf84611027565b6040516020016109d09291906117df565b6040516020818303038152906040525b9392505050565b60006001600160e01b031982166380ac58cd60e01b1480610a1857506001600160e01b03198216635b5e139f60e01b145b806102d657506301ffc9a760e01b6001600160e01b03198316146102d6565b6000818152600460205260409020805473ffffffffffffffffffffffffffffffffffffffff19166001600160a01b0384169081179091558190610a7982610720565b6001600160a01b03167f8c5be1e5ebec7d5bd14f71427d1e84f3dd0314c0f7b2291e5b200ac8c7c3b92560405160405180910390a45050565b6000818152600260205260408120546001600160a01b0316610b2b5760405162461bcd60e51b815260206004820152602c60248201527f4552433732313a206f70657261746f7220717565727920666f72206e6f6e657860448201526b34b9ba32b73a103a37b5b2b760a11b60648201526084016103e3565b6000610b3683610720565b9050806001600160a01b0316846001600160a01b03161480610b715750836001600160a01b0316610b668461036e565b6001600160a01b0316145b80610ba157506001600160a01b0380821660009081526005602090815260408083209388168352929052205460ff165b949350505050565b826001600160a01b0316610bbc82610720565b6001600160a01b031614610c385760405162461bcd60e51b815260206004820152602960248201527f4552433732313a207472616e73666572206f6620746f6b656e2074686174206960448201527f73206e6f74206f776e000000000000000000000000000000000000000000000060648201526084016103e3565b6001600160a01b038216610c9a5760405162461bcd60e51b8152602060048201526024808201527f4552433732313a207472616e7366657220746f20746865207a65726f206164646044820152637265737360e01b60648201526084016103e3565b610ca5838383611140565b610cb0600082610a37565b6001600160a01b0383166000908152600360205260408120805460019290610cd9908490611824565b90915550506001600160a01b0382166000908152600360205260408120805460019290610d07908490611837565b9091555050600081815260026020526040808220805473ffffffffffffffffffffffffffffffffffffffff19166001600160a01b0386811691821790925591518493918716917fddf252ad1be2c89b69c2b068fc378daa952ba7f163c4a11628f55a4df523b3ef91a4505050565b6001600160a01b038216610dcb5760405162461bcd60e51b815260206004820181905260248201527f4552433732313a206d696e7420746f20746865207a65726f206164647265737360448201526064016103e3565b6000818152600260205260409020546001600160a01b031615610e305760405162461bcd60e51b815260206004820152601c60248201527f4552433732313a20746f6b656e20616c7265616479206d696e7465640000000060448201526064016103e3565b610e3c60008383611140565b6001600160a01b0382166000908152600360205260408120805460019290610e65908490611837565b9091555050600081815260026020526040808220805473ffffffffffffffffffffffffffffffffffffffff19166001600160a01b03861690811790915590518392907fddf252ad1be2c89b69c2b068fc378daa952ba7f163c4a11628f55a4df523b3ef908290a45050565b816001600160a01b0316836001600160a01b031603610f315760405162461bcd60e51b815260206004820152601960248201527f4552433732313a20617070726f766520746f2063616c6c65720000000000000060448201526064016103e3565b6001600160a01b03838116600081815260056020908152604080832094871680845294825291829020805460ff191686151590811790915591519182527f17307eab39ab6107e8899845ad3d59bd9653f200f220920489ca2b5937696c31910160405180910390a3505050565b610fa9848484610ba9565b610fb5848484846111f8565b6108eb5760405162461bcd60e51b815260206004820152603260248201527f4552433732313a207472616e7366657220746f206e6f6e20455243373231526560448201527f63656976657220696d706c656d656e746572000000000000000000000000000060648201526084016103e3565b60608160000361104e5750506040805180820190915260018152600360fc1b602082015290565b8160005b811561107857806110628161184a565b91506110719050600a83611879565b9150611052565b60008167ffffffffffffffff8111156110935761109361166a565b6040519080825280601f01601f1916602001820160405280156110bd576020820181803683370190505b5090505b8415610ba1576110d2600183611824565b91506110df600a8661188d565b6110ea906030611837565b60f81b8183815181106110ff576110ff6117c9565b60200101907effffffffffffffffffffffffffffffffffffffffffffffffffffffffffffff1916908160001a905350611139600a86611879565b94506110c1565b6001600160a01b03831661119b5761119681600880546000838152600960205260408120829055600182018355919091527ff3f7a9fe364faab93b216da50a3214154f22a0a2b415b23a84c8169e8b636ee30155565b6111be565b816001600160a01b0316836001600160a01b0316146111be576111be838261134f565b6001600160a01b0382166111d557610518816113ec565b826001600160a01b0316826001600160a01b03161461051857610518828261149b565b60006001600160a01b0384163b1561134457604051630a85bd0160e11b81526001600160a01b0385169063150b7a029061123c9033908990889088906004016118a1565b6020604051808303816000875af1925050508015611277575060408051601f3d908101601f19168201909252611274918101906118dd565b60015b61132a573d8080156112a5576040519150601f19603f3d011682016040523d82523d6000602084013e6112aa565b606091505b5080516000036113225760405162461bcd60e51b815260206004820152603260248201527f4552433732313a207472616e7366657220746f206e6f6e20455243373231526560448201527f63656976657220696d706c656d656e746572000000000000000000000000000060648201526084016103e3565b805181602001fd5b6001600160e01b031916630a85bd0160e11b149050610ba1565b506001949350505050565b6000600161135c846107ab565b6113669190611824565b6000838152600760205260409020549091508082146113b9576001600160a01b03841660009081526006602090815260408083208584528252808320548484528184208190558352600790915290208190555b5060009182526007602090815260408084208490556001600160a01b039094168352600681528383209183525290812055565b6008546000906113fe90600190611824565b60008381526009602052604081205460088054939450909284908110611426576114266117c9565b906000526020600020015490508060088381548110611447576114476117c9565b600091825260208083209091019290925582815260099091526040808220849055858252812055600880548061147f5761147f6118fa565b6001900381819060005260206000200160009055905550505050565b60006114a6836107ab565b6001600160a01b039093166000908152600660209081526040808320868452825280832085905593825260079052919091209190915550565b6001600160e01b0319811681146114f557600080fd5b50565b60006020828403121561150a57600080fd5b81356109e0816114df565b60005b83811015611530578181015183820152602001611518565b50506000910152565b60008151808452611551816020860160208601611515565b601f01601f19169290920160200192915050565b6020815260006109e06020830184611539565b60006020828403121561158a57600080fd5b5035919050565b80356001600160a01b03811681146115a857600080fd5b919050565b600080604083850312156115c057600080fd5b6115c983611591565b946020939093013593505050565b6000806000606084860312156115ec57600080fd5b6115f584611591565b925061160360208501611591565b9150604084013590509250925092565b60006020828403121561162557600080fd5b6109e082611591565b6000806040838503121561164157600080fd5b61164a83611591565b91506020830135801515811461165f57600080fd5b809150509250929050565b634e487b7160e01b600052604160045260246000fd5b6000806000806080858703121561169657600080fd5b61169f85611591565b93506116ad60208601611591565b925060408501359150606085013567ffffffffffffffff808211156116d157600080fd5b818701915087601f8301126116e557600080fd5b8135818111156116f7576116f761166a565b604051601f8201601f19908116603f0116810190838211818310171561171f5761171f61166a565b816040528281528a602084870101111561173857600080fd5b82602086016020830137600060208483010152809550505050505092959194509250565b6000806040838503121561176f57600080fd5b61177883611591565b915061178660208401611591565b90509250929050565b600181811c908216806117a357607f821691505b6020821081036117c357634e487b7160e01b600052602260045260246000fd5b50919050565b634e487b7160e01b600052603260045260246000fd5b600083516117f1818460208801611515565b835190830190611805818360208801611515565b01949350505050565b634e487b7160e01b600052601160045260246000fd5b818103818111156102d6576102d661180e565b808201808211156102d6576102d661180e565b60006001820161185c5761185c61180e565b5060010190565b634e487b7160e01b600052601260045260246000fd5b60008261188857611888611863565b500490565b60008261189c5761189c611863565b500690565b60006001600160a01b038087168352808616602084015250836040830152608060608301526118d36080830184611539565b9695505050505050565b6000602082840312156118ef57600080fd5b81516109e0816114df565b634e487b7160e01b600052603160045260246000fdfea164736f6c6343000811000a",
  "linkReferences": {},
  "deployedLinkReferences": {}
}