{
  "_format": "hh-sol-artifact-1",
  "contractName": "TestExchange",
  "sourceName": "contracts/test/TestExchange.sol",
  "abi": [
    {
      "anonymous": false,
      "inputs": [
        {
          "indexed": false,
          "internalType": "address",
          "name": "previousAdmin",
          "type": "address"
        },
        {
          "indexed": false,
          "internalType": "address",
          "name": "newAdmin",
          "type": "address"
        }
      ],
      "name": "AdminChanged",
      "type": "event"
    },
    {
      "anonymous": false,
      "inputs": [
        {
          "indexed": true,
          "internalType": "address",
          "name": "beacon",
          "type": "address"
        }
      ],
      "name": "BeaconUpgraded",
      "type": "event"
    },
    {
      "anonymous": false,
      "inputs": [],
      "name": "Closed",
      "type": "event"
    },
    {
      "anonymous": false,
      "inputs": [
        {
          "indexed": false,
          "internalType": "uint8",
          "name": "version",
          "type": "uint8"
        }
      ],
      "name": "Initialized",
      "type": "event"
    },
    {
      "anonymous": false,
      "inputs": [
        {
          "indexed": false,
          "internalType": "uint256",
          "name": "blockRange",
          "type": "uint256"
        }
      ],
      "name": "NewBlockRange",
      "type": "event"
    },
    {
      "anonymous": false,
      "inputs": [
        {
          "indexed": true,
          "internalType": "contract IExecutionDelegate",
          "name": "executionDelegate",
          "type": "address"
        }
      ],
      "name": "NewExecutionDelegate",
      "type": "event"
    },
    {
      "anonymous": false,
      "inputs": [
        {
          "indexed": true,
          "internalType": "address",
          "name": "oracle",
          "type": "address"
        }
      ],
      "name": "NewOracle",
      "type": "event"
    },
    {
      "anonymous": false,
      "inputs": [
        {
          "indexed": true,
          "internalType": "contract IPolicyManager",
          "name": "policyManager",
          "type": "address"
        }
      ],
      "name": "NewPolicyManager",
      "type": "event"
    },
    {
      "anonymous": false,
      "inputs": [
        {
          "indexed": true,
          "internalType": "address",
          "name": "trader",
          "type": "address"
        },
        {
          "indexed": false,
          "internalType": "uint256",
          "name": "newNonce",
          "type": "uint256"
        }
      ],
      "name": "NonceIncremented",
      "type": "event"
    },
    {
      "anonymous": false,
      "inputs": [],
      "name": "Opened",
      "type": "event"
    },
    {
      "anonymous": false,
      "inputs": [
        {
          "indexed": false,
          "internalType": "bytes32",
          "name": "hash",
          "type": "bytes32"
        }
      ],
      "name": "OrderCancelled",
      "type": "event"
    },
    {
      "anonymous": false,
      "inputs": [
        {
          "indexed": true,
          "internalType": "address",
          "name": "maker",
          "type": "address"
        },
        {
          "indexed": true,
          "internalType": "address",
          "name": "taker",
          "type": "address"
        },
        {
          "components": [
            {
              "internalType": "address",
              "name": "trader",
              "type": "address"
            },
            {
              "internalType": "enum Side",
              "name": "side",
              "type": "uint8"
            },
            {
              "internalType": "address",
              "name": "matchingPolicy",
              "type": "address"
            },
            {
              "internalType": "address",
              "name": "collection",
              "type": "address"
            },
            {
              "internalType": "uint256",
              "name": "tokenId",
              "type": "uint256"
            },
            {
              "internalType": "uint256",
              "name": "amount",
              "type": "uint256"
            },
            {
              "internalType": "address",
              "name": "paymentToken",
              "type": "address"
            },
            {
              "internalType": "uint256",
              "name": "price",
              "type": "uint256"
            },
            {
              "internalType": "uint256",
              "name": "listingTime",
              "type": "uint256"
            },
            {
              "internalType": "uint256",
              "name": "expirationTime",
              "type": "uint256"
            },
            {
              "components": [
                {
                  "internalType": "uint16",
                  "name": "rate",
                  "type": "uint16"
                },
                {
                  "internalType": "address payable",
                  "name": "recipient",
                  "type": "address"
                }
              ],
              "internalType": "struct Fee[]",
              "name": "fees",
              "type": "tuple[]"
            },
            {
              "internalType": "uint256",
              "name": "salt",
              "type": "uint256"
            },
            {
              "internalType": "bytes",
              "name": "extraParams",
              "type": "bytes"
            }
          ],
          "indexed": false,
          "internalType": "struct Order",
          "name": "sell",
          "type": "tuple"
        },
        {
          "indexed": false,
          "internalType": "bytes32",
          "name": "sellHash",
          "type": "bytes32"
        },
        {
          "components": [
            {
              "internalType": "address",
              "name": "trader",
              "type": "address"
            },
            {
              "internalType": "enum Side",
              "name": "side",
              "type": "uint8"
            },
            {
              "internalType": "address",
              "name": "matchingPolicy",
              "type": "address"
            },
            {
              "internalType": "address",
              "name": "collection",
              "type": "address"
            },
            {
              "internalType": "uint256",
              "name": "tokenId",
              "type": "uint256"
            },
            {
              "internalType": "uint256",
              "name": "amount",
              "type": "uint256"
            },
            {
              "internalType": "address",
              "name": "paymentToken",
              "type": "address"
            },
            {
              "internalType": "uint256",
              "name": "price",
              "type": "uint256"
            },
            {
              "internalType": "uint256",
              "name": "listingTime",
              "type": "uint256"
            },
            {
              "internalType": "uint256",
              "name": "expirationTime",
              "type": "uint256"
            },
            {
              "components": [
                {
                  "internalType": "uint16",
                  "name": "rate",
                  "type": "uint16"
                },
                {
                  "internalType": "address payable",
                  "name": "recipient",
                  "type": "address"
                }
              ],
              "internalType": "struct Fee[]",
              "name": "fees",
              "type": "tuple[]"
            },
            {
              "internalType": "uint256",
              "name": "salt",
              "type": "uint256"
            },
            {
              "internalType": "bytes",
              "name": "extraParams",
              "type": "bytes"
            }
          ],
          "indexed": false,
          "internalType": "struct Order",
          "name": "buy",
          "type": "tuple"
        },
        {
          "indexed": false,
          "internalType": "bytes32",
          "name": "buyHash",
          "type": "bytes32"
        }
      ],
      "name": "OrdersMatched",
      "type": "event"
    },
    {
      "anonymous": false,
      "inputs": [
        {
          "indexed": true,
          "internalType": "address",
          "name": "previousOwner",
          "type": "address"
        },
        {
          "indexed": true,
          "internalType": "address",
          "name": "newOwner",
          "type": "address"
        }
      ],
      "name": "OwnershipTransferred",
      "type": "event"
    },
    {
      "anonymous": false,
      "inputs": [
        {
          "indexed": true,
          "internalType": "address",
          "name": "implementation",
          "type": "address"
        }
      ],
      "name": "Upgraded",
      "type": "event"
    },
    {
      "inputs": [],
      "name": "FEE_TYPEHASH",
      "outputs": [
        {
          "internalType": "bytes32",
          "name": "",
          "type": "bytes32"
        }
      ],
      "stateMutability": "view",
      "type": "function"
    },
    {
      "inputs": [],
      "name": "INVERSE_BASIS_POINT",
      "outputs": [
        {
          "internalType": "uint256",
          "name": "",
          "type": "uint256"
        }
      ],
      "stateMutability": "view",
      "type": "function"
    },
    {
      "inputs": [],
      "name": "NAME",
      "outputs": [
        {
          "internalType": "string",
          "name": "",
          "type": "string"
        }
      ],
      "stateMutability": "view",
      "type": "function"
    },
    {
      "inputs": [],
      "name": "ORACLE_ORDER_TYPEHASH",
      "outputs": [
        {
          "internalType": "bytes32",
          "name": "",
          "type": "bytes32"
        }
      ],
      "stateMutability": "view",
      "type": "function"
    },
    {
      "inputs": [],
      "name": "ORDER_TYPEHASH",
      "outputs": [
        {
          "internalType": "bytes32",
          "name": "",
          "type": "bytes32"
        }
      ],
      "stateMutability": "view",
      "type": "function"
    },
    {
      "inputs": [],
      "name": "POOL",
      "outputs": [
        {
          "internalType": "address",
          "name": "",
          "type": "address"
        }
      ],
      "stateMutability": "view",
      "type": "function"
    },
    {
      "inputs": [],
      "name": "ROOT_TYPEHASH",
      "outputs": [
        {
          "internalType": "bytes32",
          "name": "",
          "type": "bytes32"
        }
      ],
      "stateMutability": "view",
      "type": "function"
    },
    {
      "inputs": [],
      "name": "VERSION",
      "outputs": [
        {
          "internalType": "string",
          "name": "",
          "type": "string"
        }
      ],
      "stateMutability": "view",
      "type": "function"
    },
    {
      "inputs": [],
      "name": "WETH",
      "outputs": [
        {
          "internalType": "address",
          "name": "",
          "type": "address"
        }
      ],
      "stateMutability": "view",
      "type": "function"
    },
    {
      "inputs": [
        {
          "components": [
            {
              "components": [
                {
                  "internalType": "address",
                  "name": "trader",
                  "type": "address"
                },
                {
                  "internalType": "enum Side",
                  "name": "side",
                  "type": "uint8"
                },
                {
                  "internalType": "address",
                  "name": "matchingPolicy",
                  "type": "address"
                },
                {
                  "internalType": "address",
                  "name": "collection",
                  "type": "address"
                },
                {
                  "internalType": "uint256",
                  "name": "tokenId",
                  "type": "uint256"
                },
                {
                  "internalType": "uint256",
                  "name": "amount",
                  "type": "uint256"
                },
                {
                  "internalType": "address",
                  "name": "paymentToken",
                  "type": "address"
                },
                {
                  "internalType": "uint256",
                  "name": "price",
                  "type": "uint256"
                },
                {
                  "internalType": "uint256",
                  "name": "listingTime",
                  "type": "uint256"
                },
                {
                  "internalType": "uint256",
                  "name": "expirationTime",
                  "type": "uint256"
                },
                {
                  "components": [
                    {
                      "internalType": "uint16",
                      "name": "rate",
                      "type": "uint16"
                    },
                    {
                      "internalType": "address payable",
                      "name": "recipient",
                      "type": "address"
                    }
                  ],
                  "internalType": "struct Fee[]",
                  "name": "fees",
                  "type": "tuple[]"
                },
                {
                  "internalType": "uint256",
                  "name": "salt",
                  "type": "uint256"
                },
                {
                  "internalType": "bytes",
                  "name": "extraParams",
                  "type": "bytes"
                }
              ],
              "internalType": "struct Order",
              "name": "order",
              "type": "tuple"
            },
            {
              "internalType": "uint8",
              "name": "v",
              "type": "uint8"
            },
            {
              "internalType": "bytes32",
              "name": "r",
              "type": "bytes32"
            },
            {
              "internalType": "bytes32",
              "name": "s",
              "type": "bytes32"
            },
            {
              "internalType": "bytes",
              "name": "extraSignature",
              "type": "bytes"
            },
            {
              "internalType": "enum SignatureVersion",
              "name": "signatureVersion",
              "type": "uint8"
            },
            {
              "internalType": "uint256",
              "name": "blockNumber",
              "type": "uint256"
            }
          ],
          "internalType": "struct Input",
          "name": "sell",
          "type": "tuple"
        },
        {
          "components": [
            {
              "components": [
                {
                  "internalType": "address",
                  "name": "trader",
                  "type": "address"
                },
                {
                  "internalType": "enum Side",
                  "name": "side",
                  "type": "uint8"
                },
                {
                  "internalType": "address",
                  "name": "matchingPolicy",
                  "type": "address"
                },
                {
                  "internalType": "address",
                  "name": "collection",
                  "type": "address"
                },
                {
                  "internalType": "uint256",
                  "name": "tokenId",
                  "type": "uint256"
                },
                {
                  "internalType": "uint256",
                  "name": "amount",
                  "type": "uint256"
                },
                {
                  "internalType": "address",
                  "name": "paymentToken",
                  "type": "address"
                },
                {
                  "internalType": "uint256",
                  "name": "price",
                  "type": "uint256"
                },
                {
                  "internalType": "uint256",
                  "name": "listingTime",
                  "type": "uint256"
                },
                {
                  "internalType": "uint256",
                  "name": "expirationTime",
                  "type": "uint256"
                },
                {
                  "components": [
                    {
                      "internalType": "uint16",
                      "name": "rate",
                      "type": "uint16"
                    },
                    {
                      "internalType": "address payable",
                      "name": "recipient",
                      "type": "address"
                    }
                  ],
                  "internalType": "struct Fee[]",
                  "name": "fees",
                  "type": "tuple[]"
                },
                {
                  "internalType": "uint256",
                  "name": "salt",
                  "type": "uint256"
                },
                {
                  "internalType": "bytes",
                  "name": "extraParams",
                  "type": "bytes"
                }
              ],
              "internalType": "struct Order",
              "name": "order",
              "type": "tuple"
            },
            {
              "internalType": "uint8",
              "name": "v",
              "type": "uint8"
            },
            {
              "internalType": "bytes32",
              "name": "r",
              "type": "bytes32"
            },
            {
              "internalType": "bytes32",
              "name": "s",
              "type": "bytes32"
            },
            {
              "internalType": "bytes",
              "name": "extraSignature",
              "type": "bytes"
            },
            {
              "internalType": "enum SignatureVersion",
              "name": "signatureVersion",
              "type": "uint8"
            },
            {
              "internalType": "uint256",
              "name": "blockNumber",
              "type": "uint256"
            }
          ],
          "internalType": "struct Input",
          "name": "buy",
          "type": "tuple"
        }
      ],
      "name": "_execute",
      "outputs": [],
      "stateMutability": "payable",
      "type": "function"
    },
    {
      "inputs": [],
      "name": "blockRange",
      "outputs": [
        {
          "internalType": "uint256",
          "name": "",
          "type": "uint256"
        }
      ],
      "stateMutability": "view",
      "type": "function"
    },
    {
      "inputs": [
        {
          "components": [
            {
              "components": [
                {
                  "components": [
                    {
                      "internalType": "address",
                      "name": "trader",
                      "type": "address"
                    },
                    {
                      "internalType": "enum Side",
                      "name": "side",
                      "type": "uint8"
                    },
                    {
                      "internalType": "address",
                      "name": "matchingPolicy",
                      "type": "address"
                    },
                    {
                      "internalType": "address",
                      "name": "collection",
                      "type": "address"
                    },
                    {
                      "internalType": "uint256",
                      "name": "tokenId",
                      "type": "uint256"
                    },
                    {
                      "internalType": "uint256",
                      "name": "amount",
                      "type": "uint256"
                    },
                    {
                      "internalType": "address",
                      "name": "paymentToken",
                      "type": "address"
                    },
                    {
                      "internalType": "uint256",
                      "name": "price",
                      "type": "uint256"
                    },
                    {
                      "internalType": "uint256",
                      "name": "listingTime",
                      "type": "uint256"
                    },
                    {
                      "internalType": "uint256",
                      "name": "expirationTime",
                      "type": "uint256"
                    },
                    {
                      "components": [
                        {
                          "internalType": "uint16",
                          "name": "rate",
                          "type": "uint16"
                        },
                        {
                          "internalType": "address payable",
                          "name": "recipient",
                          "type": "address"
                        }
                      ],
                      "internalType": "struct Fee[]",
                      "name": "fees",
                      "type": "tuple[]"
                    },
                    {
                      "internalType": "uint256",
                      "name": "salt",
                      "type": "uint256"
                    },
                    {
                      "internalType": "bytes",
                      "name": "extraParams",
                      "type": "bytes"
                    }
                  ],
                  "internalType": "struct Order",
                  "name": "order",
                  "type": "tuple"
                },
                {
                  "internalType": "uint8",
                  "name": "v",
                  "type": "uint8"
                },
                {
                  "internalType": "bytes32",
                  "name": "r",
                  "type": "bytes32"
                },
                {
                  "internalType": "bytes32",
                  "name": "s",
                  "type": "bytes32"
                },
                {
                  "internalType": "bytes",
                  "name": "extraSignature",
                  "type": "bytes"
                },
                {
                  "internalType": "enum SignatureVersion",
                  "name": "signatureVersion",
                  "type": "uint8"
                },
                {
                  "internalType": "uint256",
                  "name": "blockNumber",
                  "type": "uint256"
                }
              ],
              "internalType": "struct Input",
              "name": "sell",
              "type": "tuple"
            },
            {
              "components": [
                {
                  "components": [
                    {
                      "internalType": "address",
                      "name": "trader",
                      "type": "address"
                    },
                    {
                      "internalType": "enum Side",
                      "name": "side",
                      "type": "uint8"
                    },
                    {
                      "internalType": "address",
                      "name": "matchingPolicy",
                      "type": "address"
                    },
                    {
                      "internalType": "address",
                      "name": "collection",
                      "type": "address"
                    },
                    {
                      "internalType": "uint256",
                      "name": "tokenId",
                      "type": "uint256"
                    },
                    {
                      "internalType": "uint256",
                      "name": "amount",
                      "type": "uint256"
                    },
                    {
                      "internalType": "address",
                      "name": "paymentToken",
                      "type": "address"
                    },
                    {
                      "internalType": "uint256",
                      "name": "price",
                      "type": "uint256"
                    },
                    {
                      "internalType": "uint256",
                      "name": "listingTime",
                      "type": "uint256"
                    },
                    {
                      "internalType": "uint256",
                      "name": "expirationTime",
                      "type": "uint256"
                    },
                    {
                      "components": [
                        {
                          "internalType": "uint16",
                          "name": "rate",
                          "type": "uint16"
                        },
                        {
                          "internalType": "address payable",
                          "name": "recipient",
                          "type": "address"
                        }
                      ],
                      "internalType": "struct Fee[]",
                      "name": "fees",
                      "type": "tuple[]"
                    },
                    {
                      "internalType": "uint256",
                      "name": "salt",
                      "type": "uint256"
                    },
                    {
                      "internalType": "bytes",
                      "name": "extraParams",
                      "type": "bytes"
                    }
                  ],
                  "internalType": "struct Order",
                  "name": "order",
                  "type": "tuple"
                },
                {
                  "internalType": "uint8",
                  "name": "v",
                  "type": "uint8"
                },
                {
                  "internalType": "bytes32",
                  "name": "r",
                  "type": "bytes32"
                },
                {
                  "internalType": "bytes32",
                  "name": "s",
                  "type": "bytes32"
                },
                {
                  "internalType": "bytes",
                  "name": "extraSignature",
                  "type": "bytes"
                },
                {
                  "internalType": "enum SignatureVersion",
                  "name": "signatureVersion",
                  "type": "uint8"
                },
                {
                  "internalType": "uint256",
                  "name": "blockNumber",
                  "type": "uint256"
                }
              ],
              "internalType": "struct Input",
              "name": "buy",
              "type": "tuple"
            }
          ],
          "internalType": "struct Execution[]",
          "name": "executions",
          "type": "tuple[]"
        }
      ],
      "name": "bulkExecute",
      "outputs": [],
      "stateMutability": "payable",
      "type": "function"
    },
    {
      "inputs": [
        {
          "components": [
            {
              "internalType": "address",
              "name": "trader",
              "type": "address"
            },
            {
              "internalType": "enum Side",
              "name": "side",
              "type": "uint8"
            },
            {
              "internalType": "address",
              "name": "matchingPolicy",
              "type": "address"
            },
            {
              "internalType": "address",
              "name": "collection",
              "type": "address"
            },
            {
              "internalType": "uint256",
              "name": "tokenId",
              "type": "uint256"
            },
            {
              "internalType": "uint256",
              "name": "amount",
              "type": "uint256"
            },
            {
              "internalType": "address",
              "name": "paymentToken",
              "type": "address"
            },
            {
              "internalType": "uint256",
              "name": "price",
              "type": "uint256"
            },
            {
              "internalType": "uint256",
              "name": "listingTime",
              "type": "uint256"
            },
            {
              "internalType": "uint256",
              "name": "expirationTime",
              "type": "uint256"
            },
            {
              "components": [
                {
                  "internalType": "uint16",
                  "name": "rate",
                  "type": "uint16"
                },
                {
                  "internalType": "address payable",
                  "name": "recipient",
                  "type": "address"
                }
              ],
              "internalType": "struct Fee[]",
              "name": "fees",
              "type": "tuple[]"
            },
            {
              "internalType": "uint256",
              "name": "salt",
              "type": "uint256"
            },
            {
              "internalType": "bytes",
              "name": "extraParams",
              "type": "bytes"
            }
          ],
          "internalType": "struct Order",
          "name": "sell",
          "type": "tuple"
        },
        {
          "components": [
            {
              "internalType": "address",
              "name": "trader",
              "type": "address"
            },
            {
              "internalType": "enum Side",
              "name": "side",
              "type": "uint8"
            },
            {
              "internalType": "address",
              "name": "matchingPolicy",
              "type": "address"
            },
            {
              "internalType": "address",
              "name": "collection",
              "type": "address"
            },
            {
              "internalType": "uint256",
              "name": "tokenId",
              "type": "uint256"
            },
            {
              "internalType": "uint256",
              "name": "amount",
              "type": "uint256"
            },
            {
              "internalType": "address",
              "name": "paymentToken",
              "type": "address"
            },
            {
              "internalType": "uint256",
              "name": "price",
              "type": "uint256"
            },
            {
              "internalType": "uint256",
              "name": "listingTime",
              "type": "uint256"
            },
            {
              "internalType": "uint256",
              "name": "expirationTime",
              "type": "uint256"
            },
            {
              "components": [
                {
                  "internalType": "uint16",
                  "name": "rate",
                  "type": "uint16"
                },
                {
                  "internalType": "address payable",
                  "name": "recipient",
                  "type": "address"
                }
              ],
              "internalType": "struct Fee[]",
              "name": "fees",
              "type": "tuple[]"
            },
            {
              "internalType": "uint256",
              "name": "salt",
              "type": "uint256"
            },
            {
              "internalType": "bytes",
              "name": "extraParams",
              "type": "bytes"
            }
          ],
          "internalType": "struct Order",
          "name": "buy",
          "type": "tuple"
        }
      ],
      "name": "canMatchOrders",
      "outputs": [
        {
          "internalType": "uint256",
          "name": "price",
          "type": "uint256"
        },
        {
          "internalType": "uint256",
          "name": "tokenId",
          "type": "uint256"
        },
        {
          "internalType": "uint256",
          "name": "amount",
          "type": "uint256"
        },
        {
          "internalType": "enum AssetType",
          "name": "assetType",
          "type": "uint8"
        }
      ],
      "stateMutability": "view",
      "type": "function"
    },
    {
      "inputs": [
        {
          "components": [
            {
              "internalType": "address",
              "name": "trader",
              "type": "address"
            },
            {
              "internalType": "enum Side",
              "name": "side",
              "type": "uint8"
            },
            {
              "internalType": "address",
              "name": "matchingPolicy",
              "type": "address"
            },
            {
              "internalType": "address",
              "name": "collection",
              "type": "address"
            },
            {
              "internalType": "uint256",
              "name": "tokenId",
              "type": "uint256"
            },
            {
              "internalType": "uint256",
              "name": "amount",
              "type": "uint256"
            },
            {
              "internalType": "address",
              "name": "paymentToken",
              "type": "address"
            },
            {
              "internalType": "uint256",
              "name": "price",
              "type": "uint256"
            },
            {
              "internalType": "uint256",
              "name": "listingTime",
              "type": "uint256"
            },
            {
              "internalType": "uint256",
              "name": "expirationTime",
              "type": "uint256"
            },
            {
              "components": [
                {
                  "internalType": "uint16",
                  "name": "rate",
                  "type": "uint16"
                },
                {
                  "internalType": "address payable",
                  "name": "recipient",
                  "type": "address"
                }
              ],
              "internalType": "struct Fee[]",
              "name": "fees",
              "type": "tuple[]"
            },
            {
              "internalType": "uint256",
              "name": "salt",
              "type": "uint256"
            },
            {
              "internalType": "bytes",
              "name": "extraParams",
              "type": "bytes"
            }
          ],
          "internalType": "struct Order",
          "name": "order",
          "type": "tuple"
        }
      ],
      "name": "cancelOrder",
      "outputs": [],
      "stateMutability": "nonpayable",
      "type": "function"
    },
    {
      "inputs": [
        {
          "components": [
            {
              "internalType": "address",
              "name": "trader",
              "type": "address"
            },
            {
              "internalType": "enum Side",
              "name": "side",
              "type": "uint8"
            },
            {
              "internalType": "address",
              "name": "matchingPolicy",
              "type": "address"
            },
            {
              "internalType": "address",
              "name": "collection",
              "type": "address"
            },
            {
              "internalType": "uint256",
              "name": "tokenId",
              "type": "uint256"
            },
            {
              "internalType": "uint256",
              "name": "amount",
              "type": "uint256"
            },
            {
              "internalType": "address",
              "name": "paymentToken",
              "type": "address"
            },
            {
              "internalType": "uint256",
              "name": "price",
              "type": "uint256"
            },
            {
              "internalType": "uint256",
              "name": "listingTime",
              "type": "uint256"
            },
            {
              "internalType": "uint256",
              "name": "expirationTime",
              "type": "uint256"
            },
            {
              "components": [
                {
                  "internalType": "uint16",
                  "name": "rate",
                  "type": "uint16"
                },
                {
                  "internalType": "address payable",
                  "name": "recipient",
                  "type": "address"
                }
              ],
              "internalType": "struct Fee[]",
              "name": "fees",
              "type": "tuple[]"
            },
            {
              "internalType": "uint256",
              "name": "salt",
              "type": "uint256"
            },
            {
              "internalType": "bytes",
              "name": "extraParams",
              "type": "bytes"
            }
          ],
          "internalType": "struct Order[]",
          "name": "orders",
          "type": "tuple[]"
        }
      ],
      "name": "cancelOrders",
      "outputs": [],
      "stateMutability": "nonpayable",
      "type": "function"
    },
    {
      "inputs": [
        {
          "internalType": "bytes32",
          "name": "",
          "type": "bytes32"
        }
      ],
      "name": "cancelledOrFilled",
      "outputs": [
        {
          "internalType": "bool",
          "name": "",
          "type": "bool"
        }
      ],
      "stateMutability": "view",
      "type": "function"
    },
    {
      "inputs": [],
      "name": "close",
      "outputs": [],
      "stateMutability": "nonpayable",
      "type": "function"
    },
    {
      "inputs": [
        {
          "components": [
            {
              "components": [
                {
                  "internalType": "address",
                  "name": "trader",
                  "type": "address"
                },
                {
                  "internalType": "enum Side",
                  "name": "side",
                  "type": "uint8"
                },
                {
                  "internalType": "address",
                  "name": "matchingPolicy",
                  "type": "address"
                },
                {
                  "internalType": "address",
                  "name": "collection",
                  "type": "address"
                },
                {
                  "internalType": "uint256",
                  "name": "tokenId",
                  "type": "uint256"
                },
                {
                  "internalType": "uint256",
                  "name": "amount",
                  "type": "uint256"
                },
                {
                  "internalType": "address",
                  "name": "paymentToken",
                  "type": "address"
                },
                {
                  "internalType": "uint256",
                  "name": "price",
                  "type": "uint256"
                },
                {
                  "internalType": "uint256",
                  "name": "listingTime",
                  "type": "uint256"
                },
                {
                  "internalType": "uint256",
                  "name": "expirationTime",
                  "type": "uint256"
                },
                {
                  "components": [
                    {
                      "internalType": "uint16",
                      "name": "rate",
                      "type": "uint16"
                    },
                    {
                      "internalType": "address payable",
                      "name": "recipient",
                      "type": "address"
                    }
                  ],
                  "internalType": "struct Fee[]",
                  "name": "fees",
                  "type": "tuple[]"
                },
                {
                  "internalType": "uint256",
                  "name": "salt",
                  "type": "uint256"
                },
                {
                  "internalType": "bytes",
                  "name": "extraParams",
                  "type": "bytes"
                }
              ],
              "internalType": "struct Order",
              "name": "order",
              "type": "tuple"
            },
            {
              "internalType": "uint8",
              "name": "v",
              "type": "uint8"
            },
            {
              "internalType": "bytes32",
              "name": "r",
              "type": "bytes32"
            },
            {
              "internalType": "bytes32",
              "name": "s",
              "type": "bytes32"
            },
            {
              "internalType": "bytes",
              "name": "extraSignature",
              "type": "bytes"
            },
            {
              "internalType": "enum SignatureVersion",
              "name": "signatureVersion",
              "type": "uint8"
            },
            {
              "internalType": "uint256",
              "name": "blockNumber",
              "type": "uint256"
            }
          ],
          "internalType": "struct Input",
          "name": "sell",
          "type": "tuple"
        },
        {
          "components": [
            {
              "components": [
                {
                  "internalType": "address",
                  "name": "trader",
                  "type": "address"
                },
                {
                  "internalType": "enum Side",
                  "name": "side",
                  "type": "uint8"
                },
                {
                  "internalType": "address",
                  "name": "matchingPolicy",
                  "type": "address"
                },
                {
                  "internalType": "address",
                  "name": "collection",
                  "type": "address"
                },
                {
                  "internalType": "uint256",
                  "name": "tokenId",
                  "type": "uint256"
                },
                {
                  "internalType": "uint256",
                  "name": "amount",
                  "type": "uint256"
                },
                {
                  "internalType": "address",
                  "name": "paymentToken",
                  "type": "address"
                },
                {
                  "internalType": "uint256",
                  "name": "price",
                  "type": "uint256"
                },
                {
                  "internalType": "uint256",
                  "name": "listingTime",
                  "type": "uint256"
                },
                {
                  "internalType": "uint256",
                  "name": "expirationTime",
                  "type": "uint256"
                },
                {
                  "components": [
                    {
                      "internalType": "uint16",
                      "name": "rate",
                      "type": "uint16"
                    },
                    {
                      "internalType": "address payable",
                      "name": "recipient",
                      "type": "address"
                    }
                  ],
                  "internalType": "struct Fee[]",
                  "name": "fees",
                  "type": "tuple[]"
                },
                {
                  "internalType": "uint256",
                  "name": "salt",
                  "type": "uint256"
                },
                {
                  "internalType": "bytes",
                  "name": "extraParams",
                  "type": "bytes"
                }
              ],
              "internalType": "struct Order",
              "name": "order",
              "type": "tuple"
            },
            {
              "internalType": "uint8",
              "name": "v",
              "type": "uint8"
            },
            {
              "internalType": "bytes32",
              "name": "r",
              "type": "bytes32"
            },
            {
              "internalType": "bytes32",
              "name": "s",
              "type": "bytes32"
            },
            {
              "internalType": "bytes",
              "name": "extraSignature",
              "type": "bytes"
            },
            {
              "internalType": "enum SignatureVersion",
              "name": "signatureVersion",
              "type": "uint8"
            },
            {
              "internalType": "uint256",
              "name": "blockNumber",
              "type": "uint256"
            }
          ],
          "internalType": "struct Input",
          "name": "buy",
          "type": "tuple"
        }
      ],
      "name": "execute",
      "outputs": [],
      "stateMutability": "payable",
      "type": "function"
    },
    {
      "inputs": [],
      "name": "executionDelegate",
      "outputs": [
        {
          "internalType": "contract IExecutionDelegate",
          "name": "",
          "type": "address"
        }
      ],
      "stateMutability": "view",
      "type": "function"
    },
    {
      "inputs": [],
      "name": "incrementNonce",
      "outputs": [],
      "stateMutability": "nonpayable",
      "type": "function"
    },
    {
      "inputs": [
        {
          "internalType": "contract IExecutionDelegate",
          "name": "_executionDelegate",
          "type": "address"
        },
        {
          "internalType": "contract IPolicyManager",
          "name": "_policyManager",
          "type": "address"
        },
        {
          "internalType": "address",
          "name": "_oracle",
          "type": "address"
        },
        {
          "internalType": "uint256",
          "name": "_blockRange",
          "type": "uint256"
        }
      ],
      "name": "initialize",
      "outputs": [],
      "stateMutability": "nonpayable",
      "type": "function"
    },
    {
      "inputs": [],
      "name": "isInternal",
      "outputs": [
        {
          "internalType": "bool",
          "name": "",
          "type": "bool"
        }
      ],
      "stateMutability": "view",
      "type": "function"
    },
    {
      "inputs": [],
      "name": "isOpen",
      "outputs": [
        {
          "internalType": "uint256",
          "name": "",
          "type": "uint256"
        }
      ],
      "stateMutability": "view",
      "type": "function"
    },
    {
      "inputs": [
        {
          "internalType": "address",
          "name": "",
          "type": "address"
        }
      ],
      "name": "nonces",
      "outputs": [
        {
          "internalType": "uint256",
          "name": "",
          "type": "uint256"
        }
      ],
      "stateMutability": "view",
      "type": "function"
    },
    {
      "inputs": [],
      "name": "open",
      "outputs": [],
      "stateMutability": "nonpayable",
      "type": "function"
    },
    {
      "inputs": [],
      "name": "oracle",
      "outputs": [
        {
          "internalType": "address",
          "name": "",
          "type": "address"
        }
      ],
      "stateMutability": "view",
      "type": "function"
    },
    {
      "inputs": [],
      "name": "owner",
      "outputs": [
        {
          "internalType": "address",
          "name": "",
          "type": "address"
        }
      ],
      "stateMutability": "view",
      "type": "function"
    },
    {
      "inputs": [],
      "name": "policyManager",
      "outputs": [
        {
          "internalType": "contract IPolicyManager",
          "name": "",
          "type": "address"
        }
      ],
      "stateMutability": "view",
      "type": "function"
    },
    {
      "inputs": [],
      "name": "proxiableUUID",
      "outputs": [
        {
          "internalType": "bytes32",
          "name": "",
          "type": "bytes32"
        }
      ],
      "stateMutability": "view",
      "type": "function"
    },
    {
      "inputs": [],
      "name": "remainingETH",
      "outputs": [
        {
          "internalType": "uint256",
          "name": "",
          "type": "uint256"
        }
      ],
      "stateMutability": "view",
      "type": "function"
    },
    {
      "inputs": [],
      "name": "renounceOwnership",
      "outputs": [],
      "stateMutability": "nonpayable",
      "type": "function"
    },
    {
      "inputs": [
        {
          "internalType": "uint256",
          "name": "_blockRange",
          "type": "uint256"
        }
      ],
      "name": "setBlockRange",
      "outputs": [],
      "stateMutability": "nonpayable",
      "type": "function"
    },
    {
      "inputs": [
        {
          "internalType": "contract IExecutionDelegate",
          "name": "_executionDelegate",
          "type": "address"
        }
      ],
      "name": "setExecutionDelegate",
      "outputs": [],
      "stateMutability": "nonpayable",
      "type": "function"
    },
    {
      "inputs": [
        {
          "internalType": "address",
          "name": "_oracle",
          "type": "address"
        }
      ],
      "name": "setOracle",
      "outputs": [],
      "stateMutability": "nonpayable",
      "type": "function"
    },
    {
      "inputs": [
        {
          "internalType": "contract IPolicyManager",
          "name": "_policyManager",
          "type": "address"
        }
      ],
      "name": "setPolicyManager",
      "outputs": [],
      "stateMutability": "nonpayable",
      "type": "function"
    },
    {
      "inputs": [
        {
          "internalType": "address",
          "name": "newOwner",
          "type": "address"
        }
      ],
      "name": "transferOwnership",
      "outputs": [],
      "stateMutability": "nonpayable",
      "type": "function"
    },
    {
      "inputs": [],
      "name": "updateDomainSeparator",
      "outputs": [],
      "stateMutability": "nonpayable",
      "type": "function"
    },
    {
      "inputs": [
        {
          "internalType": "address",
          "name": "newImplementation",
          "type": "address"
        }
      ],
      "name": "upgradeTo",
      "outputs": [],
      "stateMutability": "nonpayable",
      "type": "function"
    },
    {
      "inputs": [
        {
          "internalType": "address",
          "name": "newImplementation",
          "type": "address"
        },
        {
          "internalType": "bytes",
          "name": "data",
          "type": "bytes"
        }
      ],
      "name": "upgradeToAndCall",
      "outputs": [],
      "stateMutability": "payable",
      "type": "function"
    },
    {
      "inputs": [
        {
          "components": [
            {
              "internalType": "address",
              "name": "trader",
              "type": "address"
            },
            {
              "internalType": "enum Side",
              "name": "side",
              "type": "uint8"
            },
            {
              "internalType": "address",
              "name": "matchingPolicy",
              "type": "address"
            },
            {
              "internalType": "address",
              "name": "collection",
              "type": "address"
            },
            {
              "internalType": "uint256",
              "name": "tokenId",
              "type": "uint256"
            },
            {
              "internalType": "uint256",
              "name": "amount",
              "type": "uint256"
            },
            {
              "internalType": "address",
              "name": "paymentToken",
              "type": "address"
            },
            {
              "internalType": "uint256",
              "name": "price",
              "type": "uint256"
            },
            {
              "internalType": "uint256",
              "name": "listingTime",
              "type": "uint256"
            },
            {
              "internalType": "uint256",
              "name": "expirationTime",
              "type": "uint256"
            },
            {
              "components": [
                {
                  "internalType": "uint16",
                  "name": "rate",
                  "type": "uint16"
                },
                {
                  "internalType": "address payable",
                  "name": "recipient",
                  "type": "address"
                }
              ],
              "internalType": "struct Fee[]",
              "name": "fees",
              "type": "tuple[]"
            },
            {
              "internalType": "uint256",
              "name": "salt",
              "type": "uint256"
            },
            {
              "internalType": "bytes",
              "name": "extraParams",
              "type": "bytes"
            }
          ],
          "internalType": "struct Order",
          "name": "order",
          "type": "tuple"
        },
        {
          "internalType": "bytes32",
          "name": "hash",
          "type": "bytes32"
        }
      ],
      "name": "validateOrderParameters",
      "outputs": [
        {
          "internalType": "bool",
          "name": "",
          "type": "bool"
        }
      ],
      "stateMutability": "view",
      "type": "function"
    },
    {
      "inputs": [
        {
          "components": [
            {
              "components": [
                {
                  "internalType": "address",
                  "name": "trader",
                  "type": "address"
                },
                {
                  "internalType": "enum Side",
                  "name": "side",
                  "type": "uint8"
                },
                {
                  "internalType": "address",
                  "name": "matchingPolicy",
                  "type": "address"
                },
                {
                  "internalType": "address",
                  "name": "collection",
                  "type": "address"
                },
                {
                  "internalType": "uint256",
                  "name": "tokenId",
                  "type": "uint256"
                },
                {
                  "internalType": "uint256",
                  "name": "amount",
                  "type": "uint256"
                },
                {
                  "internalType": "address",
                  "name": "paymentToken",
                  "type": "address"
                },
                {
                  "internalType": "uint256",
                  "name": "price",
                  "type": "uint256"
                },
                {
                  "internalType": "uint256",
                  "name": "listingTime",
                  "type": "uint256"
                },
                {
                  "internalType": "uint256",
                  "name": "expirationTime",
                  "type": "uint256"
                },
                {
                  "components": [
                    {
                      "internalType": "uint16",
                      "name": "rate",
                      "type": "uint16"
                    },
                    {
                      "internalType": "address payable",
                      "name": "recipient",
                      "type": "address"
                    }
                  ],
                  "internalType": "struct Fee[]",
                  "name": "fees",
                  "type": "tuple[]"
                },
                {
                  "internalType": "uint256",
                  "name": "salt",
                  "type": "uint256"
                },
                {
                  "internalType": "bytes",
                  "name": "extraParams",
                  "type": "bytes"
                }
              ],
              "internalType": "struct Order",
              "name": "order",
              "type": "tuple"
            },
            {
              "internalType": "uint8",
              "name": "v",
              "type": "uint8"
            },
            {
              "internalType": "bytes32",
              "name": "r",
              "type": "bytes32"
            },
            {
              "internalType": "bytes32",
              "name": "s",
              "type": "bytes32"
            },
            {
              "internalType": "bytes",
              "name": "extraSignature",
              "type": "bytes"
            },
            {
              "internalType": "enum SignatureVersion",
              "name": "signatureVersion",
              "type": "uint8"
            },
            {
              "internalType": "uint256",
              "name": "blockNumber",
              "type": "uint256"
            }
          ],
          "internalType": "struct Input",
          "name": "order",
          "type": "tuple"
        },
        {
          "internalType": "bytes32",
          "name": "orderHash",
          "type": "bytes32"
        }
      ],
      "name": "validateSignatures",
      "outputs": [
        {
          "internalType": "bool",
          "name": "",
          "type": "bool"
        }
      ],
      "stateMutability": "view",
      "type": "function"
    }
  ],
  "bytecode": "0x60a06040526000805460ff1990811682553060805261012f80549091169055610130553480156200002f57600080fd5b506200003a62000040565b62000102565b605f54610100900460ff1615620000ad5760405162461bcd60e51b815260206004820152602760248201527f496e697469616c697a61626c653a20636f6e747261637420697320696e697469604482015266616c697a696e6760c81b606482015260840160405180910390fd5b605f5460ff90811610156200010057605f805460ff191660ff9081179091556040519081527f7f26b83ff96e1f2b6a682f133852f6798a09c465da95921460cefb38474024989060200160405180910390a15b565b608051613f686200013a600039600081816109000152818161098501528181610ab401528181610b390152610c230152613f686000f3fe6080604052600436106102c65760003560e01c80638da5cb5b11610179578063b3be57f8116100d6578063f2136f2f1161008a578063f973a20911610064578063f973a209146107d0578063fcfff16f14610804578063ffa1ad741461081957600080fd5b8063f2136f2f14610770578063f2fde38b14610790578063f4acd740146107b057600080fd5b8063cf756fdf116100bb578063cf756fdf1461071d578063d8953db11461073d578063e04d94ae1461075d57600080fd5b8063b3be57f8146106f4578063cae6047f1461070757600080fd5b8063a4b2c6741161012d578063ab7e8cba11610112578063ab7e8cba1461068c578063ad5c4648146106ac578063adde41e1146106d457600080fd5b8063a4b2c67414610654578063ab3dbf3b1461066b57600080fd5b80639a1fc3a71161015e5780639a1fc3a7146105d0578063a0c58146146105e3578063a3f4df7e1461061357600080fd5b80638da5cb5b14610591578063986c9b20146105af57600080fd5b806352d1902d116102275780637535d246116101db5780637dc0d1d0116101c05780637dc0d1d01461052d5780637ecebe001461054e57806389ccfe891461057c57600080fd5b80637535d246146104cd5780637adbf9731461050d57600080fd5b8063627cdcb91161020c578063627cdcb9146104835780636992aa3614610498578063715018a6146104b857600080fd5b806352d1902d1461043d5780635511f3191461045257600080fd5b80633659cfe61161027e57806347535d7b1161026357806347535d7b146103df5780634832ede1146103f65780634f1ef2861461042a57600080fd5b80633659cfe6146103aa57806343d726d6146103ca57600080fd5b80631d97c9bb116102af5780631d97c9bb1461031d5780632c7acf8c1461035f57806331e6d0fe1461037657600080fd5b8063037c9be2146102cb57806316e29d71146102ed575b600080fd5b3480156102d757600080fd5b506102eb6102e6366004613321565b610848565b005b3480156102f957600080fd5b5061012f546103089060ff1681565b60405190151581526020015b60405180910390f35b34801561032957600080fd5b506103517fd71080023d2f293ed0723dc287d6b2d4e7d27d0b6c12928e300721b7c78c748581565b604051908152602001610314565b34801561036b57600080fd5b506103516101305481565b34801561038257600080fd5b506103517f5bcf4b2eaff7fcdeb49f0bda53026b9ebdd93db566fe4c447125cb899e598c9081565b3480156103b657600080fd5b506102eb6103c5366004613321565b6108f6565b3480156103d657600080fd5b506102eb610a71565b3480156103eb57600080fd5b506103516101285481565b34801561040257600080fd5b506103517f05b43f730f67de334a342883f867101fc7ef3361dfdff4a29a7aa97e0920ef7a81565b6102eb610438366004613395565b610aaa565b34801561044957600080fd5b50610351610c16565b34801561045e57600080fd5b5061030861046d36600461343d565b61012d6020526000908152604090205460ff1681565b34801561048f57600080fd5b506102eb610cdb565b3480156104a457600080fd5b506102eb6104b336600461343d565b610d48565b3480156104c457600080fd5b506102eb610d8c565b3480156104d957600080fd5b506104f573f66cfdf074d2ffd6a4037be3a669ed04380aef2b81565b6040516001600160a01b039091168152602001610314565b34801561051957600080fd5b506102eb610528366004613321565b610da0565b34801561053957600080fd5b5061012b546104f5906001600160a01b031681565b34801561055a57600080fd5b50610351610569366004613321565b61012e6020526000908152604090205481565b34801561058857600080fd5b506102eb610e49565b34801561059d57600080fd5b506092546001600160a01b03166104f5565b3480156105bb57600080fd5b50610129546104f5906001600160a01b031681565b6102eb6105de36600461346e565b610ea9565b3480156105ef57600080fd5b506106036105fe3660046134e5565b610f1f565b6040516103149493929190613573565b34801561061f57600080fd5b506106476040518060400160405280600881526020016745786368616e676560c01b81525081565b60405161031491906135f0565b34801561066057600080fd5b5061035161012c5481565b34801561067757600080fd5b5061012a546104f5906001600160a01b031681565b34801561069857600080fd5b506102eb6106a736600461364f565b610f3f565b3480156106b857600080fd5b506104f573c02aaa39b223fe8d0a0e5c4f27ead9083c756cc281565b3480156106e057600080fd5b506102eb6106ef366004613321565b610f8e565b6102eb61070236600461364f565b611037565b34801561071357600080fd5b5061035161271081565b34801561072957600080fd5b506102eb610738366004613691565b611198565b34801561074957600080fd5b506103086107583660046136e2565b611366565b6102eb61076b36600461346e565b61137b565b34801561077c57600080fd5b5061030861078b366004613727565b61189f565b34801561079c57600080fd5b506102eb6107ab366004613321565b6118ab565b3480156107bc57600080fd5b506102eb6107cb36600461375d565b611938565b3480156107dc57600080fd5b506103517f376bfbc394a7ba7fdf10f224572cef371358e3053e362f4554fcd2ad56329b3f81565b34801561081057600080fd5b506102eb611a3e565b34801561082557600080fd5b50610647604051806040016040528060038152602001620312e360ec1b81525081565b610850611a77565b6001600160a01b0381166108ab5760405162461bcd60e51b815260206004820152601660248201527f416464726573732063616e6e6f74206265207a65726f0000000000000000000060448201526064015b60405180910390fd5b61012980546001600160a01b0319166001600160a01b0383169081179091556040517ff9a0f356a7ef079355de09d32ce45cc3cfabc8f118681c19a17501f005a376ac90600090a250565b6001600160a01b037f00000000000000000000000000000000000000000000000000000000000000001630036109835760405162461bcd60e51b815260206004820152602c60248201527f46756e6374696f6e206d7573742062652063616c6c6564207468726f7567682060448201526b19195b1959d85d1958d85b1b60a21b60648201526084016108a2565b7f00000000000000000000000000000000000000000000000000000000000000006001600160a01b03166109de7f360894a13ba1a3210667c828492db98dca3e2076cc3735a920a3ca505d382bbc546001600160a01b031690565b6001600160a01b031614610a495760405162461bcd60e51b815260206004820152602c60248201527f46756e6374696f6e206d7573742062652063616c6c6564207468726f7567682060448201526b6163746976652070726f787960a01b60648201526084016108a2565b610a5281611ad1565b60408051600080825260208201909252610a6e91839190611ad9565b50565b610a79611a77565b60006101288190556040517f1cdde67b72a90f19919ac732a437ac2f7a10fc128d28c2a6e525d89ce5cd9d3a9190a1565b6001600160a01b037f0000000000000000000000000000000000000000000000000000000000000000163003610b375760405162461bcd60e51b815260206004820152602c60248201527f46756e6374696f6e206d7573742062652063616c6c6564207468726f7567682060448201526b19195b1959d85d1958d85b1b60a21b60648201526084016108a2565b7f00000000000000000000000000000000000000000000000000000000000000006001600160a01b0316610b927f360894a13ba1a3210667c828492db98dca3e2076cc3735a920a3ca505d382bbc546001600160a01b031690565b6001600160a01b031614610bfd5760405162461bcd60e51b815260206004820152602c60248201527f46756e6374696f6e206d7573742062652063616c6c6564207468726f7567682060448201526b6163746976652070726f787960a01b60648201526084016108a2565b610c0682611ad1565b610c1282826001611ad9565b5050565b6000306001600160a01b037f00000000000000000000000000000000000000000000000000000000000000001614610cb65760405162461bcd60e51b815260206004820152603860248201527f555550535570677261646561626c653a206d757374206e6f742062652063616c60448201527f6c6564207468726f7567682064656c656761746563616c6c000000000000000060648201526084016108a2565b507f360894a13ba1a3210667c828492db98dca3e2076cc3735a920a3ca505d382bbc90565b33600090815261012e60205260408120805460019290610cfc9084906137b0565b909155505033600081815261012e60209081526040918290205491519182527fa82a649bbd060c9099cd7b7326e2b0dc9e9af0836480e0f849dc9eaa79710b3b910160405180910390a2565b610d50611a77565b61012c8190556040518181527f7706177c541ba1b858371bfc568aa77450b4713bbdbba62c730d4484ab6c12519060200160405180910390a150565b610d94611a77565b610d9e6000611c79565b565b610da8611a77565b6001600160a01b038116610dfe5760405162461bcd60e51b815260206004820152601660248201527f416464726573732063616e6e6f74206265207a65726f0000000000000000000060448201526064016108a2565b61012b80546001600160a01b0319166001600160a01b0383169081179091556040517fb3eacd0e351fafdfefdec84e1cd19679b38dbcd63ea7c2c24da17fd2bc3b3c0e90600090a250565b6040805160c0810182526008608082019081526745786368616e676560c01b60a083015281528151808301835260038152620312e360ec1b6020828101919091528201524691810191909152306060820152610ea490611ccb565b603255565b61012854600114610ee55760405162461bcd60e51b815260206004820152600660248201526510db1bdcd95960d21b60448201526064016108a2565b346101305561012f805460ff19166001179055610f02828261137b565b610f0a611d68565b505060006101305561012f805460ff19169055565b600080600080610f2f8686611d80565b9299919850965090945092505050565b60005b60ff8116821115610f8957610f7783838360ff16818110610f6557610f656137c3565b90506020028101906107cb91906137d9565b80610f81816137fa565b915050610f42565b505050565b610f96611a77565b6001600160a01b038116610fec5760405162461bcd60e51b815260206004820152601660248201527f416464726573732063616e6e6f74206265207a65726f0000000000000000000060448201526064016108a2565b61012a80546001600160a01b0319166001600160a01b0383169081179091556040517fdbe18f3fd927cc2aefe380ffd2abfdb8e13f0239c0258ccfc84c3d8fdd8c041890600090a250565b610128546001146110735760405162461bcd60e51b815260206004820152600660248201526510db1bdcd95960d21b60448201526064016108a2565b346101305561012f805460ff191660011790558060005b818160ff16101561117957610130546040516000919060208402870135870183600180870188149081146110ce57600187016020028a01358a0183900391506110d4565b82360391505b50637026ca5760e11b8352808284600401376000806004830185305af4945050505061113a6040518060400160405280601d81526020017f232564207478207769746820726573756c7420737461727420455448200000008152508460ff1684846120e6565b611164604051806060016040528060218152602001613f14602191398460ff1684610130546120e6565b50508080611171906137fa565b91505061108a565b50611182611d68565b50506000610130555061012f805460ff19169055565b605f54610100900460ff16158080156111b85750605f54600160ff909116105b806111d25750303b1580156111d25750605f5460ff166001145b6112445760405162461bcd60e51b815260206004820152602e60248201527f496e697469616c697a61626c653a20636f6e747261637420697320616c72656160448201527f647920696e697469616c697a656400000000000000000000000000000000000060648201526084016108a2565b605f805460ff19166001179055801561126757605f805461ff0019166101001790555b61126f61214a565b6001610128556040805160c0810182526008608082019081526745786368616e676560c01b60a083015281528151808301835260038152620312e360ec1b60208281019190915282015246918101919091523060608201526112d090611ccb565b60325561012980546001600160a01b038088166001600160a01b03199283161790925561012a805487841690831617905561012b80549286169290911691909117905561012c829055801561135f57605f805461ff0019169055604051600181527f7f26b83ff96e1f2b6a682f133852f6798a09c465da95921460cefb38474024989060200160405180910390a15b5050505050565b600061137283836121bd565b90505b92915050565b60005460ff16156113ce5760405162461bcd60e51b815260206004820152601360248201527f5265656e7472616e63792064657465637465640000000000000000000000000060448201526064016108a2565b6000805460ff1916600117905561012f5460ff166114545760405162461bcd60e51b815260206004820152602b60248201527f546869732066756e6374696f6e2073686f756c64206e6f742062652063616c6c60448201527f6564206469726563746c7900000000000000000000000000000000000000000060648201526084016108a2565b600161146083806137d9565b611471906040810190602001613831565b60018111156114825761148261353f565b1461148c57600080fd5b60006114de61149b84806137d9565b61012e60006114aa87806137d9565b6114b8906020810190613321565b6001600160a01b03166001600160a01b0316815260200190815260200160002054612378565b905060006114ef61149b84806137d9565b90506114fb84836121bd565b6115475760405162461bcd60e51b815260206004820152601960248201527f53656c6c206661696c656420617574686f72697a6174696f6e0000000000000060448201526064016108a2565b61155183826121bd565b61159d5760405162461bcd60e51b815260206004820152601860248201527f427579206661696c656420617574686f72697a6174696f6e000000000000000060448201526064016108a2565b6115b06115aa85806137d9565b836124b8565b6115fc5760405162461bcd60e51b815260206004820152601b60248201527f53656c6c2068617320696e76616c696420706172616d6574657273000000000060448201526064016108a2565b61160f61160984806137d9565b826124b8565b61165b5760405162461bcd60e51b815260206004820152601a60248201527f4275792068617320696e76616c696420706172616d657465727300000000000060448201526064016108a2565b600080808061167c61166d89806137d9565b61167789806137d9565b611d80565b60008a815261012d60205260408082208054600160ff1991821681179092558c84529190922080549091169091179055929650909450925090506117236116c389806137d9565b6116d1906020810190613321565b6116db89806137d9565b6116e9906020810190613321565b6116f38b806137d9565b6117049060e081019060c001613321565b61170e8c806137d9565b61171d9061014081019061384e565b89612512565b61177961173089806137d9565b611741906080810190606001613321565b61174b8a806137d9565b611759906020810190613321565b6117638a806137d9565b611771906020810190613321565b868686612585565b61178387806137d9565b610100013561179289806137d9565b6101000135116117b9576117a687806137d9565b6117b4906020810190613321565b6117d1565b6117c388806137d9565b6117d1906020810190613321565b6001600160a01b03166117e488806137d9565b61010001356117f38a806137d9565b6101000135111561181b5761180888806137d9565b611816906020810190613321565b611833565b61182589806137d9565b611833906020810190613321565b6001600160a01b03167f61cbb2a3dee0b6064c2e681aadd61677fb4ef319f0b547508d495626f5a62f646118678b806137d9565b896118728c806137d9565b8a6040516118839493929190613ae9565b60405180910390a350506000805460ff19169055505050505050565b600061137283836124b8565b6118b3611a77565b6001600160a01b03811661192f5760405162461bcd60e51b815260206004820152602660248201527f4f776e61626c653a206e6577206f776e657220697320746865207a65726f206160448201527f646472657373000000000000000000000000000000000000000000000000000060648201526084016108a2565b610a6e81611c79565b6119456020820182613321565b6001600160a01b0316336001600160a01b03161461196257600080fd5b60006119798261012e836114b86020840184613321565b600081815261012d602052604090205490915060ff16156119e65760405162461bcd60e51b815260206004820152602160248201527f4f7264657220616c72656164792063616e63656c6c6564206f722066696c6c656044820152601960fa1b60648201526084016108a2565b600081815261012d602052604090819020805460ff19166001179055517f5152abf959f6564662358c2e52b702259b78bac5ee7842a0f01937e670efcc7d90611a329083815260200190565b60405180910390a15050565b611a46611a77565b6001610128556040517fd1dcd00534373f20882b79e6ab6875a5c358c5bd576448757ed50e63069ab51890600090a1565b6092546001600160a01b03163314610d9e5760405162461bcd60e51b815260206004820181905260248201527f4f776e61626c653a2063616c6c6572206973206e6f7420746865206f776e657260448201526064016108a2565b610a6e611a77565b7f4910fdfa16fed3260ed0e7147f7cc6da11a60208b5b9406d12a635614ffd91435460ff1615611b0c57610f89836126ba565b826001600160a01b03166352d1902d6040518163ffffffff1660e01b8152600401602060405180830381865afa925050508015611b66575060408051601f3d908101601f19168201909252611b6391810190613b26565b60015b611bd85760405162461bcd60e51b815260206004820152602e60248201527f45524331393637557067726164653a206e657720696d706c656d656e7461746960448201527f6f6e206973206e6f74205555505300000000000000000000000000000000000060648201526084016108a2565b7f360894a13ba1a3210667c828492db98dca3e2076cc3735a920a3ca505d382bbc8114611c6d5760405162461bcd60e51b815260206004820152602960248201527f45524331393637557067726164653a20756e737570706f727465642070726f7860448201527f6961626c6555554944000000000000000000000000000000000000000000000060648201526084016108a2565b50610f89838383612778565b609280546001600160a01b038381166001600160a01b0319831681179093556040519116919082907f8be0079c531659141344cd1fd0a4f28419497f9722a3daafe3b4186f6b6457e090600090a35050565b60007f8b73c3c69bb8fe3d512ecc4cf759cc79239f7b179b0ffacaa9a75d522b39400f82600001518051906020012083602001518051906020012084604001518560600151604051602001611d4b9594939291909485526020850193909352604084019190915260608301526001600160a01b0316608082015260a00190565b604051602081830303815290604052805190602001209050919050565b610130548015610a6e5760008060008047335af15050565b600080600080600085610100013587610100013511611f165761012a546001600160a01b031663874516cd611dbb60608a0160408b01613321565b6040517fffffffff0000000000000000000000000000000000000000000000000000000060e084901b1681526001600160a01b039091166004820152602401602060405180830381865afa158015611e17573d6000803e3d6000fd5b505050506040513d601f19601f82011682018060405250810190611e3b9190613b4f565b611e875760405162461bcd60e51b815260206004820152601960248201527f506f6c696379206973206e6f742077686974656c69737465640000000000000060448201526064016108a2565b611e976060880160408901613321565b6001600160a01b031663d5ec8c7788886040518363ffffffff1660e01b8152600401611ec4929190613b6a565b60a060405180830381865afa158015611ee1573d6000803e3d6000fd5b505050506040513d601f19601f82011682018060405250810190611f059190613b8f565b92985090965094509250905061208f565b61012a546001600160a01b031663874516cd611f386060890160408a01613321565b6040517fffffffff0000000000000000000000000000000000000000000000000000000060e084901b1681526001600160a01b039091166004820152602401602060405180830381865afa158015611f94573d6000803e3d6000fd5b505050506040513d601f19601f82011682018060405250810190611fb89190613b4f565b6120045760405162461bcd60e51b815260206004820152601960248201527f506f6c696379206973206e6f742077686974656c69737465640000000000000060448201526064016108a2565b6120146060870160408801613321565b6001600160a01b0316630813a76687896040518363ffffffff1660e01b8152600401612041929190613b6a565b60a060405180830381865afa15801561205e573d6000803e3d6000fd5b505050506040513d601f19601f820116820180604052508101906120829190613b8f565b9298509096509450925090505b806120dc5760405162461bcd60e51b815260206004820152601860248201527f4f72646572732063616e6e6f74206265206d617463686564000000000000000060448201526064016108a2565b5092959194509250565b612144848484846040516024016121009493929190613be3565b60408051601f198184030181529190526020810180517bffffffffffffffffffffffffffffffffffffffffffffffffffffffff1663550e6ef560e01b17905261279d565b50505050565b605f54610100900460ff166121b55760405162461bcd60e51b815260206004820152602b60248201527f496e697469616c697a61626c653a20636f6e7472616374206973206e6f74206960448201526a6e697469616c697a696e6760a81b60648201526084016108a2565b610d9e6127be565b6000336121ca84806137d9565b6121d8906020810190613321565b6001600160a01b0316036121ee57506001611375565b612246826121fc85806137d9565b61220a906020810190613321565b61221a6040870160208801613c12565b6040870135606088013561223460c08a0160a08b01613831565b61224160808b018b613c35565b612832565b61225257506000611375565b600061225e84806137d9565b61226d90610180810190613c35565b90501180156122d4575061228183806137d9565b61229090610180810190613c35565b60008181106122a1576122a16137c3565b9050013560f81c60f81b7effffffffffffffffffffffffffffffffffffffffffffffffffffffffffffff1916600160f81b145b1561236f5761012c546122eb60c085013543613c7c565b106123385760405162461bcd60e51b815260206004820181905260248201527f5369676e656420626c6f636b206e756d626572206f7574206f662072616e676560448201526064016108a2565b6123638261234c60c0860160a08701613831565b6123596080870187613c35565b8760c0013561292d565b61236f57506000611375565b50600192915050565b60007f376bfbc394a7ba7fdf10f224572cef371358e3053e362f4554fcd2ad56329b3f6123a86020850185613321565b6123b86040860160208701613831565b6123c86060870160408801613321565b6123d86080880160608901613321565b608088013560a08901356123f260e08b0160c08c01613321565b8a60e001358b61010001358c610120013561241c8e806101400190612417919061384e565b6129c3565b8e61016001358f8061018001906124339190613c35565b604051612441929190613c8f565b6040519081900381206124639e9d9c9b9a999897969594939291602001613c9f565b60408051601f1981840301815282825260208301859052910160408051601f198184030181529082905261249a9291602001613d47565b60405160208183030381529060405280519060200120905092915050565b6000806124c86020850185613321565b6001600160a01b0316141580156124ef5750600082815261012d602052604090205460ff16155b80156124ff575042836101000135105b8015611372575050506101200135421090565b336001600160a01b03861614801561253157506001600160a01b038416155b1561255f578061013054101561254657600080fd5b8061013060008282546125599190613c7c565b90915550505b600061256e8484878986612a96565b905061257c85878984612bd7565b50505050505050565b60008160018111156125995761259961353f565b0361261a5761012954604051633c4fc9fb60e11b81526001600160a01b03888116600483015287811660248301528681166044830152606482018690529091169063789f93f690608401600060405180830381600087803b1580156125fd57600080fd5b505af1158015612611573d6000803e3d6000fd5b505050506126b2565b600181600181111561262e5761262e61353f565b036126b25761012954604051633a54a01760e11b81526001600160a01b038881166004830152878116602483015286811660448301526064820186905260848201859052909116906374a9402e9060a401600060405180830381600087803b15801561269957600080fd5b505af11580156126ad573d6000803e3d6000fd5b505050505b505050505050565b6001600160a01b0381163b6127375760405162461bcd60e51b815260206004820152602d60248201527f455243313936373a206e657720696d706c656d656e746174696f6e206973206e60448201527f6f74206120636f6e74726163740000000000000000000000000000000000000060648201526084016108a2565b7f360894a13ba1a3210667c828492db98dca3e2076cc3735a920a3ca505d382bbc80546001600160a01b0319166001600160a01b0392909216919091179055565b61278183612eff565b60008251118061278e5750805b15610f89576121448383612f3f565b80516a636f6e736f6c652e6c6f67602083016000808483855afa5050505050565b605f54610100900460ff166128295760405162461bcd60e51b815260206004820152602b60248201527f496e697469616c697a61626c653a20636f6e7472616374206973206e6f74206960448201526a6e697469616c697a696e6760a81b60648201526084016108a2565b610d9e33611c79565b600080808560018111156128485761284861353f565b0361285d576128568a613041565b9050612912565b60018560018111156128715761287161353f565b0361291257600061288484860186613d76565b9050600073__$82635e7900a17ae2732d334128a764b403$__639c7bf9388d846040518363ffffffff1660e01b81526004016128c1929190613e10565b602060405180830381865af41580156128de573d6000803e3d6000fd5b505050506040513d601f19601f820116820180604052508101906129029190613b26565b905061290d8161306c565b925050505b61291f89828a8a8a6130e3565b9a9950505050505050505050565b60008061293a87846131d4565b905060008080808960018111156129535761295361353f565b0361296d5750508535905060208601356040870135612999565b60018960018111156129815761298161353f565b03612999575050506020850135604086013560608701355b61012b546129b3906001600160a01b0316858585856130e3565b9450505050505b95945050505050565b6000808267ffffffffffffffff8111156129df576129df61334e565b604051908082528060200260200182016040528015612a08578160200160208202803683370190505b50905060005b83811015612a6557612a36858583818110612a2b57612a2b6137c3565b905060400201613252565b828281518110612a4857612a486137c3565b602090810291909101015280612a5d81613e5e565b915050612a0e565b5080604051602001612a779190613e77565b6040516020818303038152906040528051906020012091505092915050565b600080805b60ff8116871115612b4857600061271089898460ff16818110612ac057612ac06137c3565b612ad69260206040909202019081019150613ead565b612ae49061ffff1687613ec8565b612aee9190613edf565b9050612b2887878b8b8660ff16818110612b0a57612b0a6137c3565b9050604002016020016020810190612b229190613321565b84612bd7565b612b3281846137b0565b9250508080612b40906137fa565b915050612a9b565b5082811115612bbf5760405162461bcd60e51b815260206004820152602c60248201527f546f74616c20616d6f756e74206f66206665657320617265206d6f726520746860448201527f616e20746865207072696365000000000000000000000000000000000000000060648201526084016108a2565b6000612bcb8285613c7c565b98975050505050505050565b8015612144576001600160a01b038416612cea576001600160a01b038216612c415760405162461bcd60e51b815260206004820152601860248201527f5472616e7366657220746f207a65726f2061646472657373000000000000000060448201526064016108a2565b6000826001600160a01b03168260405160006040518083038185875af1925050503d8060008114612c8e576040519150601f19603f3d011682016040523d82523d6000602084013e612c93565b606091505b5050905080612ce45760405162461bcd60e51b815260206004820152601360248201527f455448207472616e73666572206661696c65640000000000000000000000000060448201526064016108a2565b50612144565b7fffffffffffffffffffffffff0993020f8b2d00295bfc841c599612fbc7f510d56001600160a01b03851601612df9576040516323b872dd60e01b81526001600160a01b038085166004830152831660248201526044810182905260009073f66cfdf074d2ffd6a4037be3a669ed04380aef2b906323b872dd906064016020604051808303816000875af1158015612d86573d6000803e3d6000fd5b505050506040513d601f19601f82011682018060405250810190612daa9190613b4f565b905080612ce45760405162461bcd60e51b815260206004820152601460248201527f506f6f6c207472616e73666572206661696c656400000000000000000000000060448201526064016108a2565b7fffffffffffffffffffffffff3fd555c64ddc0172f5f1a3b0d81526f7c38a933e6001600160a01b03851601612eb7576101295460405163368fa33960e21b815273c02aaa39b223fe8d0a0e5c4f27ead9083c756cc260048201526001600160a01b0385811660248301528481166044830152606482018490529091169063da3e8ce490608401600060405180830381600087803b158015612e9a57600080fd5b505af1158015612eae573d6000803e3d6000fd5b50505050612144565b60405162461bcd60e51b815260206004820152601560248201527f496e76616c6964207061796d656e7420746f6b656e000000000000000000000060448201526064016108a2565b612f08816126ba565b6040516001600160a01b038216907fbc7cd75a20ee27fd9adebab32041f755214dbc6bffa90cc0225b39da2e5c2d3b90600090a250565b60606001600160a01b0383163b612fbe5760405162461bcd60e51b815260206004820152602660248201527f416464726573733a2064656c65676174652063616c6c20746f206e6f6e2d636f60448201527f6e7472616374000000000000000000000000000000000000000000000000000060648201526084016108a2565b600080846001600160a01b031684604051612fd99190613f01565b600060405180830381855af49150503d8060008114613014576040519150601f19603f3d011682016040523d82523d6000602084013e613019565b606091505b50915091506129ba8282604051806060016040528060278152602001613f35602791396132c2565b60325460405161190160f01b6020820152602281019190915260428101829052600090606201611d4b565b603254604080517f5bcf4b2eaff7fcdeb49f0bda53026b9ebdd93db566fe4c447125cb899e598c9060208201529081018390526000919060600160405160208183030381529060405280519060200120604051602001611d4b92919061190160f01b81526002810192909252602282015260420190565b60008360ff16601b14806130fa57508360ff16601c145b6131465760405162461bcd60e51b815260206004820152601360248201527f496e76616c6964207620706172616d657465720000000000000000000000000060448201526064016108a2565b6040805160008082526020820180845288905260ff871692820192909252606081018590526080810184905260019060a0016020604051602081039080840390855afa15801561319a573d6000803e3d6000fd5b5050604051601f1901519150506001600160a01b0381166131bf5760009150506129ba565b6001600160a01b0387811691161490506129ba565b603254604080517fd71080023d2f293ed0723dc287d6b2d4e7d27d0b6c12928e300721b7c78c7485602082015290810184905260608101839052600091906080016040516020818303038152906040528051906020012060405160200161249a92919061190160f01b81526002810192909252602282015260420190565b60007f05b43f730f67de334a342883f867101fc7ef3361dfdff4a29a7aa97e0920ef7a6132826020840184613ead565b6132926040850160208601613321565b604051602001611d4b9392919092835261ffff9190911660208301526001600160a01b0316604082015260600190565b606083156132d15750816132db565b6132db83836132e2565b9392505050565b8151156132f25781518083602001fd5b8060405162461bcd60e51b81526004016108a291906135f0565b6001600160a01b0381168114610a6e57600080fd5b60006020828403121561333357600080fd5b81356132db8161330c565b80356133498161330c565b919050565b634e487b7160e01b600052604160045260246000fd5b604051601f8201601f1916810167ffffffffffffffff8111828210171561338d5761338d61334e565b604052919050565b600080604083850312156133a857600080fd5b82356133b38161330c565b915060208381013567ffffffffffffffff808211156133d157600080fd5b818601915086601f8301126133e557600080fd5b8135818111156133f7576133f761334e565b613409601f8201601f19168501613364565b9150808252878482850101111561341f57600080fd5b80848401858401376000848284010152508093505050509250929050565b60006020828403121561344f57600080fd5b5035919050565b600060e0828403121561346857600080fd5b50919050565b6000806040838503121561348157600080fd5b823567ffffffffffffffff8082111561349957600080fd5b6134a586838701613456565b935060208501359150808211156134bb57600080fd5b506134c885828601613456565b9150509250929050565b60006101a0828403121561346857600080fd5b600080604083850312156134f857600080fd5b823567ffffffffffffffff8082111561351057600080fd5b61351c868387016134d2565b9350602085013591508082111561353257600080fd5b506134c8858286016134d2565b634e487b7160e01b600052602160045260246000fd5b60028110610a6e57634e487b7160e01b600052602160045260246000fd5b84815260208101849052604081018390526080810161359183613555565b82606083015295945050505050565b60005b838110156135bb5781810151838201526020016135a3565b50506000910152565b600081518084526135dc8160208601602086016135a0565b601f01601f19169290920160200192915050565b60208152600061137260208301846135c4565b60008083601f84011261361557600080fd5b50813567ffffffffffffffff81111561362d57600080fd5b6020830191508360208260051b850101111561364857600080fd5b9250929050565b6000806020838503121561366257600080fd5b823567ffffffffffffffff81111561367957600080fd5b61368585828601613603565b90969095509350505050565b600080600080608085870312156136a757600080fd5b84356136b28161330c565b935060208501356136c28161330c565b925060408501356136d28161330c565b9396929550929360600135925050565b600080604083850312156136f557600080fd5b823567ffffffffffffffff81111561370c57600080fd5b61371885828601613456565b95602094909401359450505050565b6000806040838503121561373a57600080fd5b823567ffffffffffffffff81111561375157600080fd5b613718858286016134d2565b60006020828403121561376f57600080fd5b813567ffffffffffffffff81111561378657600080fd5b613792848285016134d2565b949350505050565b634e487b7160e01b600052601160045260246000fd5b808201808211156113755761137561379a565b634e487b7160e01b600052603260045260246000fd5b6000823561019e198336030181126137f057600080fd5b9190910192915050565b600060ff821660ff81036138105761381061379a565b60010192915050565b60028110610a6e57600080fd5b803561334981613819565b60006020828403121561384357600080fd5b81356132db81613819565b6000808335601e1984360301811261386557600080fd5b83018035915067ffffffffffffffff82111561388057600080fd5b6020019150600681901b360382131561364857600080fd5b6138a181613555565b9052565b6000808335601e198436030181126138bc57600080fd5b830160208101925035905067ffffffffffffffff8111156138dc57600080fd5b8060061b360382131561364857600080fd5b803561ffff8116811461334957600080fd5b8183526000602080850194508260005b858110156139545761ffff613924836138ee565b168752828201356139348161330c565b6001600160a01b0316878401526040968701969190910190600101613910565b509495945050505050565b6000808335601e1984360301811261397657600080fd5b830160208101925035905067ffffffffffffffff81111561399657600080fd5b80360382131561364857600080fd5b81835281816020850137506000828201602090810191909152601f909101601f19169091010190565b60006101a06139ed846139e08561333e565b6001600160a01b03169052565b6139f960208401613826565b613a066020860182613898565b50613a136040840161333e565b6001600160a01b03166040850152613a2d6060840161333e565b6001600160a01b0381166060860152506080830135608085015260a083013560a0850152613a5d60c0840161333e565b6001600160a01b031660c085015260e0838101359085015261010080840135908501526101208084013590850152610140613a9a818501856138a5565b8383880152613aac8488018284613900565b9350505050610160808401358186015250610180613acc8185018561395f565b86840383880152613ade8482846139a5565b979650505050505050565b608081526000613afc60808301876139ce565b8560208401528281036040840152613b1481866139ce565b91505082606083015295945050505050565b600060208284031215613b3857600080fd5b5051919050565b8051801515811461334957600080fd5b600060208284031215613b6157600080fd5b61137282613b3f565b604081526000613b7d60408301856139ce565b82810360208401526129ba81856139ce565b600080600080600060a08688031215613ba757600080fd5b613bb086613b3f565b94506020860151935060408601519250606086015191506080860151613bd581613819565b809150509295509295909350565b608081526000613bf660808301876135c4565b6020830195909552509115156040830152606090910152919050565b600060208284031215613c2457600080fd5b813560ff811681146132db57600080fd5b6000808335601e19843603018112613c4c57600080fd5b83018035915067ffffffffffffffff821115613c6757600080fd5b60200191503681900382131561364857600080fd5b818103818111156113755761137561379a565b8183823760009101908152919050565b8e81526001600160a01b038e1660208201526101c08101613cbf8e613555565b8d60408301526001600160a01b038d166060830152613ce9608083018d6001600160a01b03169052565b8a60a08301528960c0830152613d0a60e083018a6001600160a01b03169052565b8761010083015286610120830152856101408301528461016083015283610180830152826101a08301529f9e505050505050505050505050505050565b60008351613d598184602088016135a0565b835190830190613d6d8183602088016135a0565b01949350505050565b60006020808385031215613d8957600080fd5b823567ffffffffffffffff80821115613da157600080fd5b818501915085601f830112613db557600080fd5b813581811115613dc757613dc761334e565b8060051b9150613dd8848301613364565b8181529183018401918481019088841115613df257600080fd5b938501935b83851015612bcb57843582529385019390850190613df7565b6000604082018483526020604081850152818551808452606086019150828701935060005b81811015613e5157845183529383019391830191600101613e35565b5090979650505050505050565b600060018201613e7057613e7061379a565b5060010190565b815160009082906020808601845b83811015613ea157815185529382019390820190600101613e85565b50929695505050505050565b600060208284031215613ebf57600080fd5b611372826138ee565b80820281158282048414176113755761137561379a565b600082613efc57634e487b7160e01b600052601260045260246000fd5b500490565b600082516137f08184602087016135a056fe232564207478207769746820726573756c742072656d61696e696e672045544820416464726573733a206c6f772d6c6576656c2064656c65676174652063616c6c206661696c6564a164736f6c6343000811000a",
  "linkReferences": {
    "contracts/lib/MerkleVerifier.sol": {
      "MerkleVerifier": [
        {
          "length": 20,
          "start": 10692
        }
      ]
    }
  },
  "deployedLinkReferences": {
    "contracts/lib/MerkleVerifier.sol": {
      "MerkleVerifier": [
        {
          "length": 20,
          "start": 10378
        }
      ]
    }
  }
}