{
  "_format": "hh-sol-artifact-1",
  "contractName": "MerkleVerifier",
  "sourceName": "contracts/lib/MerkleVerifier.sol",
  "abi": [
    {
      "inputs": [],
      "name": "InvalidProof",
      "type": "error"
    },
    {
      "inputs": [
        {
          "internalType": "bytes32",
          "name": "leaf",
          "type": "bytes32"
        },
        {
          "internalType": "bytes32[]",
          "name": "proof",
          "type": "bytes32[]"
        }
      ],
      "name": "_computeRoot",
      "outputs": [
        {
          "internalType": "bytes32",
          "name": "",
          "type": "bytes32"
        }
      ],
      "stateMutability": "pure",
      "type": "function"
    },
    {
      "inputs": [
        {
          "internalType": "bytes32",
          "name": "leaf",
          "type": "bytes32"
        },
        {
          "internalType": "bytes32",
          "name": "root",
          "type": "bytes32"
        },
        {
          "internalType": "bytes32[]",
          "name": "proof",
          "type": "bytes32[]"
        }
      ],
      "name": "_verifyProof",
      "outputs": [],
      "stateMutability": "pure",
      "type": "function"
    }
  ],
  "bytecode": "0x6102cb61003a600b82828239805160001a60731461002d57634e487b7160e01b600052600060045260246000fd5b30600052607381538281f3fe73000000000000000000000000000000000000000030146080604052600436106100405760003560e01c806372aaadac146100455780639c7bf9381461005a575b600080fd5b6100586100533660046101ea565b61007f565b005b61006d61006836600461023a565b6100b3565b60405190815260200160405180910390f35b600061008b84836100b3565b90508281146100ad576040516309bde33960e01b815260040160405180910390fd5b50505050565b600082815b83518110156100ff5760008482815181106100d5576100d5610281565b602002602001015190506100e98382610107565b92505080806100f790610297565b9150506100b8565b509392505050565b6000818310610123576000828152602084905260409020610132565b60008381526020839052604090205b9392505050565b634e487b7160e01b600052604160045260246000fd5b600082601f83011261016057600080fd5b8135602067ffffffffffffffff8083111561017d5761017d610139565b8260051b604051601f19603f830116810181811084821117156101a2576101a2610139565b6040529384528581018301938381019250878511156101c057600080fd5b83870191505b848210156101df578135835291830191908301906101c6565b979650505050505050565b6000806000606084860312156101ff57600080fd5b8335925060208401359150604084013567ffffffffffffffff81111561022457600080fd5b6102308682870161014f565b9150509250925092565b6000806040838503121561024d57600080fd5b82359150602083013567ffffffffffffffff81111561026b57600080fd5b6102778582860161014f565b9150509250929050565b634e487b7160e01b600052603260045260246000fd5b6000600182016102b757634e487b7160e01b600052601160045260246000fd5b506001019056fea164736f6c6343000811000a",
  "linkReferences": {},
  "deployedLinkReferences": {}
}