{
  "_format": "hh-sol-artifact-1",
  "contractName": "Pool",
  "sourceName": "contracts/Pool.sol",
  "abi": [
    {
      "anonymous": false,
      "inputs": [
        {
          "indexed": false,
          "internalType": "address",
          "name": "previousAdmin",
          "type": "address"
        },
        {
          "indexed": false,
          "internalType": "address",
          "name": "newAdmin",
          "type": "address"
        }
      ],
      "name": "AdminChanged",
      "type": "event"
    },
    {
      "anonymous": false,
      "inputs": [
        {
          "indexed": true,
          "internalType": "address",
          "name": "beacon",
          "type": "address"
        }
      ],
      "name": "BeaconUpgraded",
      "type": "event"
    },
    {
      "anonymous": false,
      "inputs": [
        {
          "indexed": false,
          "internalType": "uint8",
          "name": "version",
          "type": "uint8"
        }
      ],
      "name": "Initialized",
      "type": "event"
    },
    {
      "anonymous": false,
      "inputs": [
        {
          "indexed": true,
          "internalType": "address",
          "name": "previousOwner",
          "type": "address"
        },
        {
          "indexed": true,
          "internalType": "address",
          "name": "newOwner",
          "type": "address"
        }
      ],
      "name": "OwnershipTransferred",
      "type": "event"
    },
    {
      "anonymous": false,
      "inputs": [
        {
          "indexed": true,
          "internalType": "address",
          "name": "from",
          "type": "address"
        },
        {
          "indexed": true,
          "internalType": "address",
          "name": "to",
          "type": "address"
        },
        {
          "indexed": false,
          "internalType": "uint256",
          "name": "amount",
          "type": "uint256"
        }
      ],
      "name": "Transfer",
      "type": "event"
    },
    {
      "anonymous": false,
      "inputs": [
        {
          "indexed": true,
          "internalType": "address",
          "name": "implementation",
          "type": "address"
        }
      ],
      "name": "Upgraded",
      "type": "event"
    },
    {
      "inputs": [
        {
          "internalType": "address",
          "name": "user",
          "type": "address"
        }
      ],
      "name": "balanceOf",
      "outputs": [
        {
          "internalType": "uint256",
          "name": "",
          "type": "uint256"
        }
      ],
      "stateMutability": "view",
      "type": "function"
    },
    {
      "inputs": [],
      "name": "deposit",
      "outputs": [],
      "stateMutability": "payable",
      "type": "function"
    },
    {
      "inputs": [],
      "name": "owner",
      "outputs": [
        {
          "internalType": "address",
          "name": "",
          "type": "address"
        }
      ],
      "stateMutability": "view",
      "type": "function"
    },
    {
      "inputs": [],
      "name": "proxiableUUID",
      "outputs": [
        {
          "internalType": "bytes32",
          "name": "",
          "type": "bytes32"
        }
      ],
      "stateMutability": "view",
      "type": "function"
    },
    {
      "inputs": [],
      "name": "renounceOwnership",
      "outputs": [],
      "stateMutability": "nonpayable",
      "type": "function"
    },
    {
      "inputs": [],
      "name": "totalSupply",
      "outputs": [
        {
          "internalType": "uint256",
          "name": "",
          "type": "uint256"
        }
      ],
      "stateMutability": "view",
      "type": "function"
    },
    {
      "inputs": [
        {
          "internalType": "address",
          "name": "from",
          "type": "address"
        },
        {
          "internalType": "address",
          "name": "to",
          "type": "address"
        },
        {
          "internalType": "uint256",
          "name": "amount",
          "type": "uint256"
        }
      ],
      "name": "transferFrom",
      "outputs": [
        {
          "internalType": "bool",
          "name": "",
          "type": "bool"
        }
      ],
      "stateMutability": "nonpayable",
      "type": "function"
    },
    {
      "inputs": [
        {
          "internalType": "address",
          "name": "newOwner",
          "type": "address"
        }
      ],
      "name": "transferOwnership",
      "outputs": [],
      "stateMutability": "nonpayable",
      "type": "function"
    },
    {
      "inputs": [
        {
          "internalType": "address",
          "name": "newImplementation",
          "type": "address"
        }
      ],
      "name": "upgradeTo",
      "outputs": [],
      "stateMutability": "nonpayable",
      "type": "function"
    },
    {
      "inputs": [
        {
          "internalType": "address",
          "name": "newImplementation",
          "type": "address"
        },
        {
          "internalType": "bytes",
          "name": "data",
          "type": "bytes"
        }
      ],
      "name": "upgradeToAndCall",
      "outputs": [],
      "stateMutability": "payable",
      "type": "function"
    },
    {
      "inputs": [
        {
          "internalType": "uint256",
          "name": "amount",
          "type": "uint256"
        }
      ],
      "name": "withdraw",
      "outputs": [],
      "stateMutability": "nonpayable",
      "type": "function"
    },
    {
      "stateMutability": "payable",
      "type": "receive"
    }
  ],
  "bytecode": "0x60a06040523060805234801561001457600080fd5b5060805161108061004c60003960008181610410015281816104950152818161058b0152818161061001526106fa01526110806000f3fe6080604052600436106100c05760003560e01c806352d1902d116100745780638da5cb5b1161004e5780638da5cb5b146101d9578063d0e30db014610201578063f2fde38b1461020957600080fd5b806352d1902d1461017957806370a082311461018e578063715018a6146101c457600080fd5b80632e1a7d4d116100a55780632e1a7d4d146101265780633659cfe6146101465780634f1ef2861461016657600080fd5b806318160ddd146100d457806323b872dd146100f657600080fd5b366100cf576100cd610229565b005b600080fd5b3480156100e057600080fd5b50475b6040519081526020015b60405180910390f35b34801561010257600080fd5b50610116610111366004610e3c565b610287565b60405190151581526020016100ed565b34801561013257600080fd5b506100cd610141366004610e78565b610335565b34801561015257600080fd5b506100cd610161366004610e91565b610406565b6100cd610174366004610ec2565b610581565b34801561018557600080fd5b506100e36106ed565b34801561019a57600080fd5b506100e36101a9366004610e91565b6001600160a01b0316600090815260c9602052604090205490565b3480156101d057600080fd5b506100cd6107b2565b3480156101e557600080fd5b506033546040516001600160a01b0390911681526020016100ed565b6100cd610229565b34801561021557600080fd5b506100cd610224366004610e91565b6107c6565b33600090815260c9602052604081208054349290610248908490610f9a565b909155505060405134815260009033907fddf252ad1be2c89b69c2b068fc378daa952ba7f163c4a11628f55a4df523b3ef9060200160405180910390a3565b60003373707531c9999aaef9232c8fefba31fba4cb78d84a148015906102c157503373707531c9999aaef9232c8fefba31fba4cb78d84a14155b1561031f5760405162461bcd60e51b8152602060048201526024808201527f43616c6c6572206973206e6f7420617574686f72697a656420746f207472616e60448201526339b332b960e11b60648201526084015b60405180910390fd5b61032a848484610853565b5060015b9392505050565b33600090815260c9602052604090205481111561035157600080fd5b33600090815260c9602052604081208054839290610370908490610fad565b9091555050604051600090339083908381818185875af1925050503d80600081146103b7576040519150601f19603f3d011682016040523d82523d6000602084013e6103bc565b606091505b50509050806103ca57600080fd5b60405182815233906000907fddf252ad1be2c89b69c2b068fc378daa952ba7f163c4a11628f55a4df523b3ef9060200160405180910390a35050565b6001600160a01b037f00000000000000000000000000000000000000000000000000000000000000001630036104935760405162461bcd60e51b815260206004820152602c60248201527f46756e6374696f6e206d7573742062652063616c6c6564207468726f7567682060448201526b19195b1959d85d1958d85b1b60a21b6064820152608401610316565b7f00000000000000000000000000000000000000000000000000000000000000006001600160a01b03166104ee7f360894a13ba1a3210667c828492db98dca3e2076cc3735a920a3ca505d382bbc546001600160a01b031690565b6001600160a01b0316146105595760405162461bcd60e51b815260206004820152602c60248201527f46756e6374696f6e206d7573742062652063616c6c6564207468726f7567682060448201526b6163746976652070726f787960a01b6064820152608401610316565b61056281610939565b6040805160008082526020820190925261057e91839190610941565b50565b6001600160a01b037f000000000000000000000000000000000000000000000000000000000000000016300361060e5760405162461bcd60e51b815260206004820152602c60248201527f46756e6374696f6e206d7573742062652063616c6c6564207468726f7567682060448201526b19195b1959d85d1958d85b1b60a21b6064820152608401610316565b7f00000000000000000000000000000000000000000000000000000000000000006001600160a01b03166106697f360894a13ba1a3210667c828492db98dca3e2076cc3735a920a3ca505d382bbc546001600160a01b031690565b6001600160a01b0316146106d45760405162461bcd60e51b815260206004820152602c60248201527f46756e6374696f6e206d7573742062652063616c6c6564207468726f7567682060448201526b6163746976652070726f787960a01b6064820152608401610316565b6106dd82610939565b6106e982826001610941565b5050565b6000306001600160a01b037f0000000000000000000000000000000000000000000000000000000000000000161461078d5760405162461bcd60e51b815260206004820152603860248201527f555550535570677261646561626c653a206d757374206e6f742062652063616c60448201527f6c6564207468726f7567682064656c656761746563616c6c00000000000000006064820152608401610316565b507f360894a13ba1a3210667c828492db98dca3e2076cc3735a920a3ca505d382bbc90565b6107ba610ae6565b6107c46000610b40565b565b6107ce610ae6565b6001600160a01b03811661084a5760405162461bcd60e51b815260206004820152602660248201527f4f776e61626c653a206e6577206f776e657220697320746865207a65726f206160448201527f64647265737300000000000000000000000000000000000000000000000000006064820152608401610316565b61057e81610b40565b6001600160a01b038316600090815260c9602052604090205481111561087857600080fd5b6001600160a01b03821661088b57600080fd5b6001600160a01b038316600090815260c96020526040812080548392906108b3908490610fad565b90915550506001600160a01b038216600090815260c96020526040812080548392906108e0908490610f9a565b92505081905550816001600160a01b0316836001600160a01b03167fddf252ad1be2c89b69c2b068fc378daa952ba7f163c4a11628f55a4df523b3ef8360405161092c91815260200190565b60405180910390a3505050565b61057e610ae6565b7f4910fdfa16fed3260ed0e7147f7cc6da11a60208b5b9406d12a635614ffd91435460ff16156109795761097483610b9f565b505050565b826001600160a01b03166352d1902d6040518163ffffffff1660e01b8152600401602060405180830381865afa9250505080156109d3575060408051601f3d908101601f191682019092526109d091810190610fc0565b60015b610a455760405162461bcd60e51b815260206004820152602e60248201527f45524331393637557067726164653a206e657720696d706c656d656e7461746960448201527f6f6e206973206e6f7420555550530000000000000000000000000000000000006064820152608401610316565b7f360894a13ba1a3210667c828492db98dca3e2076cc3735a920a3ca505d382bbc8114610ada5760405162461bcd60e51b815260206004820152602960248201527f45524331393637557067726164653a20756e737570706f727465642070726f7860448201527f6961626c655555494400000000000000000000000000000000000000000000006064820152608401610316565b50610974838383610c6a565b6033546001600160a01b031633146107c45760405162461bcd60e51b815260206004820181905260248201527f4f776e61626c653a2063616c6c6572206973206e6f7420746865206f776e65726044820152606401610316565b603380546001600160a01b0383811673ffffffffffffffffffffffffffffffffffffffff19831681179093556040519116919082907f8be0079c531659141344cd1fd0a4f28419497f9722a3daafe3b4186f6b6457e090600090a35050565b6001600160a01b0381163b610c1c5760405162461bcd60e51b815260206004820152602d60248201527f455243313936373a206e657720696d706c656d656e746174696f6e206973206e60448201527f6f74206120636f6e7472616374000000000000000000000000000000000000006064820152608401610316565b7f360894a13ba1a3210667c828492db98dca3e2076cc3735a920a3ca505d382bbc805473ffffffffffffffffffffffffffffffffffffffff19166001600160a01b0392909216919091179055565b610c7383610c95565b600082511180610c805750805b1561097457610c8f8383610cd5565b50505050565b610c9e81610b9f565b6040516001600160a01b038216907fbc7cd75a20ee27fd9adebab32041f755214dbc6bffa90cc0225b39da2e5c2d3b90600090a250565b60606001600160a01b0383163b610d545760405162461bcd60e51b815260206004820152602660248201527f416464726573733a2064656c65676174652063616c6c20746f206e6f6e2d636f60448201527f6e747261637400000000000000000000000000000000000000000000000000006064820152608401610316565b600080846001600160a01b031684604051610d6f9190610ffd565b600060405180830381855af49150503d8060008114610daa576040519150601f19603f3d011682016040523d82523d6000602084013e610daf565b606091505b5091509150610dd7828260405180606001604052806027815260200161104d60279139610de2565b925050505b92915050565b60608315610df157508161032e565b61032e8383815115610e065781518083602001fd5b8060405162461bcd60e51b81526004016103169190611019565b80356001600160a01b0381168114610e3757600080fd5b919050565b600080600060608486031215610e5157600080fd5b610e5a84610e20565b9250610e6860208501610e20565b9150604084013590509250925092565b600060208284031215610e8a57600080fd5b5035919050565b600060208284031215610ea357600080fd5b61032e82610e20565b634e487b7160e01b600052604160045260246000fd5b60008060408385031215610ed557600080fd5b610ede83610e20565b9150602083013567ffffffffffffffff80821115610efb57600080fd5b818501915085601f830112610f0f57600080fd5b813581811115610f2157610f21610eac565b604051601f8201601f19908116603f01168101908382118183101715610f4957610f49610eac565b81604052828152886020848701011115610f6257600080fd5b8260208601602083013760006020848301015280955050505050509250929050565b634e487b7160e01b600052601160045260246000fd5b80820180821115610ddc57610ddc610f84565b81810381811115610ddc57610ddc610f84565b600060208284031215610fd257600080fd5b5051919050565b60005b83811015610ff4578181015183820152602001610fdc565b50506000910152565b6000825161100f818460208701610fd9565b9190910192915050565b6020815260008251806020840152611038816040850160208701610fd9565b601f01601f1916919091016040019291505056fe416464726573733a206c6f772d6c6576656c2064656c65676174652063616c6c206661696c6564a164736f6c6343000811000a",
  "linkReferences": {},
  "deployedLinkReferences": {}
}