{
  "_format": "hh-sol-artifact-1",
  "contractName": "MockERC1155",
  "sourceName": "contracts/mocks/MockERC1155.sol",
  "abi": [
    {
      "anonymous": false,
      "inputs": [
        {
          "indexed": true,
          "internalType": "address",
          "name": "account",
          "type": "address"
        },
        {
          "indexed": true,
          "internalType": "address",
          "name": "operator",
          "type": "address"
        },
        {
          "indexed": false,
          "internalType": "bool",
          "name": "approved",
          "type": "bool"
        }
      ],
      "name": "ApprovalForAll",
      "type": "event"
    },
    {
      "anonymous": false,
      "inputs": [
        {
          "indexed": true,
          "internalType": "address",
          "name": "operator",
          "type": "address"
        },
        {
          "indexed": true,
          "internalType": "address",
          "name": "from",
          "type": "address"
        },
        {
          "indexed": true,
          "internalType": "address",
          "name": "to",
          "type": "address"
        },
        {
          "indexed": false,
          "internalType": "uint256[]",
          "name": "ids",
          "type": "uint256[]"
        },
        {
          "indexed": false,
          "internalType": "uint256[]",
          "name": "values",
          "type": "uint256[]"
        }
      ],
      "name": "TransferBatch",
      "type": "event"
    },
    {
      "anonymous": false,
      "inputs": [
        {
          "indexed": true,
          "internalType": "address",
          "name": "operator",
          "type": "address"
        },
        {
          "indexed": true,
          "internalType": "address",
          "name": "from",
          "type": "address"
        },
        {
          "indexed": true,
          "internalType": "address",
          "name": "to",
          "type": "address"
        },
        {
          "indexed": false,
          "internalType": "uint256",
          "name": "id",
          "type": "uint256"
        },
        {
          "indexed": false,
          "internalType": "uint256",
          "name": "value",
          "type": "uint256"
        }
      ],
      "name": "TransferSingle",
      "type": "event"
    },
    {
      "anonymous": false,
      "inputs": [
        {
          "indexed": false,
          "internalType": "string",
          "name": "value",
          "type": "string"
        },
        {
          "indexed": true,
          "internalType": "uint256",
          "name": "id",
          "type": "uint256"
        }
      ],
      "name": "URI",
      "type": "event"
    },
    {
      "inputs": [
        {
          "internalType": "address",
          "name": "account",
          "type": "address"
        },
        {
          "internalType": "uint256",
          "name": "id",
          "type": "uint256"
        }
      ],
      "name": "balanceOf",
      "outputs": [
        {
          "internalType": "uint256",
          "name": "",
          "type": "uint256"
        }
      ],
      "stateMutability": "view",
      "type": "function"
    },
    {
      "inputs": [
        {
          "internalType": "address[]",
          "name": "accounts",
          "type": "address[]"
        },
        {
          "internalType": "uint256[]",
          "name": "ids",
          "type": "uint256[]"
        }
      ],
      "name": "balanceOfBatch",
      "outputs": [
        {
          "internalType": "uint256[]",
          "name": "",
          "type": "uint256[]"
        }
      ],
      "stateMutability": "view",
      "type": "function"
    },
    {
      "inputs": [
        {
          "internalType": "address",
          "name": "account",
          "type": "address"
        },
        {
          "internalType": "address",
          "name": "operator",
          "type": "address"
        }
      ],
      "name": "isApprovedForAll",
      "outputs": [
        {
          "internalType": "bool",
          "name": "",
          "type": "bool"
        }
      ],
      "stateMutability": "view",
      "type": "function"
    },
    {
      "inputs": [
        {
          "internalType": "address",
          "name": "to",
          "type": "address"
        },
        {
          "internalType": "uint256",
          "name": "tokenId",
          "type": "uint256"
        },
        {
          "internalType": "uint256",
          "name": "amount",
          "type": "uint256"
        }
      ],
      "name": "mint",
      "outputs": [
        {
          "internalType": "bool",
          "name": "",
          "type": "bool"
        }
      ],
      "stateMutability": "nonpayable",
      "type": "function"
    },
    {
      "inputs": [
        {
          "internalType": "address",
          "name": "from",
          "type": "address"
        },
        {
          "internalType": "address",
          "name": "to",
          "type": "address"
        },
        {
          "internalType": "uint256[]",
          "name": "ids",
          "type": "uint256[]"
        },
        {
          "internalType": "uint256[]",
          "name": "amounts",
          "type": "uint256[]"
        },
        {
          "internalType": "bytes",
          "name": "data",
          "type": "bytes"
        }
      ],
      "name": "safeBatchTransferFrom",
      "outputs": [],
      "stateMutability": "nonpayable",
      "type": "function"
    },
    {
      "inputs": [
        {
          "internalType": "address",
          "name": "from",
          "type": "address"
        },
        {
          "internalType": "address",
          "name": "to",
          "type": "address"
        },
        {
          "internalType": "uint256",
          "name": "id",
          "type": "uint256"
        },
        {
          "internalType": "uint256",
          "name": "amount",
          "type": "uint256"
        },
        {
          "internalType": "bytes",
          "name": "data",
          "type": "bytes"
        }
      ],
      "name": "safeTransferFrom",
      "outputs": [],
      "stateMutability": "nonpayable",
      "type": "function"
    },
    {
      "inputs": [
        {
          "internalType": "address",
          "name": "operator",
          "type": "address"
        },
        {
          "internalType": "bool",
          "name": "approved",
          "type": "bool"
        }
      ],
      "name": "setApprovalForAll",
      "outputs": [],
      "stateMutability": "nonpayable",
      "type": "function"
    },
    {
      "inputs": [
        {
          "internalType": "bytes4",
          "name": "interfaceId",
          "type": "bytes4"
        }
      ],
      "name": "supportsInterface",
      "outputs": [
        {
          "internalType": "bool",
          "name": "",
          "type": "bool"
        }
      ],
      "stateMutability": "view",
      "type": "function"
    },
    {
      "inputs": [
        {
          "internalType": "uint256",
          "name": "",
          "type": "uint256"
        }
      ],
      "name": "uri",
      "outputs": [
        {
          "internalType": "string",
          "name": "",
          "type": "string"
        }
      ],
      "stateMutability": "view",
      "type": "function"
    }
  ],
  "bytecode": "0x60806040523480156200001157600080fd5b506040805160208101909152600081526200002c8162000033565b50620001b6565b6002620000418282620000ea565b5050565b634e487b7160e01b600052604160045260246000fd5b600181811c908216806200007057607f821691505b6020821081036200009157634e487b7160e01b600052602260045260246000fd5b50919050565b601f821115620000e557600081815260208120601f850160051c81016020861015620000c05750805b601f850160051c820191505b81811015620000e157828155600101620000cc565b5050505b505050565b81516001600160401b0381111562000106576200010662000045565b6200011e816200011784546200005b565b8462000097565b602080601f8311600181146200015657600084156200013d5750858301515b600019600386901b1c1916600185901b178555620000e1565b600085815260208120601f198616915b82811015620001875788860151825594840194600190910190840162000166565b5085821015620001a65787850151600019600388901b60f8161c191681555b5050505050600190811b01905550565b61163280620001c66000396000f3fe608060405234801561001057600080fd5b50600436106100a25760003560e01c80632eb2c2d611610076578063a22cb4651161005b578063a22cb46514610158578063e985e9c51461016b578063f242432a146101a757600080fd5b80632eb2c2d6146101235780634e1273f41461013857600080fd5b8062fdd58e146100a757806301ffc9a7146100cd5780630e89341c146100f0578063156e29f614610110575b600080fd5b6100ba6100b5366004610f12565b6101ba565b6040519081526020015b60405180910390f35b6100e06100db366004610f55565b610266565b60405190151581526020016100c4565b6101036100fe366004610f79565b6102b6565b6040516100c49190610fd8565b6100e061011e366004610feb565b61034a565b61013661013136600461116a565b610371565b005b61014b610146366004611214565b610413565b6040516100c4919061131a565b61013661016636600461132d565b610551565b6100e0610179366004611369565b6001600160a01b03918216600090815260016020908152604080832093909416825291909152205460ff1690565b6101366101b536600461139c565b610560565b60006001600160a01b03831661023d5760405162461bcd60e51b815260206004820152602b60248201527f455243313135353a2062616c616e636520717565727920666f7220746865207a60448201527f65726f206164647265737300000000000000000000000000000000000000000060648201526084015b60405180910390fd5b506000818152602081815260408083206001600160a01b03861684529091529020545b92915050565b60006001600160e01b03198216636cdb3d1360e11b148061029757506001600160e01b031982166303a24d0760e21b145b8061026057506301ffc9a760e01b6001600160e01b0319831614610260565b6060600280546102c590611401565b80601f01602080910402602001604051908101604052809291908181526020018280546102f190611401565b801561033e5780601f106103135761010080835404028352916020019161033e565b820191906000526020600020905b81548152906001019060200180831161032157829003601f168201915b50505050509050919050565b6000610367848484604051806020016040528060008152506105fb565b5060019392505050565b6001600160a01b03851633148061038d575061038d8533610179565b6103ff5760405162461bcd60e51b815260206004820152603260248201527f455243313135353a207472616e736665722063616c6c6572206973206e6f742060448201527f6f776e6572206e6f7220617070726f76656400000000000000000000000000006064820152608401610234565b61040c8585858585610705565b5050505050565b6060815183511461048c5760405162461bcd60e51b815260206004820152602960248201527f455243313135353a206163636f756e747320616e6420696473206c656e67746860448201527f206d69736d6174636800000000000000000000000000000000000000000000006064820152608401610234565b6000835167ffffffffffffffff8111156104a8576104a861101e565b6040519080825280602002602001820160405280156104d1578160200160208202803683370190505b50905060005b84518110156105495761051c8582815181106104f5576104f561143b565b602002602001015185838151811061050f5761050f61143b565b60200260200101516101ba565b82828151811061052e5761052e61143b565b602090810291909101015261054281611467565b90506104d7565b509392505050565b61055c338383610978565b5050565b6001600160a01b03851633148061057c575061057c8533610179565b6105ee5760405162461bcd60e51b815260206004820152602960248201527f455243313135353a2063616c6c6572206973206e6f74206f776e6572206e6f7260448201527f20617070726f76656400000000000000000000000000000000000000000000006064820152608401610234565b61040c8585858585610a6c565b6001600160a01b03841661065b5760405162461bcd60e51b815260206004820152602160248201527f455243313135353a206d696e7420746f20746865207a65726f206164647265736044820152607360f81b6064820152608401610234565b336106758160008761066c88610c0a565b61040c88610c0a565b6000848152602081815260408083206001600160a01b0389168452909152812080548592906106a5908490611480565b909155505060408051858152602081018590526001600160a01b0380881692600092918516917fc3d58168c5ae7397731d063d5bbf3d657854427343f4c083240f7aacaa2d0f62910160405180910390a461040c81600087878787610c55565b815183511461077c5760405162461bcd60e51b815260206004820152602860248201527f455243313135353a2069647320616e6420616d6f756e7473206c656e6774682060448201527f6d69736d617463680000000000000000000000000000000000000000000000006064820152608401610234565b6001600160a01b0384166107e05760405162461bcd60e51b815260206004820152602560248201527f455243313135353a207472616e7366657220746f20746865207a65726f206164604482015264647265737360d81b6064820152608401610234565b3360005b845181101561090a5760008582815181106108015761080161143b565b60200260200101519050600085838151811061081f5761081f61143b565b602090810291909101810151600084815280835260408082206001600160a01b038e1683529093529190912054909150818110156108b25760405162461bcd60e51b815260206004820152602a60248201527f455243313135353a20696e73756666696369656e742062616c616e636520666f60448201526939103a3930b739b332b960b11b6064820152608401610234565b6000838152602081815260408083206001600160a01b038e8116855292528083208585039055908b168252812080548492906108ef908490611480565b925050819055505050508061090390611467565b90506107e4565b50846001600160a01b0316866001600160a01b0316826001600160a01b03167f4a39dc06d4c0dbc64b70af90fd698a233a518aa5d07e595d983b8c0526c8f7fb878760405161095a929190611493565b60405180910390a4610970818787878787610dfa565b505050505050565b816001600160a01b0316836001600160a01b0316036109ff5760405162461bcd60e51b815260206004820152602960248201527f455243313135353a2073657474696e6720617070726f76616c2073746174757360448201527f20666f722073656c6600000000000000000000000000000000000000000000006064820152608401610234565b6001600160a01b03838116600081815260016020908152604080832094871680845294825291829020805460ff191686151590811790915591519182527f17307eab39ab6107e8899845ad3d59bd9653f200f220920489ca2b5937696c31910160405180910390a3505050565b6001600160a01b038416610ad05760405162461bcd60e51b815260206004820152602560248201527f455243313135353a207472616e7366657220746f20746865207a65726f206164604482015264647265737360d81b6064820152608401610234565b33610ae081878761066c88610c0a565b6000848152602081815260408083206001600160a01b038a16845290915290205483811015610b645760405162461bcd60e51b815260206004820152602a60248201527f455243313135353a20696e73756666696369656e742062616c616e636520666f60448201526939103a3930b739b332b960b11b6064820152608401610234565b6000858152602081815260408083206001600160a01b038b8116855292528083208785039055908816825281208054869290610ba1908490611480565b909155505060408051868152602081018690526001600160a01b03808916928a821692918616917fc3d58168c5ae7397731d063d5bbf3d657854427343f4c083240f7aacaa2d0f62910160405180910390a4610c01828888888888610c55565b50505050505050565b60408051600180825281830190925260609160009190602080830190803683370190505090508281600081518110610c4457610c4461143b565b602090810291909101015292915050565b6001600160a01b0384163b156109705760405163f23a6e6160e01b81526001600160a01b0385169063f23a6e6190610c9990899089908890889088906004016114c1565b6020604051808303816000875af1925050508015610cd4575060408051601f3d908101601f19168201909252610cd191810190611504565b60015b610d8957610ce0611521565b806308c379a003610d195750610cf461153d565b80610cff5750610d1b565b8060405162461bcd60e51b81526004016102349190610fd8565b505b60405162461bcd60e51b815260206004820152603460248201527f455243313135353a207472616e7366657220746f206e6f6e204552433131353560448201527f526563656976657220696d706c656d656e7465720000000000000000000000006064820152608401610234565b6001600160e01b0319811663f23a6e6160e01b14610c015760405162461bcd60e51b815260206004820152602860248201527f455243313135353a204552433131353552656365697665722072656a656374656044820152676420746f6b656e7360c01b6064820152608401610234565b6001600160a01b0384163b156109705760405163bc197c8160e01b81526001600160a01b0385169063bc197c8190610e3e90899089908890889088906004016115c7565b6020604051808303816000875af1925050508015610e79575060408051601f3d908101601f19168201909252610e7691810190611504565b60015b610e8557610ce0611521565b6001600160e01b0319811663bc197c8160e01b14610c015760405162461bcd60e51b815260206004820152602860248201527f455243313135353a204552433131353552656365697665722072656a656374656044820152676420746f6b656e7360c01b6064820152608401610234565b80356001600160a01b0381168114610f0d57600080fd5b919050565b60008060408385031215610f2557600080fd5b610f2e83610ef6565b946020939093013593505050565b6001600160e01b031981168114610f5257600080fd5b50565b600060208284031215610f6757600080fd5b8135610f7281610f3c565b9392505050565b600060208284031215610f8b57600080fd5b5035919050565b6000815180845260005b81811015610fb857602081850181015186830182015201610f9c565b506000602082860101526020601f19601f83011685010191505092915050565b602081526000610f726020830184610f92565b60008060006060848603121561100057600080fd5b61100984610ef6565b95602085013595506040909401359392505050565b634e487b7160e01b600052604160045260246000fd5b601f8201601f1916810167ffffffffffffffff8111828210171561105a5761105a61101e565b6040525050565b600067ffffffffffffffff82111561107b5761107b61101e565b5060051b60200190565b600082601f83011261109657600080fd5b813560206110a382611061565b6040516110b08282611034565b83815260059390931b85018201928281019150868411156110d057600080fd5b8286015b848110156110eb57803583529183019183016110d4565b509695505050505050565b600082601f83011261110757600080fd5b813567ffffffffffffffff8111156111215761112161101e565b604051611138601f8301601f191660200182611034565b81815284602083860101111561114d57600080fd5b816020850160208301376000918101602001919091529392505050565b600080600080600060a0868803121561118257600080fd5b61118b86610ef6565b945061119960208701610ef6565b9350604086013567ffffffffffffffff808211156111b657600080fd5b6111c289838a01611085565b945060608801359150808211156111d857600080fd5b6111e489838a01611085565b935060808801359150808211156111fa57600080fd5b50611207888289016110f6565b9150509295509295909350565b6000806040838503121561122757600080fd5b823567ffffffffffffffff8082111561123f57600080fd5b818501915085601f83011261125357600080fd5b8135602061126082611061565b60405161126d8282611034565b83815260059390931b850182019282810191508984111561128d57600080fd5b948201945b838610156112b2576112a386610ef6565b82529482019490820190611292565b965050860135925050808211156112c857600080fd5b506112d585828601611085565b9150509250929050565b600081518084526020808501945080840160005b8381101561130f578151875295820195908201906001016112f3565b509495945050505050565b602081526000610f7260208301846112df565b6000806040838503121561134057600080fd5b61134983610ef6565b91506020830135801515811461135e57600080fd5b809150509250929050565b6000806040838503121561137c57600080fd5b61138583610ef6565b915061139360208401610ef6565b90509250929050565b600080600080600060a086880312156113b457600080fd5b6113bd86610ef6565b94506113cb60208701610ef6565b93506040860135925060608601359150608086013567ffffffffffffffff8111156113f557600080fd5b611207888289016110f6565b600181811c9082168061141557607f821691505b60208210810361143557634e487b7160e01b600052602260045260246000fd5b50919050565b634e487b7160e01b600052603260045260246000fd5b634e487b7160e01b600052601160045260246000fd5b60006001820161147957611479611451565b5060010190565b8082018082111561026057610260611451565b6040815260006114a660408301856112df565b82810360208401526114b881856112df565b95945050505050565b60006001600160a01b03808816835280871660208401525084604083015283606083015260a060808301526114f960a0830184610f92565b979650505050505050565b60006020828403121561151657600080fd5b8151610f7281610f3c565b600060033d111561153a5760046000803e5060005160e01c5b90565b600060443d101561154b5790565b6040516003193d81016004833e81513d67ffffffffffffffff816024840111818411171561157b57505050505090565b82850191508151818111156115935750505050505090565b843d87010160208285010111156115ad5750505050505090565b6115bc60208286010187611034565b509095945050505050565b60006001600160a01b03808816835280871660208401525060a060408301526115f360a08301866112df565b828103606084015261160581866112df565b905082810360808401526116198185610f92565b9897505050505050505056fea164736f6c6343000811000a",
  "linkReferences": {},
  "deployedLinkReferences": {}
}